{
  "_format": "hh-sol-artifact-1",
  "contractName": "PolygonZkEVMBridgeMock",
  "sourceName": "contracts/mocks/PolygonZkEVMBridgeMock.sol",
  "abi": [
    {
      "inputs": [],
      "name": "AlreadyClaimed",
      "type": "error"
    },
    {
      "inputs": [],
      "name": "AmountDoesNotMatchMsgValue",
      "type": "error"
    },
    {
      "inputs": [],
      "name": "AmountTooSmall",
      "type": "error"
    },
    {
      "inputs": [],
      "name": "DestinationNetworkInvalid",
      "type": "error"
    },
    {
      "inputs": [],
      "name": "EtherTransferFailed",
      "type": "error"
    },
    {
      "inputs": [],
      "name": "GlobalExitRootInvalid",
      "type": "error"
    },
    {
      "inputs": [],
      "name": "InvalidSmtProof",
      "type": "error"
    },
    {
      "inputs": [],
      "name": "MerkleTreeFull",
      "type": "error"
    },
    {
      "inputs": [],
      "name": "MessageFailed",
      "type": "error"
    },
    {
      "inputs": [],
      "name": "MsgValueNotZero",
      "type": "error"
    },
    {
      "inputs": [],
      "name": "NotValidAmount",
      "type": "error"
    },
    {
      "inputs": [],
      "name": "NotValidOwner",
      "type": "error"
    },
    {
      "inputs": [],
      "name": "NotValidSignature",
      "type": "error"
    },
    {
      "inputs": [],
      "name": "NotValidSpender",
      "type": "error"
    },
    {
      "inputs": [],
      "name": "OnlyAdmin",
      "type": "error"
    },
    {
      "inputs": [],
      "name": "OnlyEmergencyState",
      "type": "error"
    },
    {
      "inputs": [],
      "name": "OnlyNotEmergencyState",
      "type": "error"
    },
    {
      "inputs": [],
      "name": "OnlyPolygonZkEVM",
      "type": "error"
    },
    {
      "anonymous": false,
      "inputs": [
        {
          "indexed": false,
          "internalType": "uint8",
          "name": "leafType",
          "type": "uint8"
        },
        {
          "indexed": false,
          "internalType": "uint32",
          "name": "originNetwork",
          "type": "uint32"
        },
        {
          "indexed": false,
          "internalType": "address",
          "name": "originAddress",
          "type": "address"
        },
        {
          "indexed": false,
          "internalType": "uint32",
          "name": "destinationNetwork",
          "type": "uint32"
        },
        {
          "indexed": false,
          "internalType": "address",
          "name": "destinationAddress",
          "type": "address"
        },
        {
          "indexed": false,
          "internalType": "uint256",
          "name": "amount",
          "type": "uint256"
        },
        {
          "indexed": false,
          "internalType": "bytes",
          "name": "metadata",
          "type": "bytes"
        },
        {
          "indexed": false,
          "internalType": "uint32",
          "name": "depositCount",
          "type": "uint32"
        }
      ],
      "name": "BridgeEvent",
      "type": "event"
    },
    {
      "anonymous": false,
      "inputs": [
        {
          "indexed": false,
          "internalType": "uint32",
          "name": "index",
          "type": "uint32"
        },
        {
          "indexed": false,
          "internalType": "uint32",
          "name": "originNetwork",
          "type": "uint32"
        },
        {
          "indexed": false,
          "internalType": "address",
          "name": "originAddress",
          "type": "address"
        },
        {
          "indexed": false,
          "internalType": "address",
          "name": "destinationAddress",
          "type": "address"
        },
        {
          "indexed": false,
          "internalType": "uint256",
          "name": "amount",
          "type": "uint256"
        }
      ],
      "name": "ClaimEvent",
      "type": "event"
    },
    {
      "anonymous": false,
      "inputs": [],
      "name": "EmergencyStateActivated",
      "type": "event"
    },
    {
      "anonymous": false,
      "inputs": [],
      "name": "EmergencyStateDeactivated",
      "type": "event"
    },
    {
      "anonymous": false,
      "inputs": [
        {
          "indexed": false,
          "internalType": "uint8",
          "name": "version",
          "type": "uint8"
        }
      ],
      "name": "Initialized",
      "type": "event"
    },
    {
      "anonymous": false,
      "inputs": [
        {
          "indexed": false,
          "internalType": "uint32",
          "name": "originNetwork",
          "type": "uint32"
        },
        {
          "indexed": false,
          "internalType": "address",
          "name": "originTokenAddress",
          "type": "address"
        },
        {
          "indexed": false,
          "internalType": "address",
          "name": "wrappedTokenAddress",
          "type": "address"
        },
        {
          "indexed": false,
          "internalType": "bytes",
          "name": "metadata",
          "type": "bytes"
        }
      ],
      "name": "NewWrappedToken",
      "type": "event"
    },
    {
      "anonymous": false,
      "inputs": [
        {
          "indexed": true,
          "internalType": "address",
          "name": "previousOwner",
          "type": "address"
        },
        {
          "indexed": true,
          "internalType": "address",
          "name": "newOwner",
          "type": "address"
        }
      ],
      "name": "OwnershipTransferred",
      "type": "event"
    },
    {
      "inputs": [],
      "name": "activateEmergencyState",
      "outputs": [],
      "stateMutability": "nonpayable",
      "type": "function"
    },
    {
      "inputs": [],
      "name": "admin",
      "outputs": [
        {
          "internalType": "address",
          "name": "",
          "type": "address"
        }
      ],
      "stateMutability": "view",
      "type": "function"
    },
    {
      "inputs": [
        {
          "internalType": "uint32",
          "name": "destinationNetwork",
          "type": "uint32"
        },
        {
          "internalType": "address",
          "name": "destinationAddress",
          "type": "address"
        },
        {
          "internalType": "uint256",
          "name": "amount",
          "type": "uint256"
        },
        {
          "internalType": "address",
          "name": "token",
          "type": "address"
        },
        {
          "internalType": "bool",
          "name": "forceUpdateGlobalExitRoot",
          "type": "bool"
        },
        {
          "internalType": "bytes",
          "name": "permitData",
          "type": "bytes"
        }
      ],
      "name": "bridgeAsset",
      "outputs": [],
      "stateMutability": "payable",
      "type": "function"
    },
    {
      "inputs": [],
      "name": "bridgeFee",
      "outputs": [
        {
          "internalType": "uint256",
          "name": "",
          "type": "uint256"
        }
      ],
      "stateMutability": "view",
      "type": "function"
    },
    {
      "inputs": [
        {
          "internalType": "bytes32[32]",
          "name": "smtProof",
          "type": "bytes32[32]"
        },
        {
          "internalType": "uint32",
          "name": "index",
          "type": "uint32"
        },
        {
          "internalType": "bytes32",
          "name": "mainnetExitRoot",
          "type": "bytes32"
        },
        {
          "internalType": "bytes32",
          "name": "rollupExitRoot",
          "type": "bytes32"
        },
        {
          "internalType": "uint32",
          "name": "originNetwork",
          "type": "uint32"
        },
        {
          "internalType": "address",
          "name": "originTokenAddress",
          "type": "address"
        },
        {
          "internalType": "uint32",
          "name": "destinationNetwork",
          "type": "uint32"
        },
        {
          "internalType": "address",
          "name": "destinationAddress",
          "type": "address"
        },
        {
          "internalType": "uint256",
          "name": "amount",
          "type": "uint256"
        },
        {
          "internalType": "bytes",
          "name": "metadata",
          "type": "bytes"
        }
      ],
      "name": "claimAsset",
      "outputs": [],
      "stateMutability": "nonpayable",
      "type": "function"
    },
    {
      "inputs": [
        {
          "internalType": "uint256",
          "name": "",
          "type": "uint256"
        }
      ],
      "name": "claimedBitMap",
      "outputs": [
        {
          "internalType": "uint256",
          "name": "",
          "type": "uint256"
        }
      ],
      "stateMutability": "view",
      "type": "function"
    },
    {
      "inputs": [],
      "name": "deactivateEmergencyState",
      "outputs": [],
      "stateMutability": "nonpayable",
      "type": "function"
    },
    {
      "inputs": [],
      "name": "depositCount",
      "outputs": [
        {
          "internalType": "uint256",
          "name": "",
          "type": "uint256"
        }
      ],
      "stateMutability": "view",
      "type": "function"
    },
    {
      "inputs": [],
      "name": "feeAddress",
      "outputs": [
        {
          "internalType": "address",
          "name": "",
          "type": "address"
        }
      ],
      "stateMutability": "view",
      "type": "function"
    },
    {
      "inputs": [],
      "name": "gasTokenAddress",
      "outputs": [
        {
          "internalType": "address",
          "name": "",
          "type": "address"
        }
      ],
      "stateMutability": "view",
      "type": "function"
    },
    {
      "inputs": [],
      "name": "gasTokenDecimalDiffFactor",
      "outputs": [
        {
          "internalType": "uint256",
          "name": "",
          "type": "uint256"
        }
      ],
      "stateMutability": "view",
      "type": "function"
    },
    {
      "inputs": [],
      "name": "gasTokenMetadata",
      "outputs": [
        {
          "internalType": "bytes",
          "name": "",
          "type": "bytes"
        }
      ],
      "stateMutability": "view",
      "type": "function"
    },
    {
      "inputs": [],
      "name": "getDepositRoot",
      "outputs": [
        {
          "internalType": "bytes32",
          "name": "",
          "type": "bytes32"
        }
      ],
      "stateMutability": "view",
      "type": "function"
    },
    {
      "inputs": [
        {
          "internalType": "uint8",
          "name": "leafType",
          "type": "uint8"
        },
        {
          "internalType": "uint32",
          "name": "originNetwork",
          "type": "uint32"
        },
        {
          "internalType": "address",
          "name": "originAddress",
          "type": "address"
        },
        {
          "internalType": "uint32",
          "name": "destinationNetwork",
          "type": "uint32"
        },
        {
          "internalType": "address",
          "name": "destinationAddress",
          "type": "address"
        },
        {
          "internalType": "uint256",
          "name": "amount",
          "type": "uint256"
        },
        {
          "internalType": "bytes32",
          "name": "metadataHash",
          "type": "bytes32"
        }
      ],
      "name": "getLeafValue",
      "outputs": [
        {
          "internalType": "bytes32",
          "name": "",
          "type": "bytes32"
        }
      ],
      "stateMutability": "pure",
      "type": "function"
    },
    {
      "inputs": [
        {
          "internalType": "uint32",
          "name": "originNetwork",
          "type": "uint32"
        },
        {
          "internalType": "address",
          "name": "originTokenAddress",
          "type": "address"
        }
      ],
      "name": "getTokenWrappedAddress",
      "outputs": [
        {
          "internalType": "address",
          "name": "",
          "type": "address"
        }
      ],
      "stateMutability": "view",
      "type": "function"
    },
    {
      "inputs": [],
      "name": "globalExitRootManager",
      "outputs": [
        {
          "internalType": "contract IBasePolygonZkEVMGlobalExitRoot",
          "name": "",
          "type": "address"
        }
      ],
      "stateMutability": "view",
      "type": "function"
    },
    {
      "inputs": [
        {
          "internalType": "uint32",
          "name": "_networkID",
          "type": "uint32"
        },
        {
          "internalType": "contract IBasePolygonZkEVMGlobalExitRoot",
          "name": "_globalExitRootManager",
          "type": "address"
        },
        {
          "internalType": "address",
          "name": "_polygonZkEVMaddress",
          "type": "address"
        },
        {
          "internalType": "address",
          "name": "_admin",
          "type": "address"
        },
        {
          "internalType": "uint256",
          "name": "_bridgeFee",
          "type": "uint256"
        },
        {
          "internalType": "address",
          "name": "_feeAddress",
          "type": "address"
        },
        {
          "internalType": "address",
          "name": "_gasTokenAddress",
          "type": "address"
        },
        {
          "internalType": "bytes",
          "name": "_gasTokenMetadata",
          "type": "bytes"
        },
        {
          "internalType": "uint256",
          "name": "_gasTokenDecimalDiffFactor",
          "type": "uint256"
        }
      ],
      "name": "initialize",
      "outputs": [],
      "stateMutability": "nonpayable",
      "type": "function"
    },
    {
      "inputs": [
        {
          "internalType": "uint256",
          "name": "index",
          "type": "uint256"
        }
      ],
      "name": "isClaimed",
      "outputs": [
        {
          "internalType": "bool",
          "name": "",
          "type": "bool"
        }
      ],
      "stateMutability": "view",
      "type": "function"
    },
    {
      "inputs": [],
      "name": "isEmergencyState",
      "outputs": [
        {
          "internalType": "bool",
          "name": "",
          "type": "bool"
        }
      ],
      "stateMutability": "view",
      "type": "function"
    },
    {
      "inputs": [],
      "name": "lastUpdatedDepositCount",
      "outputs": [
        {
          "internalType": "uint32",
          "name": "",
          "type": "uint32"
        }
      ],
      "stateMutability": "view",
      "type": "function"
    },
    {
      "inputs": [],
      "name": "maxEtherBridge",
      "outputs": [
        {
          "internalType": "uint256",
          "name": "",
          "type": "uint256"
        }
      ],
      "stateMutability": "view",
      "type": "function"
    },
    {
      "inputs": [],
      "name": "networkID",
      "outputs": [
        {
          "internalType": "uint32",
          "name": "",
          "type": "uint32"
        }
      ],
      "stateMutability": "view",
      "type": "function"
    },
    {
      "inputs": [],
      "name": "owner",
      "outputs": [
        {
          "internalType": "address",
          "name": "",
          "type": "address"
        }
      ],
      "stateMutability": "view",
      "type": "function"
    },
    {
      "inputs": [],
      "name": "polygonZkEVMaddress",
      "outputs": [
        {
          "internalType": "address",
          "name": "",
          "type": "address"
        }
      ],
      "stateMutability": "view",
      "type": "function"
    },
    {
      "inputs": [
        {
          "internalType": "uint32",
          "name": "originNetwork",
          "type": "uint32"
        },
        {
          "internalType": "address",
          "name": "originTokenAddress",
          "type": "address"
        },
        {
          "internalType": "string",
          "name": "name",
          "type": "string"
        },
        {
          "internalType": "string",
          "name": "symbol",
          "type": "string"
        },
        {
          "internalType": "uint8",
          "name": "decimals",
          "type": "uint8"
        }
      ],
      "name": "precalculatedWrapperAddress",
      "outputs": [
        {
          "internalType": "address",
          "name": "",
          "type": "address"
        }
      ],
      "stateMutability": "view",
      "type": "function"
    },
    {
      "inputs": [],
      "name": "renounceOwnership",
      "outputs": [],
      "stateMutability": "nonpayable",
      "type": "function"
    },
    {
      "inputs": [
        {
          "internalType": "address",
          "name": "_feeAddress",
          "type": "address"
        },
        {
          "internalType": "uint256",
          "name": "_bridgeFee",
          "type": "uint256"
        }
      ],
      "name": "setBridgeSettingsFee",
      "outputs": [],
      "stateMutability": "nonpayable",
      "type": "function"
    },
    {
      "inputs": [
        {
          "internalType": "uint256",
          "name": "_maxEtherBridge",
          "type": "uint256"
        }
      ],
      "name": "setMaxEtherBridge",
      "outputs": [],
      "stateMutability": "nonpayable",
      "type": "function"
    },
    {
      "inputs": [
        {
          "internalType": "uint32",
          "name": "_networkID",
          "type": "uint32"
        }
      ],
      "name": "setNetworkID",
      "outputs": [],
      "stateMutability": "nonpayable",
      "type": "function"
    },
    {
      "inputs": [
        {
          "internalType": "bytes32",
          "name": "",
          "type": "bytes32"
        }
      ],
      "name": "tokenInfoToWrappedToken",
      "outputs": [
        {
          "internalType": "address",
          "name": "",
          "type": "address"
        }
      ],
      "stateMutability": "view",
      "type": "function"
    },
    {
      "inputs": [
        {
          "internalType": "address",
          "name": "newOwner",
          "type": "address"
        }
      ],
      "name": "transferOwnership",
      "outputs": [],
      "stateMutability": "nonpayable",
      "type": "function"
    },
    {
      "inputs": [],
      "name": "updateGlobalExitRoot",
      "outputs": [],
      "stateMutability": "nonpayable",
      "type": "function"
    },
    {
      "inputs": [
        {
          "internalType": "bytes32",
          "name": "leafHash",
          "type": "bytes32"
        },
        {
          "internalType": "bytes32[32]",
          "name": "smtProof",
          "type": "bytes32[32]"
        },
        {
          "internalType": "uint32",
          "name": "index",
          "type": "uint32"
        },
        {
          "internalType": "bytes32",
          "name": "root",
          "type": "bytes32"
        }
      ],
      "name": "verifyMerkleProof",
      "outputs": [
        {
          "internalType": "bool",
          "name": "",
          "type": "bool"
        }
      ],
      "stateMutability": "pure",
      "type": "function"
    },
    {
      "inputs": [
        {
          "internalType": "address",
          "name": "",
          "type": "address"
        }
      ],
      "name": "wrappedTokenToTokenInfo",
      "outputs": [
        {
          "internalType": "uint32",
          "name": "originNetwork",
          "type": "uint32"
        },
        {
          "internalType": "address",
          "name": "originTokenAddress",
          "type": "address"
        }
      ],
      "stateMutability": "view",
      "type": "function"
    }
  ],
  "bytecode": "0x608060405234801561001057600080fd5b5061605c806100206000396000f3fe608060405260043610620002455760003560e01c8063787e05da1162000134578063bab161bf11620000be578063dbc169761162000089578063f2fde38b116200006c578063f2fde38b146200086d578063f851a4401462000892578063fb57083414620008c157600080fd5b8063dbc169761462000824578063ee25560b146200083c57600080fd5b8063bab161bf146200075f578063be5831c71462000799578063cd58657914620007d5578063d02103ca14620007ec57600080fd5b80638da5cb5b11620000ff5780638da5cb5b14620006b057806391e57e2d14620006dd5780639e34070f14620006f5578063aaa13cc2146200073a57600080fd5b8063787e05da146200061457806379e2cf97146200063957806381b1c174146200065157806382b12dd7146200069857600080fd5b8063318aee3d11620001d35780633e197043116200019e5780635a278b3c11620001815780635a278b3c14620005bf57806363a9bf8214620005d7578063715018a614620005fc57600080fd5b80633e197043146200049c57806341275358146200059057600080fd5b8063318aee3d146200039d57806334ac9cf214620004265780633ae0504714620004555780633c351e10146200046d57600080fd5b80632b5e42e711620002145780632b5e42e714620003075780632c3f58cd146200032c5780632cffd02e14620003515780632dfdf0b5146200037657600080fd5b806315064c96146200024a5780632072f6c5146200027b57806322e95f2c146200029557806327aef4e814620002e0575b600080fd5b3480156200025757600080fd5b50606854620002669060ff1681565b60405190151581526020015b60405180910390f35b3480156200028857600080fd5b5062000293620008e6565b005b348015620002a257600080fd5b50620002ba620002b43660046200365c565b62000944565b60405173ffffffffffffffffffffffffffffffffffffffff909116815260200162000272565b348015620002ed57600080fd5b50620002f8620009e7565b6040516200027291906200370a565b3480156200031457600080fd5b50620002936200032636600462003726565b62000a7d565b3480156200033957600080fd5b50620002936200034b36600462003740565b62000a8c565b3480156200035e57600080fd5b506200029362000370366004620037bd565b62000ad2565b3480156200038357600080fd5b506200038e60535481565b60405190815260200162000272565b348015620003aa57600080fd5b50620003f4620003bc366004620038a3565b606b6020526000908152604090205463ffffffff811690640100000000900473ffffffffffffffffffffffffffffffffffffffff1682565b6040805163ffffffff909316835273ffffffffffffffffffffffffffffffffffffffff90911660208301520162000272565b3480156200043357600080fd5b50606c54620002ba9073ffffffffffffffffffffffffffffffffffffffff1681565b3480156200046257600080fd5b506200038e62001076565b3480156200047a57600080fd5b50607054620002ba9073ffffffffffffffffffffffffffffffffffffffff1681565b348015620004a957600080fd5b506200038e620004bb366004620038d3565b6040517fff0000000000000000000000000000000000000000000000000000000000000060f889901b1660208201527fffffffff0000000000000000000000000000000000000000000000000000000060e088811b821660218401527fffffffffffffffffffffffffffffffffffffffff000000000000000000000000606089811b821660258601529188901b909216603984015285901b16603d8201526051810183905260718101829052600090609101604051602081830303815290604052805190602001209050979650505050505050565b3480156200059d57600080fd5b50606f54620002ba9073ffffffffffffffffffffffffffffffffffffffff1681565b348015620005cc57600080fd5b506200038e60725481565b348015620005e457600080fd5b5062000293620005f636600462003a83565b6200115c565b3480156200060957600080fd5b506200029362001683565b3480156200062157600080fd5b50620002936200063336600462003b52565b62001699565b3480156200064657600080fd5b50620002936200175a565b3480156200065e57600080fd5b50620002ba6200067036600462003726565b606a6020526000908152604090205473ffffffffffffffffffffffffffffffffffffffff1681565b348015620006a557600080fd5b506200038e606e5481565b348015620006bd57600080fd5b5060a55473ffffffffffffffffffffffffffffffffffffffff16620002ba565b348015620006ea57600080fd5b506200038e60d75481565b3480156200070257600080fd5b50620002666200071436600462003726565b600881901c600090815260696020526040902054600160ff9092169190911b9081161490565b3480156200074757600080fd5b50620002ba6200075936600462003b81565b62001794565b3480156200076c57600080fd5b506068546200078390610100900463ffffffff1681565b60405163ffffffff909116815260200162000272565b348015620007a657600080fd5b506068546200078390790100000000000000000000000000000000000000000000000000900463ffffffff1681565b62000293620007e636600462003c44565b62001980565b348015620007f957600080fd5b50606854620002ba9065010000000000900473ffffffffffffffffffffffffffffffffffffffff1681565b3480156200083157600080fd5b506200029362001a54565b3480156200084957600080fd5b506200038e6200085b36600462003726565b60696020526000908152604090205481565b3480156200087a57600080fd5b50620002936200088c366004620038a3565b62001ab0565b3480156200089f57600080fd5b50606d54620002ba9073ffffffffffffffffffffffffffffffffffffffff1681565b348015620008ce57600080fd5b5062000266620008e036600462003ce6565b62001b6d565b606c5473ffffffffffffffffffffffffffffffffffffffff16331462000938576040517fe2e8106b00000000000000000000000000000000000000000000000000000000815260040160405180910390fd5b6200094262001c56565b565b6040805160e084901b7fffffffff0000000000000000000000000000000000000000000000000000000016602080830191909152606084901b7fffffffffffffffffffffffffffffffffffffffff00000000000000000000000016602483015282516018818403018152603890920183528151918101919091206000908152606a909152205473ffffffffffffffffffffffffffffffffffffffff165b92915050565b60718054620009f69062003d33565b80601f016020809104026020016040519081016040528092919081815260200182805462000a249062003d33565b801562000a755780601f1062000a495761010080835404028352916020019162000a75565b820191906000526020600020905b81548152906001019060200180831162000a5757829003601f168201915b505050505081565b62000a8762001cea565b60d755565b62000a9662001cea565b6068805463ffffffff909216610100027fffffffffffffffffffffffffffffffffffffffffffffffffffffff00000000ff909216919091179055565b60685460ff161562000b10576040517f2f0047fc00000000000000000000000000000000000000000000000000000000815260040160405180910390fd5b62000b278b8b8b8b8b8b8b8b8b8b8b600062001d6d565b73ffffffffffffffffffffffffffffffffffffffff861662000c03576040805160008082526020820190925273ffffffffffffffffffffffffffffffffffffffff861690859060405162000b7c919062003d88565b60006040518083038185875af1925050503d806000811462000bbb576040519150601f19603f3d011682016040523d82523d6000602084013e62000bc0565b606091505b505090508062000bfc576040517f6747a28800000000000000000000000000000000000000000000000000000000815260040160405180910390fd5b5062000ffe565b60685463ffffffff61010090910481169088160362000c455762000c3f73ffffffffffffffffffffffffffffffffffffffff871685856200203b565b62000ffe565b6040517fffffffff0000000000000000000000000000000000000000000000000000000060e089901b1660208201527fffffffffffffffffffffffffffffffffffffffff000000000000000000000000606088901b166024820152600090603801604080517fffffffffffffffffffffffffffffffffffffffffffffffffffffffffffffffe081840301815291815281516020928301206000818152606a90935291205490915073ffffffffffffffffffffffffffffffffffffffff168062000f70576000808062000d1a8688018862003da6565b92509250925060008584848460405162000d349062003616565b62000d429392919062003e27565b8190604051809103906000f590508015801562000d63573d6000803e3d6000fd5b506040517f40c10f1900000000000000000000000000000000000000000000000000000000815273ffffffffffffffffffffffffffffffffffffffff8c81166004830152602482018c9052919250908216906340c10f1990604401600060405180830381600087803b15801562000dd957600080fd5b505af115801562000dee573d6000803e3d6000fd5b5050505080606a600088815260200190815260200160002060006101000a81548173ffffffffffffffffffffffffffffffffffffffff021916908373ffffffffffffffffffffffffffffffffffffffff16021790555060405180604001604052808e63ffffffff1681526020018d73ffffffffffffffffffffffffffffffffffffffff16815250606b60008373ffffffffffffffffffffffffffffffffffffffff1673ffffffffffffffffffffffffffffffffffffffff16815260200190815260200160002060008201518160000160006101000a81548163ffffffff021916908363ffffffff16021790555060208201518160000160046101000a81548173ffffffffffffffffffffffffffffffffffffffff021916908373ffffffffffffffffffffffffffffffffffffffff1602179055509050507f490e59a1701b938786ac72570a1efeac994a3dbe96e2e883e19e902ace6e6a398d8d838b8b60405162000f5e95949392919062003ead565b60405180910390a15050505062000ffb565b6040517f40c10f1900000000000000000000000000000000000000000000000000000000815273ffffffffffffffffffffffffffffffffffffffff8781166004830152602482018790528216906340c10f1990604401600060405180830381600087803b15801562000fe157600080fd5b505af115801562000ff6573d6000803e3d6000fd5b505050505b50505b6040805163ffffffff8c811682528916602082015273ffffffffffffffffffffffffffffffffffffffff88811682840152861660608201526080810185905290517f25308c93ceeed162da955b3f7ce3e3f93606579e40fb92029faa9efe275459839181900360a00190a15050505050505050505050565b605354600090819081805b602081101562001153578083901c600116600103620010e45760338160208110620010b057620010b062003ef5565b0154604080516020810192909252810185905260600160405160208183030381529060405280519060200120935062001111565b60408051602081018690529081018390526060016040516020818303038152906040528051906020012093505b604080516020810184905290810183905260600160405160208183030381529060405280519060200120915080806200114a9062003f53565b91505062001081565b50919392505050565b8673ffffffffffffffffffffffffffffffffffffffff8116620011e0576040517f08c379a000000000000000000000000000000000000000000000000000000000815260206004820152600f60248201527f496c6c6567616c2061646472657373000000000000000000000000000000000060448201526064015b60405180910390fd5b8673ffffffffffffffffffffffffffffffffffffffff811662001260576040517f08c379a000000000000000000000000000000000000000000000000000000000815260206004820152600f60248201527f496c6c6567616c206164647265737300000000000000000000000000000000006044820152606401620011d7565b8573ffffffffffffffffffffffffffffffffffffffff8116620012e0576040517f08c379a000000000000000000000000000000000000000000000000000000000815260206004820152600f60248201527f496c6c6567616c206164647265737300000000000000000000000000000000006044820152606401620011d7565b600054610100900460ff1615808015620013015750600054600160ff909116105b806200131d5750303b1580156200131d575060005460ff166001145b620013ab576040517f08c379a000000000000000000000000000000000000000000000000000000000815260206004820152602e60248201527f496e697469616c697a61626c653a20636f6e747261637420697320616c72656160448201527f647920696e697469616c697a65640000000000000000000000000000000000006064820152608401620011d7565b600080547fffffffffffffffffffffffffffffffffffffffffffffffffffffffffffffff0016600117905580156200140a57600080547fffffffffffffffffffffffffffffffffffffffffffffffffffffffffffff00ff166101001790555b6000851162001476576040517f08c379a000000000000000000000000000000000000000000000000000000000815260206004820152600360248201527f49444600000000000000000000000000000000000000000000000000000000006044820152606401620011d7565b8c606860016101000a81548163ffffffff021916908363ffffffff1602179055508b606860056101000a81548173ffffffffffffffffffffffffffffffffffffffff021916908373ffffffffffffffffffffffffffffffffffffffff1602179055508a606c60006101000a81548173ffffffffffffffffffffffffffffffffffffffff021916908373ffffffffffffffffffffffffffffffffffffffff16021790555089606d60006101000a81548173ffffffffffffffffffffffffffffffffffffffff021916908373ffffffffffffffffffffffffffffffffffffffff16021790555088606e8190555087606f60006101000a81548173ffffffffffffffffffffffffffffffffffffffff021916908373ffffffffffffffffffffffffffffffffffffffff16021790555086607060006101000a81548173ffffffffffffffffffffffffffffffffffffffff021916908373ffffffffffffffffffffffffffffffffffffffff1602179055508560719081620015f4919062003fe0565b5060728590556703782dace9d9000060d7556200161062002116565b80156200167457600080547fffffffffffffffffffffffffffffffffffffffffffffffffffffffffffff00ff169055604051600181527f7f26b83ff96e1f2b6a682f133852f6798a09c465da95921460cefb38474024989060200160405180910390a15b50505050505050505050505050565b6200168d62001cea565b620009426000620021b5565b606d5473ffffffffffffffffffffffffffffffffffffffff163314620016eb576040517f4755657900000000000000000000000000000000000000000000000000000000815260040160405180910390fd5b73ffffffffffffffffffffffffffffffffffffffff8216156200174957606f80547fffffffffffffffffffffffff00000000000000000000000000000000000000001673ffffffffffffffffffffffffffffffffffffffff84161790555b80156200175657606e8190555b5050565b605354606854790100000000000000000000000000000000000000000000000000900463ffffffff1610156200094257620009426200222c565b6040517fffffffff0000000000000000000000000000000000000000000000000000000060e089901b1660208201527fffffffffffffffffffffffffffffffffffffffff000000000000000000000000606088901b1660248201526000908190603801604051602081830303815290604052805190602001209050600060ff60f81b3083604051806020016200182a9062003616565b7fffffffffffffffffffffffffffffffffffffffffffffffffffffffffffffffe082820381018352601f90910116604081905262001875908d908d908d908d908d9060200162004107565b604080517fffffffffffffffffffffffffffffffffffffffffffffffffffffffffffffffe081840301815290829052620018b3929160200162004148565b604051602081830303815290604052805190602001206040516020016200193c94939291907fff0000000000000000000000000000000000000000000000000000000000000094909416845260609290921b7fffffffffffffffffffffffffffffffffffffffff0000000000000000000000001660018401526015830152603582015260550190565b604080518083037fffffffffffffffffffffffffffffffffffffffffffffffffffffffffffffffe001815291905280516020909101209a9950505050505050505050565b60d75434111562001a3a576040517f08c379a000000000000000000000000000000000000000000000000000000000815260206004820152604760248201527f506f6c79676f6e5a6b45564d4272696467653a3a62726964676541737365743a60448201527f2043616e6e6f7420627269646765206d6f7265207468616e206d61784574686560648201527f7242726964676500000000000000000000000000000000000000000000000000608482015260a401620011d7565b62001a4b8787878787878762002307565b50505050505050565b606c5473ffffffffffffffffffffffffffffffffffffffff16331462001aa6576040517fe2e8106b00000000000000000000000000000000000000000000000000000000815260040160405180910390fd5b6200094262002af5565b62001aba62001cea565b73ffffffffffffffffffffffffffffffffffffffff811662001b5f576040517f08c379a000000000000000000000000000000000000000000000000000000000815260206004820152602660248201527f4f776e61626c653a206e6577206f776e657220697320746865207a65726f206160448201527f64647265737300000000000000000000000000000000000000000000000000006064820152608401620011d7565b62001b6a81620021b5565b50565b600084815b602081101562001c4857600163ffffffff8616821c8116900362001be45785816020811062001ba55762001ba562003ef5565b60200201358260405160200162001bc6929190918252602082015260400190565b60405160208183030381529060405280519060200120915062001c33565b8186826020811062001bfa5762001bfa62003ef5565b602002013560405160200162001c1a929190918252602082015260400190565b6040516020818303038152906040528051906020012091505b8062001c3f8162003f53565b91505062001b72565b50821490505b949350505050565b60685460ff161562001c94576040517f2f0047fc00000000000000000000000000000000000000000000000000000000815260040160405180910390fd5b606880547fffffffffffffffffffffffffffffffffffffffffffffffffffffffffffffff001660011790556040517f2261efe5aef6fedc1fd1550b25facc9181745623049c7901287030b9ad1a549790600090a1565b60a55473ffffffffffffffffffffffffffffffffffffffff16331462000942576040517f08c379a000000000000000000000000000000000000000000000000000000000815260206004820181905260248201527f4f776e61626c653a2063616c6c6572206973206e6f7420746865206f776e65726044820152606401620011d7565b62001d7e8b63ffffffff1662002b85565b6068546040805160208082018e90528183018d9052825180830384018152606083019384905280519101207f257b363200000000000000000000000000000000000000000000000000000000909252606481019190915260009165010000000000900473ffffffffffffffffffffffffffffffffffffffff169063257b3632906084016020604051808303816000875af115801562001e21573d6000803e3d6000fd5b505050506040513d601f19601f8201168201806040525081019062001e4791906200417b565b90508060000362001e83576040517e2f6fad00000000000000000000000000000000000000000000000000000000815260040160405180910390fd5b60685463ffffffff888116610100909204161462001ecd576040517f0595ea2e00000000000000000000000000000000000000000000000000000000815260040160405180910390fd5b606854600090610100900463ffffffff1662001eeb57508962001eee565b508a5b62001ff462001feb848c8c8c8c8c8c8c60405162001f0e92919062004195565b60405180910390206040517fff0000000000000000000000000000000000000000000000000000000000000060f889901b1660208201527fffffffff0000000000000000000000000000000000000000000000000000000060e088811b821660218401527fffffffffffffffffffffffffffffffffffffffff000000000000000000000000606089811b821660258601529188901b909216603984015285901b16603d8201526051810183905260718101829052600090609101604051602081830303815290604052805190602001209050979650505050505050565b8f8f8462001b6d565b6200202b576040517fe0417cec00000000000000000000000000000000000000000000000000000000815260040160405180910390fd5b5050505050505050505050505050565b60405173ffffffffffffffffffffffffffffffffffffffff8316602482015260448101829052620021119084907fa9059cbb00000000000000000000000000000000000000000000000000000000906064015b604080517fffffffffffffffffffffffffffffffffffffffffffffffffffffffffffffffe08184030181529190526020810180517bffffffffffffffffffffffffffffffffffffffffffffffffffffffff167fffffffff000000000000000000000000000000000000000000000000000000009093169290921790915262002bf1565b505050565b600054610100900460ff16620021af576040517f08c379a000000000000000000000000000000000000000000000000000000000815260206004820152602b60248201527f496e697469616c697a61626c653a20636f6e7472616374206973206e6f74206960448201527f6e697469616c697a696e670000000000000000000000000000000000000000006064820152608401620011d7565b62000942335b60a5805473ffffffffffffffffffffffffffffffffffffffff8381167fffffffffffffffffffffffff0000000000000000000000000000000000000000831681179093556040519116919082907f8be0079c531659141344cd1fd0a4f28419497f9722a3daafe3b4186f6b6457e090600090a35050565b6053546068805463ffffffff909216790100000000000000000000000000000000000000000000000000027fffffff00000000ffffffffffffffffffffffffffffffffffffffffffffffffff909216919091179081905573ffffffffffffffffffffffffffffffffffffffff65010000000000909104166333d6247d620022b262001076565b6040518263ffffffff1660e01b8152600401620022d191815260200190565b600060405180830381600087803b158015620022ec57600080fd5b505af115801562002301573d6000803e3d6000fd5b50505050565b60685460ff161562002345576040517f2f0047fc00000000000000000000000000000000000000000000000000000000815260040160405180910390fd5b6200234f62002d04565b60685463ffffffff888116610100909204161480620023755750600263ffffffff881610155b15620023ad576040517f0595ea2e00000000000000000000000000000000000000000000000000000000815260040160405180910390fd5b60008060608773ffffffffffffffffffffffffffffffffffffffff8816620024225788606e5434620023e09190620041a5565b1462002418576040517fb89240f500000000000000000000000000000000000000000000000000000000815260040160405180910390fd5b600092506200270a565b606e5434146200245e576040517fb89240f500000000000000000000000000000000000000000000000000000000815260040160405180910390fd5b73ffffffffffffffffffffffffffffffffffffffff8089166000908152606b602090815260409182902082518084019093525463ffffffff81168352640100000000900490921691810182905290156200254e576040517f9dc29fac000000000000000000000000000000000000000000000000000000008152336004820152602481018b905273ffffffffffffffffffffffffffffffffffffffff8a1690639dc29fac90604401600060405180830381600087803b1580156200252157600080fd5b505af115801562002536573d6000803e3d6000fd5b50505050806020015194508060000151935062002708565b6040517f70a0823100000000000000000000000000000000000000000000000000000000815230600482015260009073ffffffffffffffffffffffffffffffffffffffff8b16906370a0823190602401602060405180830381865afa158015620025bc573d6000803e3d6000fd5b505050506040513d601f19601f82011682018060405250810190620025e291906200417b565b90506200260873ffffffffffffffffffffffffffffffffffffffff8b1633308e62002d79565b6040517f70a0823100000000000000000000000000000000000000000000000000000000815230600482015260009073ffffffffffffffffffffffffffffffffffffffff8c16906370a0823190602401602060405180830381865afa15801562002676573d6000803e3d6000fd5b505050506040513d601f19601f820116820180604052508101906200269c91906200417b565b9050620026aa8282620041a5565b6068548c9850610100900463ffffffff1696509350620026ca8762002dd9565b620026d58c62002ef1565b620026e08d62002ffe565b604051602001620026f49392919062003e27565b604051602081830303815290604052945050505b505b60705473ffffffffffffffffffffffffffffffffffffffff1615620028ac5773ffffffffffffffffffffffffffffffffffffffff88166200285f576070546071805473ffffffffffffffffffffffffffffffffffffffff909216955090620027729062003d33565b80601f0160208091040260200160405190810160405280929190818152602001828054620027a09062003d33565b8015620027f15780601f10620027c557610100808354040283529160200191620027f1565b820191906000526020600020905b815481529060010190602001808311620027d357829003601f168201915b5050606854939550505050610100900463ffffffff161562002859576072546200281c9082620041bb565b90508060000362002859576040517fc2f5625a00000000000000000000000000000000000000000000000000000000815260040160405180910390fd5b620028ac565b60705473ffffffffffffffffffffffffffffffffffffffff90811690851603620028ac5760685460009450610100900463ffffffff16620028ac57607254620028a99082620041f7565b90505b7f501781209a1f8899323b96b4ef08b168df93e0a90c673d1e4cce39366cb62f9b600084868e8e8688605354604051620028ee98979695949392919062004211565b60405180910390a1620029e8620029e2600085878f8f8789805190602001206040517fff0000000000000000000000000000000000000000000000000000000000000060f889901b1660208201527fffffffff0000000000000000000000000000000000000000000000000000000060e088811b821660218401527fffffffffffffffffffffffffffffffffffffffff000000000000000000000000606089811b821660258601529188901b909216603984015285901b16603d8201526051810183905260718101829052600090609101604051602081830303815290604052805190602001209050979650505050505050565b620030fa565b606f5473ffffffffffffffffffffffffffffffffffffffff161580159062002a1257506000606e54115b1562002ad657606f54606e5460408051600080825260208201928390529373ffffffffffffffffffffffffffffffffffffffff16929162002a54919062003d88565b60006040518083038185875af1925050503d806000811462002a93576040519150601f19603f3d011682016040523d82523d6000602084013e62002a98565b606091505b505090508062002ad4576040517f6747a28800000000000000000000000000000000000000000000000000000000815260040160405180910390fd5b505b861562002ae75762002ae76200222c565b5050505062001a4b60018055565b60685460ff1662002b32576040517f5386698100000000000000000000000000000000000000000000000000000000815260040160405180910390fd5b606880547fffffffffffffffffffffffffffffffffffffffffffffffffffffffffffffff001690556040517f1e5e34eea33501aecf2ebec9fe0e884a40804275ea7fe10b2ba084c8374308b390600090a1565b600881901c60008181526069602052604081208054600160ff861690811b9182189283905592909190818316900362002bea576040517f646cf55800000000000000000000000000000000000000000000000000000000815260040160405180910390fd5b5050505050565b600062002c55826040518060400160405280602081526020017f5361666545524332303a206c6f772d6c6576656c2063616c6c206661696c65648152508573ffffffffffffffffffffffffffffffffffffffff166200320c9092919063ffffffff16565b80519091501562002111578080602001905181019062002c7691906200428a565b62002111576040517f08c379a000000000000000000000000000000000000000000000000000000000815260206004820152602a60248201527f5361666545524332303a204552433230206f7065726174696f6e20646964206e60448201527f6f742073756363656564000000000000000000000000000000000000000000006064820152608401620011d7565b60026001540362002d72576040517f08c379a000000000000000000000000000000000000000000000000000000000815260206004820152601f60248201527f5265656e7472616e637947756172643a207265656e7472616e742063616c6c006044820152606401620011d7565b6002600155565b60405173ffffffffffffffffffffffffffffffffffffffff80851660248301528316604482015260648101829052620023019085907f23b872dd00000000000000000000000000000000000000000000000000000000906084016200208e565b60408051600481526024810182526020810180517bffffffffffffffffffffffffffffffffffffffffffffffffffffffff167f06fdde03000000000000000000000000000000000000000000000000000000001790529051606091600091829173ffffffffffffffffffffffffffffffffffffffff86169162002e5d919062003d88565b600060405180830381855afa9150503d806000811462002e9a576040519150601f19603f3d011682016040523d82523d6000602084013e62002e9f565b606091505b50915091508162002ee6576040518060400160405280600781526020017f4e4f5f4e414d450000000000000000000000000000000000000000000000000081525062001c4e565b62001c4e816200321d565b60408051600481526024810182526020810180517bffffffffffffffffffffffffffffffffffffffffffffffffffffffff167f95d89b41000000000000000000000000000000000000000000000000000000001790529051606091600091829173ffffffffffffffffffffffffffffffffffffffff86169162002f75919062003d88565b600060405180830381855afa9150503d806000811462002fb2576040519150601f19603f3d011682016040523d82523d6000602084013e62002fb7565b606091505b50915091508162002ee6576040518060400160405280600981526020017f4e4f5f53594d424f4c000000000000000000000000000000000000000000000081525062001c4e565b60408051600481526024810182526020810180517bffffffffffffffffffffffffffffffffffffffffffffffffffffffff167f313ce5670000000000000000000000000000000000000000000000000000000017905290516000918291829173ffffffffffffffffffffffffffffffffffffffff86169162003081919062003d88565b600060405180830381855afa9150503d8060008114620030be576040519150601f19603f3d011682016040523d82523d6000602084013e620030c3565b606091505b5091509150818015620030d7575080516020145b620030e457601262001c4e565b8080602001905181019062001c4e9190620042aa565b8060016200310b6020600262004403565b620031179190620041a5565b6053541062003152576040517fef5ccf6600000000000000000000000000000000000000000000000000000000815260040160405180910390fd5b6000605360008154620031659062003f53565b9182905550905060005b602081101562003201578082901c600116600103620031a75782603382602081106200319f576200319f62003ef5565b015550505050565b60338160208110620031bd57620031bd62003ef5565b015460408051602081019290925281018490526060016040516020818303038152906040528051906020012092508080620031f89062003f53565b9150506200316f565b506200211162004411565b606062001c4e84846000856200340d565b606060408251106200323f5781806020019051810190620009e1919062004440565b8151602003620033cf5760005b6020811080156200329757508281815181106200326d576200326d62003ef5565b01602001517fff000000000000000000000000000000000000000000000000000000000000001615155b15620032b25780620032a98162003f53565b9150506200324c565b80600003620032f657505060408051808201909152601281527f4e4f545f56414c49445f454e434f44494e4700000000000000000000000000006020820152919050565b60008167ffffffffffffffff8111156200331457620033146200395d565b6040519080825280601f01601f1916602001820160405280156200333f576020820181803683370190505b50905060005b82811015620033c75784818151811062003363576200336362003ef5565b602001015160f81c60f81b82828151811062003383576200338362003ef5565b60200101907effffffffffffffffffffffffffffffffffffffffffffffffffffffffffffff1916908160001a90535080620033be8162003f53565b91505062003345565b509392505050565b505060408051808201909152601281527f4e4f545f56414c49445f454e434f44494e470000000000000000000000000000602082015290565b919050565b606082471015620034a1576040517f08c379a000000000000000000000000000000000000000000000000000000000815260206004820152602660248201527f416464726573733a20696e73756666696369656e742062616c616e636520666f60448201527f722063616c6c00000000000000000000000000000000000000000000000000006064820152608401620011d7565b6000808673ffffffffffffffffffffffffffffffffffffffff168587604051620034cc919062003d88565b60006040518083038185875af1925050503d80600081146200350b576040519150601f19603f3d011682016040523d82523d6000602084013e62003510565b606091505b509150915062003523878383876200352e565b979650505050505050565b60608315620035c9578251600003620035c15773ffffffffffffffffffffffffffffffffffffffff85163b620035c1576040517f08c379a000000000000000000000000000000000000000000000000000000000815260206004820152601d60248201527f416464726573733a2063616c6c20746f206e6f6e2d636f6e74726163740000006044820152606401620011d7565b508162001c4e565b62001c4e8383815115620035e05781518083602001fd5b806040517f08c379a0000000000000000000000000000000000000000000000000000000008152600401620011d791906200370a565b611b6680620044c183390190565b803563ffffffff811681146200340857600080fd5b73ffffffffffffffffffffffffffffffffffffffff8116811462001b6a57600080fd5b600080604083850312156200367057600080fd5b6200367b8362003624565b915060208301356200368d8162003639565b809150509250929050565b60005b83811015620036b55781810151838201526020016200369b565b50506000910152565b60008151808452620036d881602086016020860162003698565b601f017fffffffffffffffffffffffffffffffffffffffffffffffffffffffffffffffe0169290920160200192915050565b6020815260006200371f6020830184620036be565b9392505050565b6000602082840312156200373957600080fd5b5035919050565b6000602082840312156200375357600080fd5b6200371f8262003624565b806104008101831015620009e157600080fd5b60008083601f8401126200378457600080fd5b50813567ffffffffffffffff8111156200379d57600080fd5b602083019150836020828501011115620037b657600080fd5b9250929050565b60008060008060008060008060008060006105208c8e031215620037e057600080fd5b620037ec8d8d6200375e565b9a50620037fd6104008d0162003624565b99506104208c013598506104408c013597506200381e6104608d0162003624565b96506104808c0135620038318162003639565b9550620038426104a08d0162003624565b94506104c08c0135620038558162003639565b93506104e08c013592506105008c013567ffffffffffffffff8111156200387b57600080fd5b620038898e828f0162003771565b915080935050809150509295989b509295989b9093969950565b600060208284031215620038b657600080fd5b81356200371f8162003639565b60ff8116811462001b6a57600080fd5b600080600080600080600060e0888a031215620038ef57600080fd5b8735620038fc81620038c3565b96506200390c6020890162003624565b955060408801356200391e8162003639565b94506200392e6060890162003624565b93506080880135620039408162003639565b9699959850939692959460a0840135945060c09093013592915050565b7f4e487b7100000000000000000000000000000000000000000000000000000000600052604160045260246000fd5b604051601f82017fffffffffffffffffffffffffffffffffffffffffffffffffffffffffffffffe016810167ffffffffffffffff81118282101715620039d657620039d66200395d565b604052919050565b600067ffffffffffffffff821115620039fb57620039fb6200395d565b50601f017fffffffffffffffffffffffffffffffffffffffffffffffffffffffffffffffe01660200190565b600082601f83011262003a3957600080fd5b813562003a5062003a4a82620039de565b6200398c565b81815284602083860101111562003a6657600080fd5b816020850160208301376000918101602001919091529392505050565b60008060008060008060008060006101208a8c03121562003aa357600080fd5b62003aae8a62003624565b985060208a013562003ac08162003639565b975060408a013562003ad28162003639565b965060608a013562003ae48162003639565b955060808a0135945060a08a013562003afd8162003639565b935060c08a013562003b0f8162003639565b925060e08a013567ffffffffffffffff81111562003b2c57600080fd5b62003b3a8c828d0162003a27565b9250506101008a013590509295985092959850929598565b6000806040838503121562003b6657600080fd5b823562003b738162003639565b946020939093013593505050565b600080600080600080600060a0888a03121562003b9d57600080fd5b62003ba88862003624565b9650602088013562003bba8162003639565b9550604088013567ffffffffffffffff8082111562003bd857600080fd5b62003be68b838c0162003771565b909750955060608a013591508082111562003c0057600080fd5b5062003c0f8a828b0162003771565b909450925050608088013562003c2581620038c3565b8091505092959891949750929550565b801515811462001b6a57600080fd5b600080600080600080600060c0888a03121562003c6057600080fd5b62003c6b8862003624565b9650602088013562003c7d8162003639565b955060408801359450606088013562003c968162003639565b9350608088013562003ca88162003c35565b925060a088013567ffffffffffffffff81111562003cc557600080fd5b62003cd38a828b0162003771565b989b979a50959850939692959293505050565b600080600080610460858703121562003cfe57600080fd5b8435935062003d1186602087016200375e565b925062003d22610420860162003624565b939692955092936104400135925050565b600181811c9082168062003d4857607f821691505b60208210810362003d82577f4e487b7100000000000000000000000000000000000000000000000000000000600052602260045260246000fd5b50919050565b6000825162003d9c81846020870162003698565b9190910192915050565b60008060006060848603121562003dbc57600080fd5b833567ffffffffffffffff8082111562003dd557600080fd5b62003de38783880162003a27565b9450602086013591508082111562003dfa57600080fd5b5062003e098682870162003a27565b925050604084013562003e1c81620038c3565b809150509250925092565b60608152600062003e3c6060830186620036be565b828103602084015262003e508186620036be565b91505060ff83166040830152949350505050565b8183528181602085013750600060208284010152600060207fffffffffffffffffffffffffffffffffffffffffffffffffffffffffffffffe0601f840116840101905092915050565b63ffffffff86168152600073ffffffffffffffffffffffffffffffffffffffff8087166020840152808616604084015250608060608301526200352360808301848662003e64565b7f4e487b7100000000000000000000000000000000000000000000000000000000600052603260045260246000fd5b7f4e487b7100000000000000000000000000000000000000000000000000000000600052601160045260246000fd5b60007fffffffffffffffffffffffffffffffffffffffffffffffffffffffffffffffff820362003f875762003f8762003f24565b5060010190565b601f8211156200211157600081815260208120601f850160051c8101602086101562003fb75750805b601f850160051c820191505b8181101562003fd85782815560010162003fc3565b505050505050565b815167ffffffffffffffff81111562003ffd5762003ffd6200395d565b62004015816200400e845462003d33565b8462003f8e565b602080601f8311600181146200406b5760008415620040345750858301515b7fffffffffffffffffffffffffffffffffffffffffffffffffffffffffffffffff600386901b1c1916600185901b17855562003fd8565b6000858152602081207fffffffffffffffffffffffffffffffffffffffffffffffffffffffffffffffe08616915b82811015620040ba5788860151825594840194600190910190840162004099565b5085821015620040f757878501517fffffffffffffffffffffffffffffffffffffffffffffffffffffffffffffffff600388901b60f8161c191681555b5050505050600190811b01905550565b6060815260006200411d60608301878962003e64565b82810360208401526200413281868862003e64565b91505060ff831660408301529695505050505050565b600083516200415c81846020880162003698565b8351908301906200417281836020880162003698565b01949350505050565b6000602082840312156200418e57600080fd5b5051919050565b8183823760009101908152919050565b81810381811115620009e157620009e162003f24565b600082620041f2577f4e487b7100000000000000000000000000000000000000000000000000000000600052601260045260246000fd5b500490565b8082028115828204841417620009e157620009e162003f24565b600061010060ff8b16835263ffffffff808b16602085015273ffffffffffffffffffffffffffffffffffffffff808b166040860152818a1660608601528089166080860152508660a08501528160c08501526200427182850187620036be565b925080851660e085015250509998505050505050505050565b6000602082840312156200429d57600080fd5b81516200371f8162003c35565b600060208284031215620042bd57600080fd5b81516200371f81620038c3565b600181815b808511156200432957817fffffffffffffffffffffffffffffffffffffffffffffffffffffffffffffffff048211156200430d576200430d62003f24565b808516156200431b57918102915b93841c9390800290620042cf565b509250929050565b6000826200434257506001620009e1565b816200435157506000620009e1565b81600181146200436a5760028114620043755762004395565b6001915050620009e1565b60ff84111562004389576200438962003f24565b50506001821b620009e1565b5060208310610133831016604e8410600b8410161715620043ba575081810a620009e1565b620043c68383620042ca565b807fffffffffffffffffffffffffffffffffffffffffffffffffffffffffffffffff04821115620043fb57620043fb62003f24565b029392505050565b60006200371f838362004331565b7f4e487b7100000000000000000000000000000000000000000000000000000000600052600160045260246000fd5b6000602082840312156200445357600080fd5b815167ffffffffffffffff8111156200446b57600080fd5b8201601f810184136200447d57600080fd5b80516200448e62003a4a82620039de565b818152856020838501011115620044a457600080fd5b620044b782602083016020860162003698565b9594505050505056fe6101006040523480156200001257600080fd5b5060405162001b6638038062001b6683398101604081905262000035916200028d565b82826003620000458382620003a1565b506004620000548282620003a1565b50503360c0525060ff811660e052466080819052620000739062000080565b60a052506200046d915050565b60007f8b73c3c69bb8fe3d512ecc4cf759cc79239f7b179b0ffacaa9a75d522b39400f620000ad6200012e565b805160209182012060408051808201825260018152603160f81b90840152805192830193909352918101919091527fc89efdaa54c0f20c7adf612882df0950f5a951637e0307cdcb4c672f298b8bc66060820152608081018390523060a082015260c001604051602081830303815290604052805190602001209050919050565b6060600380546200013f9062000312565b80601f01602080910402602001604051908101604052809291908181526020018280546200016d9062000312565b8015620001be5780601f106200019257610100808354040283529160200191620001be565b820191906000526020600020905b815481529060010190602001808311620001a057829003601f168201915b5050505050905090565b634e487b7160e01b600052604160045260246000fd5b600082601f830112620001f057600080fd5b81516001600160401b03808211156200020d576200020d620001c8565b604051601f8301601f19908116603f01168101908282118183101715620002385762000238620001c8565b816040528381526020925086838588010111156200025557600080fd5b600091505b838210156200027957858201830151818301840152908201906200025a565b600093810190920192909252949350505050565b600080600060608486031215620002a357600080fd5b83516001600160401b0380821115620002bb57600080fd5b620002c987838801620001de565b94506020860151915080821115620002e057600080fd5b50620002ef86828701620001de565b925050604084015160ff811681146200030757600080fd5b809150509250925092565b600181811c908216806200032757607f821691505b6020821081036200034857634e487b7160e01b600052602260045260246000fd5b50919050565b601f8211156200039c57600081815260208120601f850160051c81016020861015620003775750805b601f850160051c820191505b81811015620003985782815560010162000383565b5050505b505050565b81516001600160401b03811115620003bd57620003bd620001c8565b620003d581620003ce845462000312565b846200034e565b602080601f8311600181146200040d5760008415620003f45750858301515b600019600386901b1c1916600185901b17855562000398565b600085815260208120601f198616915b828110156200043e578886015182559484019460019091019084016200041d565b50858210156200045d5787850151600019600388901b60f8161c191681555b5050505050600190811b01905550565b60805160a05160c05160e0516116aa620004bc6000396000610237015260008181610307015281816105c001526106a70152600061053a015260008181610379015261050401526116aa6000f3fe608060405234801561001057600080fd5b50600436106101775760003560e01c806370a08231116100d8578063a457c2d71161008c578063d505accf11610066578063d505accf1461039b578063dd62ed3e146103ae578063ffa1ad74146103f457600080fd5b8063a457c2d71461034e578063a9059cbb14610361578063cd0d00961461037457600080fd5b806395d89b41116100bd57806395d89b41146102e75780639dc29fac146102ef578063a3c573eb1461030257600080fd5b806370a08231146102915780637ecebe00146102c757600080fd5b806330adf81f1161012f5780633644e515116101145780633644e51514610261578063395093511461026957806340c10f191461027c57600080fd5b806330adf81f14610209578063313ce5671461023057600080fd5b806318160ddd1161016057806318160ddd146101bd57806320606b70146101cf57806323b872dd146101f657600080fd5b806306fdde031461017c578063095ea7b31461019a575b600080fd5b610184610430565b60405161019191906113e4565b60405180910390f35b6101ad6101a8366004611479565b6104c2565b6040519015158152602001610191565b6002545b604051908152602001610191565b6101c17f8b73c3c69bb8fe3d512ecc4cf759cc79239f7b179b0ffacaa9a75d522b39400f81565b6101ad6102043660046114a3565b6104dc565b6101c17f6e71edae12b1b97f4d1f60370fef10105fa2faae0126114a169c64845d6126c981565b60405160ff7f0000000000000000000000000000000000000000000000000000000000000000168152602001610191565b6101c1610500565b6101ad610277366004611479565b61055c565b61028f61028a366004611479565b6105a8565b005b6101c161029f3660046114df565b73ffffffffffffffffffffffffffffffffffffffff1660009081526020819052604090205490565b6101c16102d53660046114df565b60056020526000908152604090205481565b610184610680565b61028f6102fd366004611479565b61068f565b6103297f000000000000000000000000000000000000000000000000000000000000000081565b60405173ffffffffffffffffffffffffffffffffffffffff9091168152602001610191565b6101ad61035c366004611479565b61075e565b6101ad61036f366004611479565b61082f565b6101c17f000000000000000000000000000000000000000000000000000000000000000081565b61028f6103a9366004611501565b61083d565b6101c16103bc366004611574565b73ffffffffffffffffffffffffffffffffffffffff918216600090815260016020908152604080832093909416825291909152205490565b6101846040518060400160405280600181526020017f310000000000000000000000000000000000000000000000000000000000000081525081565b60606003805461043f906115a7565b80601f016020809104026020016040519081016040528092919081815260200182805461046b906115a7565b80156104b85780601f1061048d576101008083540402835291602001916104b8565b820191906000526020600020905b81548152906001019060200180831161049b57829003601f168201915b5050505050905090565b6000336104d0818585610b73565b60019150505b92915050565b6000336104ea858285610d27565b6104f5858585610dfe565b506001949350505050565b60007f00000000000000000000000000000000000000000000000000000000000000004614610537576105324661106d565b905090565b507f000000000000000000000000000000000000000000000000000000000000000090565b33600081815260016020908152604080832073ffffffffffffffffffffffffffffffffffffffff871684529091528120549091906104d090829086906105a3908790611629565b610b73565b3373ffffffffffffffffffffffffffffffffffffffff7f00000000000000000000000000000000000000000000000000000000000000001614610672576040517f08c379a000000000000000000000000000000000000000000000000000000000815260206004820152603060248201527f546f6b656e577261707065643a3a6f6e6c794272696467653a204e6f7420506f60448201527f6c79676f6e5a6b45564d4272696467650000000000000000000000000000000060648201526084015b60405180910390fd5b61067c8282611135565b5050565b60606004805461043f906115a7565b3373ffffffffffffffffffffffffffffffffffffffff7f00000000000000000000000000000000000000000000000000000000000000001614610754576040517f08c379a000000000000000000000000000000000000000000000000000000000815260206004820152603060248201527f546f6b656e577261707065643a3a6f6e6c794272696467653a204e6f7420506f60448201527f6c79676f6e5a6b45564d427269646765000000000000000000000000000000006064820152608401610669565b61067c8282611228565b33600081815260016020908152604080832073ffffffffffffffffffffffffffffffffffffffff8716845290915281205490919083811015610822576040517f08c379a000000000000000000000000000000000000000000000000000000000815260206004820152602560248201527f45524332303a2064656372656173656420616c6c6f77616e63652062656c6f7760448201527f207a65726f0000000000000000000000000000000000000000000000000000006064820152608401610669565b6104f58286868403610b73565b6000336104d0818585610dfe565b834211156108cc576040517f08c379a0000000000000000000000000000000000000000000000000000000008152602060048201526024808201527f546f6b656e577261707065643a3a7065726d69743a204578706972656420706560448201527f726d6974000000000000000000000000000000000000000000000000000000006064820152608401610669565b73ffffffffffffffffffffffffffffffffffffffff8716600090815260056020526040812080547f6e71edae12b1b97f4d1f60370fef10105fa2faae0126114a169c64845d6126c9918a918a918a9190866109268361163c565b9091555060408051602081019690965273ffffffffffffffffffffffffffffffffffffffff94851690860152929091166060840152608083015260a082015260c0810186905260e0016040516020818303038152906040528051906020012090506000610991610500565b6040517f19010000000000000000000000000000000000000000000000000000000000006020820152602281019190915260428101839052606201604080517fffffffffffffffffffffffffffffffffffffffffffffffffffffffffffffffe08184030181528282528051602091820120600080855291840180845281905260ff89169284019290925260608301879052608083018690529092509060019060a0016020604051602081039080840390855afa158015610a55573d6000803e3d6000fd5b50506040517fffffffffffffffffffffffffffffffffffffffffffffffffffffffffffffffe0015191505073ffffffffffffffffffffffffffffffffffffffff811615801590610ad057508973ffffffffffffffffffffffffffffffffffffffff168173ffffffffffffffffffffffffffffffffffffffff16145b610b5c576040517f08c379a000000000000000000000000000000000000000000000000000000000815260206004820152602760248201527f546f6b656e577261707065643a3a7065726d69743a20496e76616c696420736960448201527f676e6174757265000000000000000000000000000000000000000000000000006064820152608401610669565b610b678a8a8a610b73565b50505050505050505050565b73ffffffffffffffffffffffffffffffffffffffff8316610c15576040517f08c379a0000000000000000000000000000000000000000000000000000000008152602060048201526024808201527f45524332303a20617070726f76652066726f6d20746865207a65726f2061646460448201527f72657373000000000000000000000000000000000000000000000000000000006064820152608401610669565b73ffffffffffffffffffffffffffffffffffffffff8216610cb8576040517f08c379a000000000000000000000000000000000000000000000000000000000815260206004820152602260248201527f45524332303a20617070726f766520746f20746865207a65726f20616464726560448201527f73730000000000000000000000000000000000000000000000000000000000006064820152608401610669565b73ffffffffffffffffffffffffffffffffffffffff83811660008181526001602090815260408083209487168084529482529182902085905590518481527f8c5be1e5ebec7d5bd14f71427d1e84f3dd0314c0f7b2291e5b200ac8c7c3b92591015b60405180910390a3505050565b73ffffffffffffffffffffffffffffffffffffffff8381166000908152600160209081526040808320938616835292905220547fffffffffffffffffffffffffffffffffffffffffffffffffffffffffffffffff8114610df85781811015610deb576040517f08c379a000000000000000000000000000000000000000000000000000000000815260206004820152601d60248201527f45524332303a20696e73756666696369656e7420616c6c6f77616e63650000006044820152606401610669565b610df88484848403610b73565b50505050565b73ffffffffffffffffffffffffffffffffffffffff8316610ea1576040517f08c379a000000000000000000000000000000000000000000000000000000000815260206004820152602560248201527f45524332303a207472616e736665722066726f6d20746865207a65726f20616460448201527f64726573730000000000000000000000000000000000000000000000000000006064820152608401610669565b73ffffffffffffffffffffffffffffffffffffffff8216610f44576040517f08c379a000000000000000000000000000000000000000000000000000000000815260206004820152602360248201527f45524332303a207472616e7366657220746f20746865207a65726f206164647260448201527f65737300000000000000000000000000000000000000000000000000000000006064820152608401610669565b73ffffffffffffffffffffffffffffffffffffffff831660009081526020819052604090205481811015610ffa576040517f08c379a000000000000000000000000000000000000000000000000000000000815260206004820152602660248201527f45524332303a207472616e7366657220616d6f756e742065786365656473206260448201527f616c616e636500000000000000000000000000000000000000000000000000006064820152608401610669565b73ffffffffffffffffffffffffffffffffffffffff848116600081815260208181526040808320878703905593871680835291849020805487019055925185815290927fddf252ad1be2c89b69c2b068fc378daa952ba7f163c4a11628f55a4df523b3ef910160405180910390a3610df8565b60007f8b73c3c69bb8fe3d512ecc4cf759cc79239f7b179b0ffacaa9a75d522b39400f611098610430565b8051602091820120604080518082018252600181527f310000000000000000000000000000000000000000000000000000000000000090840152805192830193909352918101919091527fc89efdaa54c0f20c7adf612882df0950f5a951637e0307cdcb4c672f298b8bc66060820152608081018390523060a082015260c001604051602081830303815290604052805190602001209050919050565b73ffffffffffffffffffffffffffffffffffffffff82166111b2576040517f08c379a000000000000000000000000000000000000000000000000000000000815260206004820152601f60248201527f45524332303a206d696e7420746f20746865207a65726f2061646472657373006044820152606401610669565b80600260008282546111c49190611629565b909155505073ffffffffffffffffffffffffffffffffffffffff8216600081815260208181526040808320805486019055518481527fddf252ad1be2c89b69c2b068fc378daa952ba7f163c4a11628f55a4df523b3ef910160405180910390a35050565b73ffffffffffffffffffffffffffffffffffffffff82166112cb576040517f08c379a000000000000000000000000000000000000000000000000000000000815260206004820152602160248201527f45524332303a206275726e2066726f6d20746865207a65726f2061646472657360448201527f73000000000000000000000000000000000000000000000000000000000000006064820152608401610669565b73ffffffffffffffffffffffffffffffffffffffff821660009081526020819052604090205481811015611381576040517f08c379a000000000000000000000000000000000000000000000000000000000815260206004820152602260248201527f45524332303a206275726e20616d6f756e7420657863656564732062616c616e60448201527f63650000000000000000000000000000000000000000000000000000000000006064820152608401610669565b73ffffffffffffffffffffffffffffffffffffffff83166000818152602081815260408083208686039055600280548790039055518581529192917fddf252ad1be2c89b69c2b068fc378daa952ba7f163c4a11628f55a4df523b3ef9101610d1a565b600060208083528351808285015260005b81811015611411578581018301518582016040015282016113f5565b5060006040828601015260407fffffffffffffffffffffffffffffffffffffffffffffffffffffffffffffffe0601f8301168501019250505092915050565b803573ffffffffffffffffffffffffffffffffffffffff8116811461147457600080fd5b919050565b6000806040838503121561148c57600080fd5b61149583611450565b946020939093013593505050565b6000806000606084860312156114b857600080fd5b6114c184611450565b92506114cf60208501611450565b9150604084013590509250925092565b6000602082840312156114f157600080fd5b6114fa82611450565b9392505050565b600080600080600080600060e0888a03121561151c57600080fd5b61152588611450565b965061153360208901611450565b95506040880135945060608801359350608088013560ff8116811461155757600080fd5b9699959850939692959460a0840135945060c09093013592915050565b6000806040838503121561158757600080fd5b61159083611450565b915061159e60208401611450565b90509250929050565b600181811c908216806115bb57607f821691505b6020821081036115f4577f4e487b7100000000000000000000000000000000000000000000000000000000600052602260045260246000fd5b50919050565b7f4e487b7100000000000000000000000000000000000000000000000000000000600052601160045260246000fd5b808201808211156104d6576104d66115fa565b60007fffffffffffffffffffffffffffffffffffffffffffffffffffffffffffffffff820361166d5761166d6115fa565b506001019056fea26469706673582212206fe049be388a1d04319b9913fe6d100c4c8e272fe0f5748eb056bd0622beabcc64736f6c63430008140033a264697066735822122094a7a30b91bd356ec5170d2124e2ae6eff9dcd9cb4a39fc47b5c5429fbe4025a64736f6c63430008140033",
  "linkReferences": {},
  "deployedLinkReferences": {}
}