{
  "_format": "hh-sol-artifact-1",
  "contractName": "PolygonRollupManager",
  "sourceName": "contracts/v2/PolygonRollupManager.sol",
  "abi": [
    {
      "inputs": [
        {
          "internalType": "contract IPolygonZkEVMGlobalExitRootV2",
          "name": "_globalExitRootManager",
          "type": "address"
        },
        {
          "internalType": "contract IERC20Upgradeable",
          "name": "_pol",
          "type": "address"
        },
        {
          "internalType": "contract IPolygonZkEVMBridge",
          "name": "_bridgeAddress",
          "type": "address"
        }
      ],
      "stateMutability": "nonpayable",
      "type": "constructor"
    },
    {
      "inputs": [],
      "name": "AccessControlOnlyCanRenounceRolesForSelf",
      "type": "error"
    },
    {
      "inputs": [],
      "name": "AddressDoNotHaveRequiredRole",
      "type": "error"
    },
    {
      "inputs": [],
      "name": "AllzkEVMSequencedBatchesMustBeVerified",
      "type": "error"
    },
    {
      "inputs": [],
      "name": "BatchFeeOutOfRange",
      "type": "error"
    },
    {
      "inputs": [],
      "name": "ChainIDAlreadyExist",
      "type": "error"
    },
    {
      "inputs": [],
      "name": "ExceedMaxVerifyBatches",
      "type": "error"
    },
    {
      "inputs": [],
      "name": "FinalNumBatchBelowLastVerifiedBatch",
      "type": "error"
    },
    {
      "inputs": [],
      "name": "FinalNumBatchDoesNotMatchPendingState",
      "type": "error"
    },
    {
      "inputs": [],
      "name": "FinalPendingStateNumInvalid",
      "type": "error"
    },
    {
      "inputs": [],
      "name": "HaltTimeoutNotExpired",
      "type": "error"
    },
    {
      "inputs": [],
      "name": "InitBatchMustMatchCurrentForkID",
      "type": "error"
    },
    {
      "inputs": [],
      "name": "InitNumBatchAboveLastVerifiedBatch",
      "type": "error"
    },
    {
      "inputs": [],
      "name": "InitNumBatchDoesNotMatchPendingState",
      "type": "error"
    },
    {
      "inputs": [],
      "name": "InvalidProof",
      "type": "error"
    },
    {
      "inputs": [],
      "name": "InvalidRangeBatchTimeTarget",
      "type": "error"
    },
    {
      "inputs": [],
      "name": "InvalidRangeMultiplierBatchFee",
      "type": "error"
    },
    {
      "inputs": [],
      "name": "MustSequenceSomeBatch",
      "type": "error"
    },
    {
      "inputs": [],
      "name": "NewAccInputHashDoesNotExist",
      "type": "error"
    },
    {
      "inputs": [],
      "name": "NewPendingStateTimeoutMustBeLower",
      "type": "error"
    },
    {
      "inputs": [],
      "name": "NewStateRootNotInsidePrime",
      "type": "error"
    },
    {
      "inputs": [],
      "name": "NewTrustedAggregatorTimeoutMustBeLower",
      "type": "error"
    },
    {
      "inputs": [],
      "name": "OldAccInputHashDoesNotExist",
      "type": "error"
    },
    {
      "inputs": [],
      "name": "OldStateRootDoesNotExist",
      "type": "error"
    },
    {
      "inputs": [],
      "name": "OnlyEmergencyState",
      "type": "error"
    },
    {
      "inputs": [],
      "name": "OnlyNotEmergencyState",
      "type": "error"
    },
    {
      "inputs": [],
      "name": "PendingStateDoesNotExist",
      "type": "error"
    },
    {
      "inputs": [],
      "name": "PendingStateInvalid",
      "type": "error"
    },
    {
      "inputs": [],
      "name": "PendingStateNotConsolidable",
      "type": "error"
    },
    {
      "inputs": [],
      "name": "RollupAddressAlreadyExist",
      "type": "error"
    },
    {
      "inputs": [],
      "name": "RollupMustExist",
      "type": "error"
    },
    {
      "inputs": [],
      "name": "RollupTypeDoesNotExist",
      "type": "error"
    },
    {
      "inputs": [],
      "name": "RollupTypeObsolete",
      "type": "error"
    },
    {
      "inputs": [],
      "name": "SenderMustBeRollup",
      "type": "error"
    },
    {
      "inputs": [],
      "name": "StoredRootMustBeDifferentThanNewRoot",
      "type": "error"
    },
    {
      "inputs": [],
      "name": "TrustedAggregatorTimeoutNotExpired",
      "type": "error"
    },
    {
      "inputs": [],
      "name": "UpdateNotCompatible",
      "type": "error"
    },
    {
      "inputs": [],
      "name": "UpdateToSameRollupTypeID",
      "type": "error"
    },
    {
      "anonymous": false,
      "inputs": [
        {
          "indexed": true,
          "internalType": "uint32",
          "name": "rollupID",
          "type": "uint32"
        },
        {
          "indexed": false,
          "internalType": "uint64",
          "name": "forkID",
          "type": "uint64"
        },
        {
          "indexed": false,
          "internalType": "address",
          "name": "rollupAddress",
          "type": "address"
        },
        {
          "indexed": false,
          "internalType": "uint64",
          "name": "chainID",
          "type": "uint64"
        },
        {
          "indexed": false,
          "internalType": "uint8",
          "name": "rollupCompatibilityID",
          "type": "uint8"
        },
        {
          "indexed": false,
          "internalType": "uint64",
          "name": "lastVerifiedBatchBeforeUpgrade",
          "type": "uint64"
        }
      ],
      "name": "AddExistingRollup",
      "type": "event"
    },
    {
      "anonymous": false,
      "inputs": [
        {
          "indexed": true,
          "internalType": "uint32",
          "name": "rollupTypeID",
          "type": "uint32"
        },
        {
          "indexed": false,
          "internalType": "address",
          "name": "consensusImplementation",
          "type": "address"
        },
        {
          "indexed": false,
          "internalType": "address",
          "name": "verifier",
          "type": "address"
        },
        {
          "indexed": false,
          "internalType": "uint64",
          "name": "forkID",
          "type": "uint64"
        },
        {
          "indexed": false,
          "internalType": "uint8",
          "name": "rollupCompatibilityID",
          "type": "uint8"
        },
        {
          "indexed": false,
          "internalType": "bytes32",
          "name": "genesis",
          "type": "bytes32"
        },
        {
          "indexed": false,
          "internalType": "string",
          "name": "description",
          "type": "string"
        }
      ],
      "name": "AddNewRollupType",
      "type": "event"
    },
    {
      "anonymous": false,
      "inputs": [
        {
          "indexed": true,
          "internalType": "uint32",
          "name": "rollupID",
          "type": "uint32"
        },
        {
          "indexed": false,
          "internalType": "uint64",
          "name": "numBatch",
          "type": "uint64"
        },
        {
          "indexed": false,
          "internalType": "bytes32",
          "name": "stateRoot",
          "type": "bytes32"
        },
        {
          "indexed": false,
          "internalType": "bytes32",
          "name": "exitRoot",
          "type": "bytes32"
        },
        {
          "indexed": false,
          "internalType": "uint64",
          "name": "pendingStateNum",
          "type": "uint64"
        }
      ],
      "name": "ConsolidatePendingState",
      "type": "event"
    },
    {
      "anonymous": false,
      "inputs": [
        {
          "indexed": true,
          "internalType": "uint32",
          "name": "rollupID",
          "type": "uint32"
        },
        {
          "indexed": false,
          "internalType": "uint32",
          "name": "rollupTypeID",
          "type": "uint32"
        },
        {
          "indexed": false,
          "internalType": "address",
          "name": "rollupAddress",
          "type": "address"
        },
        {
          "indexed": false,
          "internalType": "uint64",
          "name": "chainID",
          "type": "uint64"
        },
        {
          "indexed": false,
          "internalType": "address",
          "name": "gasTokenAddress",
          "type": "address"
        }
      ],
      "name": "CreateNewRollup",
      "type": "event"
    },
    {
      "anonymous": false,
      "inputs": [],
      "name": "EmergencyStateActivated",
      "type": "event"
    },
    {
      "anonymous": false,
      "inputs": [],
      "name": "EmergencyStateDeactivated",
      "type": "event"
    },
    {
      "anonymous": false,
      "inputs": [
        {
          "indexed": false,
          "internalType": "uint8",
          "name": "version",
          "type": "uint8"
        }
      ],
      "name": "Initialized",
      "type": "event"
    },
    {
      "anonymous": false,
      "inputs": [
        {
          "indexed": true,
          "internalType": "uint32",
          "name": "rollupTypeID",
          "type": "uint32"
        }
      ],
      "name": "ObsoleteRollupType",
      "type": "event"
    },
    {
      "anonymous": false,
      "inputs": [
        {
          "indexed": true,
          "internalType": "uint32",
          "name": "rollupID",
          "type": "uint32"
        },
        {
          "indexed": false,
          "internalType": "uint64",
          "name": "lastBatchSequenced",
          "type": "uint64"
        }
      ],
      "name": "OnSequenceBatches",
      "type": "event"
    },
    {
      "anonymous": false,
      "inputs": [
        {
          "indexed": true,
          "internalType": "uint32",
          "name": "rollupID",
          "type": "uint32"
        },
        {
          "indexed": false,
          "internalType": "uint64",
          "name": "numBatch",
          "type": "uint64"
        },
        {
          "indexed": false,
          "internalType": "bytes32",
          "name": "stateRoot",
          "type": "bytes32"
        },
        {
          "indexed": false,
          "internalType": "bytes32",
          "name": "exitRoot",
          "type": "bytes32"
        },
        {
          "indexed": false,
          "internalType": "address",
          "name": "aggregator",
          "type": "address"
        }
      ],
      "name": "OverridePendingState",
      "type": "event"
    },
    {
      "anonymous": false,
      "inputs": [
        {
          "indexed": false,
          "internalType": "bytes32",
          "name": "storedStateRoot",
          "type": "bytes32"
        },
        {
          "indexed": false,
          "internalType": "bytes32",
          "name": "provedStateRoot",
          "type": "bytes32"
        }
      ],
      "name": "ProveNonDeterministicPendingState",
      "type": "event"
    },
    {
      "anonymous": false,
      "inputs": [
        {
          "indexed": true,
          "internalType": "bytes32",
          "name": "role",
          "type": "bytes32"
        },
        {
          "indexed": true,
          "internalType": "bytes32",
          "name": "previousAdminRole",
          "type": "bytes32"
        },
        {
          "indexed": true,
          "internalType": "bytes32",
          "name": "newAdminRole",
          "type": "bytes32"
        }
      ],
      "name": "RoleAdminChanged",
      "type": "event"
    },
    {
      "anonymous": false,
      "inputs": [
        {
          "indexed": true,
          "internalType": "bytes32",
          "name": "role",
          "type": "bytes32"
        },
        {
          "indexed": true,
          "internalType": "address",
          "name": "account",
          "type": "address"
        },
        {
          "indexed": true,
          "internalType": "address",
          "name": "sender",
          "type": "address"
        }
      ],
      "name": "RoleGranted",
      "type": "event"
    },
    {
      "anonymous": false,
      "inputs": [
        {
          "indexed": true,
          "internalType": "bytes32",
          "name": "role",
          "type": "bytes32"
        },
        {
          "indexed": true,
          "internalType": "address",
          "name": "account",
          "type": "address"
        },
        {
          "indexed": true,
          "internalType": "address",
          "name": "sender",
          "type": "address"
        }
      ],
      "name": "RoleRevoked",
      "type": "event"
    },
    {
      "anonymous": false,
      "inputs": [
        {
          "indexed": false,
          "internalType": "uint256",
          "name": "newBatchFee",
          "type": "uint256"
        }
      ],
      "name": "SetBatchFee",
      "type": "event"
    },
    {
      "anonymous": false,
      "inputs": [
        {
          "indexed": false,
          "internalType": "uint16",
          "name": "newMultiplierBatchFee",
          "type": "uint16"
        }
      ],
      "name": "SetMultiplierBatchFee",
      "type": "event"
    },
    {
      "anonymous": false,
      "inputs": [
        {
          "indexed": false,
          "internalType": "uint64",
          "name": "newPendingStateTimeout",
          "type": "uint64"
        }
      ],
      "name": "SetPendingStateTimeout",
      "type": "event"
    },
    {
      "anonymous": false,
      "inputs": [
        {
          "indexed": false,
          "internalType": "address",
          "name": "newTrustedAggregator",
          "type": "address"
        }
      ],
      "name": "SetTrustedAggregator",
      "type": "event"
    },
    {
      "anonymous": false,
      "inputs": [
        {
          "indexed": false,
          "internalType": "uint64",
          "name": "newTrustedAggregatorTimeout",
          "type": "uint64"
        }
      ],
      "name": "SetTrustedAggregatorTimeout",
      "type": "event"
    },
    {
      "anonymous": false,
      "inputs": [
        {
          "indexed": false,
          "internalType": "uint64",
          "name": "newVerifyBatchTimeTarget",
          "type": "uint64"
        }
      ],
      "name": "SetVerifyBatchTimeTarget",
      "type": "event"
    },
    {
      "anonymous": false,
      "inputs": [
        {
          "indexed": true,
          "internalType": "uint32",
          "name": "rollupID",
          "type": "uint32"
        },
        {
          "indexed": false,
          "internalType": "uint32",
          "name": "newRollupTypeID",
          "type": "uint32"
        },
        {
          "indexed": false,
          "internalType": "uint64",
          "name": "lastVerifiedBatchBeforeUpgrade",
          "type": "uint64"
        }
      ],
      "name": "UpdateRollup",
      "type": "event"
    },
    {
      "anonymous": false,
      "inputs": [
        {
          "indexed": true,
          "internalType": "uint32",
          "name": "rollupID",
          "type": "uint32"
        },
        {
          "indexed": false,
          "internalType": "uint64",
          "name": "numBatch",
          "type": "uint64"
        },
        {
          "indexed": false,
          "internalType": "bytes32",
          "name": "stateRoot",
          "type": "bytes32"
        },
        {
          "indexed": false,
          "internalType": "bytes32",
          "name": "exitRoot",
          "type": "bytes32"
        },
        {
          "indexed": true,
          "internalType": "address",
          "name": "aggregator",
          "type": "address"
        }
      ],
      "name": "VerifyBatches",
      "type": "event"
    },
    {
      "anonymous": false,
      "inputs": [
        {
          "indexed": true,
          "internalType": "uint32",
          "name": "rollupID",
          "type": "uint32"
        },
        {
          "indexed": false,
          "internalType": "uint64",
          "name": "numBatch",
          "type": "uint64"
        },
        {
          "indexed": false,
          "internalType": "bytes32",
          "name": "stateRoot",
          "type": "bytes32"
        },
        {
          "indexed": false,
          "internalType": "bytes32",
          "name": "exitRoot",
          "type": "bytes32"
        },
        {
          "indexed": true,
          "internalType": "address",
          "name": "aggregator",
          "type": "address"
        }
      ],
      "name": "VerifyBatchesTrustedAggregator",
      "type": "event"
    },
    {
      "inputs": [],
      "name": "DEFAULT_ADMIN_ROLE",
      "outputs": [
        {
          "internalType": "bytes32",
          "name": "",
          "type": "bytes32"
        }
      ],
      "stateMutability": "view",
      "type": "function"
    },
    {
      "inputs": [],
      "name": "activateEmergencyState",
      "outputs": [],
      "stateMutability": "nonpayable",
      "type": "function"
    },
    {
      "inputs": [
        {
          "internalType": "contract IPolygonRollupBase",
          "name": "rollupAddress",
          "type": "address"
        },
        {
          "internalType": "contract IVerifierRollup",
          "name": "verifier",
          "type": "address"
        },
        {
          "internalType": "uint64",
          "name": "forkID",
          "type": "uint64"
        },
        {
          "internalType": "uint64",
          "name": "chainID",
          "type": "uint64"
        },
        {
          "internalType": "bytes32",
          "name": "genesis",
          "type": "bytes32"
        },
        {
          "internalType": "uint8",
          "name": "rollupCompatibilityID",
          "type": "uint8"
        }
      ],
      "name": "addExistingRollup",
      "outputs": [],
      "stateMutability": "nonpayable",
      "type": "function"
    },
    {
      "inputs": [
        {
          "internalType": "address",
          "name": "consensusImplementation",
          "type": "address"
        },
        {
          "internalType": "contract IVerifierRollup",
          "name": "verifier",
          "type": "address"
        },
        {
          "internalType": "uint64",
          "name": "forkID",
          "type": "uint64"
        },
        {
          "internalType": "uint8",
          "name": "rollupCompatibilityID",
          "type": "uint8"
        },
        {
          "internalType": "bytes32",
          "name": "genesis",
          "type": "bytes32"
        },
        {
          "internalType": "string",
          "name": "description",
          "type": "string"
        }
      ],
      "name": "addNewRollupType",
      "outputs": [],
      "stateMutability": "nonpayable",
      "type": "function"
    },
    {
      "inputs": [],
      "name": "bridgeAddress",
      "outputs": [
        {
          "internalType": "contract IPolygonZkEVMBridge",
          "name": "",
          "type": "address"
        }
      ],
      "stateMutability": "view",
      "type": "function"
    },
    {
      "inputs": [],
      "name": "calculateRewardPerBatch",
      "outputs": [
        {
          "internalType": "uint256",
          "name": "",
          "type": "uint256"
        }
      ],
      "stateMutability": "view",
      "type": "function"
    },
    {
      "inputs": [
        {
          "internalType": "uint64",
          "name": "chainID",
          "type": "uint64"
        }
      ],
      "name": "chainIDToRollupID",
      "outputs": [
        {
          "internalType": "uint32",
          "name": "rollupID",
          "type": "uint32"
        }
      ],
      "stateMutability": "view",
      "type": "function"
    },
    {
      "inputs": [
        {
          "internalType": "uint32",
          "name": "rollupID",
          "type": "uint32"
        },
        {
          "internalType": "uint64",
          "name": "pendingStateNum",
          "type": "uint64"
        }
      ],
      "name": "consolidatePendingState",
      "outputs": [],
      "stateMutability": "nonpayable",
      "type": "function"
    },
    {
      "inputs": [
        {
          "internalType": "uint32",
          "name": "rollupTypeID",
          "type": "uint32"
        },
        {
          "internalType": "uint64",
          "name": "chainID",
          "type": "uint64"
        },
        {
          "internalType": "address",
          "name": "admin",
          "type": "address"
        },
        {
          "internalType": "address",
          "name": "sequencer",
          "type": "address"
        },
        {
          "internalType": "address",
          "name": "gasTokenAddress",
          "type": "address"
        },
        {
          "internalType": "string",
          "name": "sequencerURL",
          "type": "string"
        },
        {
          "internalType": "string",
          "name": "networkName",
          "type": "string"
        }
      ],
      "name": "createNewRollup",
      "outputs": [],
      "stateMutability": "nonpayable",
      "type": "function"
    },
    {
      "inputs": [],
      "name": "deactivateEmergencyState",
      "outputs": [],
      "stateMutability": "nonpayable",
      "type": "function"
    },
    {
      "inputs": [],
      "name": "getBatchFee",
      "outputs": [
        {
          "internalType": "uint256",
          "name": "",
          "type": "uint256"
        }
      ],
      "stateMutability": "view",
      "type": "function"
    },
    {
      "inputs": [],
      "name": "getForcedBatchFee",
      "outputs": [
        {
          "internalType": "uint256",
          "name": "",
          "type": "uint256"
        }
      ],
      "stateMutability": "view",
      "type": "function"
    },
    {
      "inputs": [
        {
          "internalType": "uint32",
          "name": "rollupID",
          "type": "uint32"
        },
        {
          "internalType": "uint64",
          "name": "initNumBatch",
          "type": "uint64"
        },
        {
          "internalType": "uint64",
          "name": "finalNewBatch",
          "type": "uint64"
        },
        {
          "internalType": "bytes32",
          "name": "newLocalExitRoot",
          "type": "bytes32"
        },
        {
          "internalType": "bytes32",
          "name": "oldStateRoot",
          "type": "bytes32"
        },
        {
          "internalType": "bytes32",
          "name": "newStateRoot",
          "type": "bytes32"
        }
      ],
      "name": "getInputSnarkBytes",
      "outputs": [
        {
          "internalType": "bytes",
          "name": "",
          "type": "bytes"
        }
      ],
      "stateMutability": "view",
      "type": "function"
    },
    {
      "inputs": [
        {
          "internalType": "uint32",
          "name": "rollupID",
          "type": "uint32"
        }
      ],
      "name": "getLastVerifiedBatch",
      "outputs": [
        {
          "internalType": "uint64",
          "name": "",
          "type": "uint64"
        }
      ],
      "stateMutability": "view",
      "type": "function"
    },
    {
      "inputs": [
        {
          "internalType": "bytes32",
          "name": "role",
          "type": "bytes32"
        }
      ],
      "name": "getRoleAdmin",
      "outputs": [
        {
          "internalType": "bytes32",
          "name": "",
          "type": "bytes32"
        }
      ],
      "stateMutability": "view",
      "type": "function"
    },
    {
      "inputs": [
        {
          "internalType": "uint32",
          "name": "rollupID",
          "type": "uint32"
        },
        {
          "internalType": "uint64",
          "name": "batchNum",
          "type": "uint64"
        }
      ],
      "name": "getRollupBatchNumToStateRoot",
      "outputs": [
        {
          "internalType": "bytes32",
          "name": "",
          "type": "bytes32"
        }
      ],
      "stateMutability": "view",
      "type": "function"
    },
    {
      "inputs": [],
      "name": "getRollupExitRoot",
      "outputs": [
        {
          "internalType": "bytes32",
          "name": "",
          "type": "bytes32"
        }
      ],
      "stateMutability": "view",
      "type": "function"
    },
    {
      "inputs": [
        {
          "internalType": "uint32",
          "name": "rollupID",
          "type": "uint32"
        },
        {
          "internalType": "uint64",
          "name": "batchNum",
          "type": "uint64"
        }
      ],
      "name": "getRollupPendingStateTransitions",
      "outputs": [
        {
          "components": [
            {
              "internalType": "uint64",
              "name": "timestamp",
              "type": "uint64"
            },
            {
              "internalType": "uint64",
              "name": "lastVerifiedBatch",
              "type": "uint64"
            },
            {
              "internalType": "bytes32",
              "name": "exitRoot",
              "type": "bytes32"
            },
            {
              "internalType": "bytes32",
              "name": "stateRoot",
              "type": "bytes32"
            }
          ],
          "internalType": "struct LegacyZKEVMStateVariables.PendingState",
          "name": "",
          "type": "tuple"
        }
      ],
      "stateMutability": "view",
      "type": "function"
    },
    {
      "inputs": [
        {
          "internalType": "uint32",
          "name": "rollupID",
          "type": "uint32"
        },
        {
          "internalType": "uint64",
          "name": "batchNum",
          "type": "uint64"
        }
      ],
      "name": "getRollupSequencedBatches",
      "outputs": [
        {
          "components": [
            {
              "internalType": "bytes32",
              "name": "accInputHash",
              "type": "bytes32"
            },
            {
              "internalType": "uint64",
              "name": "sequencedTimestamp",
              "type": "uint64"
            },
            {
              "internalType": "uint64",
              "name": "previousLastBatchSequenced",
              "type": "uint64"
            }
          ],
          "internalType": "struct LegacyZKEVMStateVariables.SequencedBatchData",
          "name": "",
          "type": "tuple"
        }
      ],
      "stateMutability": "view",
      "type": "function"
    },
    {
      "inputs": [],
      "name": "globalExitRootManager",
      "outputs": [
        {
          "internalType": "contract IPolygonZkEVMGlobalExitRootV2",
          "name": "",
          "type": "address"
        }
      ],
      "stateMutability": "view",
      "type": "function"
    },
    {
      "inputs": [
        {
          "internalType": "bytes32",
          "name": "role",
          "type": "bytes32"
        },
        {
          "internalType": "address",
          "name": "account",
          "type": "address"
        }
      ],
      "name": "grantRole",
      "outputs": [],
      "stateMutability": "nonpayable",
      "type": "function"
    },
    {
      "inputs": [
        {
          "internalType": "bytes32",
          "name": "role",
          "type": "bytes32"
        },
        {
          "internalType": "address",
          "name": "account",
          "type": "address"
        }
      ],
      "name": "hasRole",
      "outputs": [
        {
          "internalType": "bool",
          "name": "",
          "type": "bool"
        }
      ],
      "stateMutability": "view",
      "type": "function"
    },
    {
      "inputs": [
        {
          "internalType": "address",
          "name": "trustedAggregator",
          "type": "address"
        },
        {
          "internalType": "uint64",
          "name": "_pendingStateTimeout",
          "type": "uint64"
        },
        {
          "internalType": "uint64",
          "name": "_trustedAggregatorTimeout",
          "type": "uint64"
        },
        {
          "internalType": "address",
          "name": "admin",
          "type": "address"
        },
        {
          "internalType": "address",
          "name": "timelock",
          "type": "address"
        },
        {
          "internalType": "address",
          "name": "emergencyCouncil",
          "type": "address"
        },
        {
          "internalType": "contract PolygonZkEVMExistentEtrog",
          "name": "polygonZkEVM",
          "type": "address"
        },
        {
          "internalType": "contract IVerifierRollup",
          "name": "zkEVMVerifier",
          "type": "address"
        },
        {
          "internalType": "uint64",
          "name": "zkEVMForkID",
          "type": "uint64"
        },
        {
          "internalType": "uint64",
          "name": "zkEVMChainID",
          "type": "uint64"
        }
      ],
      "name": "initialize",
      "outputs": [],
      "stateMutability": "nonpayable",
      "type": "function"
    },
    {
      "inputs": [],
      "name": "isEmergencyState",
      "outputs": [
        {
          "internalType": "bool",
          "name": "",
          "type": "bool"
        }
      ],
      "stateMutability": "view",
      "type": "function"
    },
    {
      "inputs": [
        {
          "internalType": "uint32",
          "name": "rollupID",
          "type": "uint32"
        },
        {
          "internalType": "uint64",
          "name": "pendingStateNum",
          "type": "uint64"
        }
      ],
      "name": "isPendingStateConsolidable",
      "outputs": [
        {
          "internalType": "bool",
          "name": "",
          "type": "bool"
        }
      ],
      "stateMutability": "view",
      "type": "function"
    },
    {
      "inputs": [],
      "name": "lastAggregationTimestamp",
      "outputs": [
        {
          "internalType": "uint64",
          "name": "",
          "type": "uint64"
        }
      ],
      "stateMutability": "view",
      "type": "function"
    },
    {
      "inputs": [],
      "name": "lastDeactivatedEmergencyStateTimestamp",
      "outputs": [
        {
          "internalType": "uint64",
          "name": "",
          "type": "uint64"
        }
      ],
      "stateMutability": "view",
      "type": "function"
    },
    {
      "inputs": [],
      "name": "multiplierBatchFee",
      "outputs": [
        {
          "internalType": "uint16",
          "name": "",
          "type": "uint16"
        }
      ],
      "stateMutability": "view",
      "type": "function"
    },
    {
      "inputs": [
        {
          "internalType": "uint32",
          "name": "rollupTypeID",
          "type": "uint32"
        }
      ],
      "name": "obsoleteRollupType",
      "outputs": [],
      "stateMutability": "nonpayable",
      "type": "function"
    },
    {
      "inputs": [
        {
          "internalType": "uint64",
          "name": "newSequencedBatches",
          "type": "uint64"
        },
        {
          "internalType": "bytes32",
          "name": "newAccInputHash",
          "type": "bytes32"
        }
      ],
      "name": "onSequenceBatches",
      "outputs": [
        {
          "internalType": "uint64",
          "name": "",
          "type": "uint64"
        }
      ],
      "stateMutability": "nonpayable",
      "type": "function"
    },
    {
      "inputs": [
        {
          "internalType": "uint32",
          "name": "rollupID",
          "type": "uint32"
        },
        {
          "internalType": "uint64",
          "name": "initPendingStateNum",
          "type": "uint64"
        },
        {
          "internalType": "uint64",
          "name": "finalPendingStateNum",
          "type": "uint64"
        },
        {
          "internalType": "uint64",
          "name": "initNumBatch",
          "type": "uint64"
        },
        {
          "internalType": "uint64",
          "name": "finalNewBatch",
          "type": "uint64"
        },
        {
          "internalType": "bytes32",
          "name": "newLocalExitRoot",
          "type": "bytes32"
        },
        {
          "internalType": "bytes32",
          "name": "newStateRoot",
          "type": "bytes32"
        },
        {
          "internalType": "bytes32[24]",
          "name": "proof",
          "type": "bytes32[24]"
        }
      ],
      "name": "overridePendingState",
      "outputs": [],
      "stateMutability": "nonpayable",
      "type": "function"
    },
    {
      "inputs": [],
      "name": "pendingStateTimeout",
      "outputs": [
        {
          "internalType": "uint64",
          "name": "",
          "type": "uint64"
        }
      ],
      "stateMutability": "view",
      "type": "function"
    },
    {
      "inputs": [],
      "name": "pol",
      "outputs": [
        {
          "internalType": "contract IERC20Upgradeable",
          "name": "",
          "type": "address"
        }
      ],
      "stateMutability": "view",
      "type": "function"
    },
    {
      "inputs": [
        {
          "internalType": "uint32",
          "name": "rollupID",
          "type": "uint32"
        },
        {
          "internalType": "uint64",
          "name": "initPendingStateNum",
          "type": "uint64"
        },
        {
          "internalType": "uint64",
          "name": "finalPendingStateNum",
          "type": "uint64"
        },
        {
          "internalType": "uint64",
          "name": "initNumBatch",
          "type": "uint64"
        },
        {
          "internalType": "uint64",
          "name": "finalNewBatch",
          "type": "uint64"
        },
        {
          "internalType": "bytes32",
          "name": "newLocalExitRoot",
          "type": "bytes32"
        },
        {
          "internalType": "bytes32",
          "name": "newStateRoot",
          "type": "bytes32"
        },
        {
          "internalType": "bytes32[24]",
          "name": "proof",
          "type": "bytes32[24]"
        }
      ],
      "name": "proveNonDeterministicPendingState",
      "outputs": [],
      "stateMutability": "nonpayable",
      "type": "function"
    },
    {
      "inputs": [
        {
          "internalType": "bytes32",
          "name": "role",
          "type": "bytes32"
        },
        {
          "internalType": "address",
          "name": "account",
          "type": "address"
        }
      ],
      "name": "renounceRole",
      "outputs": [],
      "stateMutability": "nonpayable",
      "type": "function"
    },
    {
      "inputs": [
        {
          "internalType": "bytes32",
          "name": "role",
          "type": "bytes32"
        },
        {
          "internalType": "address",
          "name": "account",
          "type": "address"
        }
      ],
      "name": "revokeRole",
      "outputs": [],
      "stateMutability": "nonpayable",
      "type": "function"
    },
    {
      "inputs": [
        {
          "internalType": "address",
          "name": "rollupAddress",
          "type": "address"
        }
      ],
      "name": "rollupAddressToID",
      "outputs": [
        {
          "internalType": "uint32",
          "name": "rollupID",
          "type": "uint32"
        }
      ],
      "stateMutability": "view",
      "type": "function"
    },
    {
      "inputs": [],
      "name": "rollupCount",
      "outputs": [
        {
          "internalType": "uint32",
          "name": "",
          "type": "uint32"
        }
      ],
      "stateMutability": "view",
      "type": "function"
    },
    {
      "inputs": [
        {
          "internalType": "uint32",
          "name": "rollupID",
          "type": "uint32"
        }
      ],
      "name": "rollupIDToRollupData",
      "outputs": [
        {
          "internalType": "contract IPolygonRollupBase",
          "name": "rollupContract",
          "type": "address"
        },
        {
          "internalType": "uint64",
          "name": "chainID",
          "type": "uint64"
        },
        {
          "internalType": "contract IVerifierRollup",
          "name": "verifier",
          "type": "address"
        },
        {
          "internalType": "uint64",
          "name": "forkID",
          "type": "uint64"
        },
        {
          "internalType": "bytes32",
          "name": "lastLocalExitRoot",
          "type": "bytes32"
        },
        {
          "internalType": "uint64",
          "name": "lastBatchSequenced",
          "type": "uint64"
        },
        {
          "internalType": "uint64",
          "name": "lastVerifiedBatch",
          "type": "uint64"
        },
        {
          "internalType": "uint64",
          "name": "lastPendingState",
          "type": "uint64"
        },
        {
          "internalType": "uint64",
          "name": "lastPendingStateConsolidated",
          "type": "uint64"
        },
        {
          "internalType": "uint64",
          "name": "lastVerifiedBatchBeforeUpgrade",
          "type": "uint64"
        },
        {
          "internalType": "uint64",
          "name": "rollupTypeID",
          "type": "uint64"
        },
        {
          "internalType": "uint8",
          "name": "rollupCompatibilityID",
          "type": "uint8"
        }
      ],
      "stateMutability": "view",
      "type": "function"
    },
    {
      "inputs": [],
      "name": "rollupTypeCount",
      "outputs": [
        {
          "internalType": "uint32",
          "name": "",
          "type": "uint32"
        }
      ],
      "stateMutability": "view",
      "type": "function"
    },
    {
      "inputs": [
        {
          "internalType": "uint32",
          "name": "rollupTypeID",
          "type": "uint32"
        }
      ],
      "name": "rollupTypeMap",
      "outputs": [
        {
          "internalType": "address",
          "name": "consensusImplementation",
          "type": "address"
        },
        {
          "internalType": "contract IVerifierRollup",
          "name": "verifier",
          "type": "address"
        },
        {
          "internalType": "uint64",
          "name": "forkID",
          "type": "uint64"
        },
        {
          "internalType": "uint8",
          "name": "rollupCompatibilityID",
          "type": "uint8"
        },
        {
          "internalType": "bool",
          "name": "obsolete",
          "type": "bool"
        },
        {
          "internalType": "bytes32",
          "name": "genesis",
          "type": "bytes32"
        }
      ],
      "stateMutability": "view",
      "type": "function"
    },
    {
      "inputs": [
        {
          "internalType": "uint256",
          "name": "newBatchFee",
          "type": "uint256"
        }
      ],
      "name": "setBatchFee",
      "outputs": [],
      "stateMutability": "nonpayable",
      "type": "function"
    },
    {
      "inputs": [
        {
          "internalType": "uint16",
          "name": "newMultiplierBatchFee",
          "type": "uint16"
        }
      ],
      "name": "setMultiplierBatchFee",
      "outputs": [],
      "stateMutability": "nonpayable",
      "type": "function"
    },
    {
      "inputs": [
        {
          "internalType": "uint64",
          "name": "newPendingStateTimeout",
          "type": "uint64"
        }
      ],
      "name": "setPendingStateTimeout",
      "outputs": [],
      "stateMutability": "nonpayable",
      "type": "function"
    },
    {
      "inputs": [
        {
          "internalType": "uint64",
          "name": "newTrustedAggregatorTimeout",
          "type": "uint64"
        }
      ],
      "name": "setTrustedAggregatorTimeout",
      "outputs": [],
      "stateMutability": "nonpayable",
      "type": "function"
    },
    {
      "inputs": [
        {
          "internalType": "uint64",
          "name": "newVerifyBatchTimeTarget",
          "type": "uint64"
        }
      ],
      "name": "setVerifyBatchTimeTarget",
      "outputs": [],
      "stateMutability": "nonpayable",
      "type": "function"
    },
    {
      "inputs": [],
      "name": "totalSequencedBatches",
      "outputs": [
        {
          "internalType": "uint64",
          "name": "",
          "type": "uint64"
        }
      ],
      "stateMutability": "view",
      "type": "function"
    },
    {
      "inputs": [],
      "name": "totalVerifiedBatches",
      "outputs": [
        {
          "internalType": "uint64",
          "name": "",
          "type": "uint64"
        }
      ],
      "stateMutability": "view",
      "type": "function"
    },
    {
      "inputs": [],
      "name": "trustedAggregatorTimeout",
      "outputs": [
        {
          "internalType": "uint64",
          "name": "",
          "type": "uint64"
        }
      ],
      "stateMutability": "view",
      "type": "function"
    },
    {
      "inputs": [
        {
          "internalType": "contract ITransparentUpgradeableProxy",
          "name": "rollupContract",
          "type": "address"
        },
        {
          "internalType": "uint32",
          "name": "newRollupTypeID",
          "type": "uint32"
        },
        {
          "internalType": "bytes",
          "name": "upgradeData",
          "type": "bytes"
        }
      ],
      "name": "updateRollup",
      "outputs": [],
      "stateMutability": "nonpayable",
      "type": "function"
    },
    {
      "inputs": [],
      "name": "verifyBatchTimeTarget",
      "outputs": [
        {
          "internalType": "uint64",
          "name": "",
          "type": "uint64"
        }
      ],
      "stateMutability": "view",
      "type": "function"
    },
    {
      "inputs": [
        {
          "internalType": "uint32",
          "name": "rollupID",
          "type": "uint32"
        },
        {
          "internalType": "uint64",
          "name": "pendingStateNum",
          "type": "uint64"
        },
        {
          "internalType": "uint64",
          "name": "initNumBatch",
          "type": "uint64"
        },
        {
          "internalType": "uint64",
          "name": "finalNewBatch",
          "type": "uint64"
        },
        {
          "internalType": "bytes32",
          "name": "newLocalExitRoot",
          "type": "bytes32"
        },
        {
          "internalType": "bytes32",
          "name": "newStateRoot",
          "type": "bytes32"
        },
        {
          "internalType": "address",
          "name": "beneficiary",
          "type": "address"
        },
        {
          "internalType": "bytes32[24]",
          "name": "proof",
          "type": "bytes32[24]"
        }
      ],
      "name": "verifyBatches",
      "outputs": [],
      "stateMutability": "nonpayable",
      "type": "function"
    },
    {
      "inputs": [
        {
          "internalType": "uint32",
          "name": "rollupID",
          "type": "uint32"
        },
        {
          "internalType": "uint64",
          "name": "pendingStateNum",
          "type": "uint64"
        },
        {
          "internalType": "uint64",
          "name": "initNumBatch",
          "type": "uint64"
        },
        {
          "internalType": "uint64",
          "name": "finalNewBatch",
          "type": "uint64"
        },
        {
          "internalType": "bytes32",
          "name": "newLocalExitRoot",
          "type": "bytes32"
        },
        {
          "internalType": "bytes32",
          "name": "newStateRoot",
          "type": "bytes32"
        },
        {
          "internalType": "address",
          "name": "beneficiary",
          "type": "address"
        },
        {
          "internalType": "bytes32[24]",
          "name": "proof",
          "type": "bytes32[24]"
        }
      ],
      "name": "verifyBatchesTrustedAggregator",
      "outputs": [],
      "stateMutability": "nonpayable",
      "type": "function"
    }
  ],
  "bytecode": "0x60e06040523480156200001157600080fd5b50604051620061513803806200615183398101604081905262000034916200013b565b6001600160a01b0380841660805282811660c052811660a0526200005762000060565b5050506200018f565b600054610100900460ff1615620000cd5760405162461bcd60e51b815260206004820152602760248201527f496e697469616c697a61626c653a20636f6e747261637420697320696e697469604482015266616c697a696e6760c81b606482015260840160405180910390fd5b60005460ff908116101562000120576000805460ff191660ff9081179091556040519081527f7f26b83ff96e1f2b6a682f133852f6798a09c465da95921460cefb38474024989060200160405180910390a15b565b6001600160a01b03811681146200013857600080fd5b50565b6000806000606084860312156200015157600080fd5b83516200015e8162000122565b6020850151909350620001718162000122565b6040850151909250620001848162000122565b809150509250925092565b60805160a05160c051615f5a620001f760003960008181610adc0152818161231a0152613cb601526000818161089401528181612f170152613fc6015260008181610a3601528181611329015281816114f4015281816120860152613eb50152615f5a6000f3fe60806040523480156200001157600080fd5b50600436106200039d5760003560e01c8063841b24d711620001ed578063c1acbc341162000119578063dbc1697611620000af578063e46761c41162000086578063e46761c41462000ad6578063f34eb8eb1462000afe578063f4e926751462000b15578063f9c4c2ae1462000b2657600080fd5b8063dbc169761462000a9a578063dde0ff771462000aa4578063e0bfd3d21462000abf57600080fd5b8063d02103ca11620000f0578063d02103ca1462000a30578063d5073f6f1462000a58578063d547741f1462000a6f578063d939b3151462000a8657600080fd5b8063c1acbc3414620009d5578063c4c928c214620009f0578063ceee281d1462000a0757600080fd5b80639c9f3dfe116200018f578063a2967d991162000166578063a2967d991462000884578063a3c573eb146200088e578063afd23cbe14620008cf578063b99d0ad714620008f957600080fd5b80639c9f3dfe146200084d578063a066215c1462000864578063a217fddf146200087b57600080fd5b806391d1485411620001c457806391d1485414620007f057806399f5634e146200082c5780639a908e73146200083657600080fd5b8063841b24d714620007a757806387c20c0114620007c25780638bd4f07114620007d957600080fd5b80632528016911620002cd57806355a71ee0116200026f5780637222020f11620002465780637222020f146200072a578063727885e914620007415780637975fcfe14620007585780637fb6e76a146200077e57600080fd5b806355a71ee0146200062d57806360469169146200067157806365c0504d146200067b57600080fd5b806336568abe11620002a457806336568abe14620005f6578063394218e9146200060d578063477fa270146200062457600080fd5b80632528016914620005165780632f2ff15d14620005cb57806330c27dde14620005e257600080fd5b80631489ed1011620003435780631796a1ae116200031a5780631796a1ae14620004995780631816b7e514620004c05780632072f6c514620004d7578063248a9ca314620004e157600080fd5b80631489ed10146200045d57806315064c9614620004745780631608859c146200048257600080fd5b80630a0d9fbe11620003785780630a0d9fbe146200041457806311f6b287146200042f57806312b86e19146200044657600080fd5b80630645af0914620003a2578063066ec01214620003bb578063080b311114620003ec575b600080fd5b620003b9620003b3366004620049fd565b62000c3d565b005b608454620003cf906001600160401b031681565b6040516001600160401b0390911681526020015b60405180910390f35b62000403620003fd36600462004aed565b62001218565b6040519015158152602001620003e3565b608554620003cf90600160401b90046001600160401b031681565b620003cf6200044036600462004b25565b62001242565b620003b96200045736600462004b56565b62001262565b620003b96200046e36600462004bed565b6200142d565b606f54620004039060ff1681565b620003b96200049336600462004aed565b620015de565b607e54620004aa9063ffffffff1681565b60405163ffffffff9091168152602001620003e3565b620003b9620004d136600462004c77565b62001689565b620003b962001746565b62000507620004f236600462004ca4565b60009081526034602052604090206001015490565b604051908152602001620003e3565b620005976200052736600462004aed565b60408051606080820183526000808352602080840182905292840181905263ffffffff959095168552608182528285206001600160401b03948516865260030182529382902082519485018352805485526001015480841691850191909152600160401b90049091169082015290565b60408051825181526020808401516001600160401b03908116918301919091529282015190921690820152606001620003e3565b620003b9620005dc36600462004cbe565b62001823565b608754620003cf906001600160401b031681565b620003b96200060736600462004cbe565b6200184c565b620003b96200061e36600462004cf1565b62001886565b60865462000507565b620005076200063e36600462004aed565b63ffffffff821660009081526081602090815260408083206001600160401b038516845260020190915290205492915050565b620005076200194b565b620006e06200068c36600462004b25565b607f602052600090815260409020805460018201546002909201546001600160a01b0391821692918216916001600160401b03600160a01b8204169160ff600160e01b8304811692600160e81b9004169086565b604080516001600160a01b0397881681529690951660208701526001600160401b039093169385019390935260ff166060840152901515608083015260a082015260c001620003e3565b620003b96200073b36600462004b25565b62001963565b620003b96200075236600462004db9565b62001a5f565b6200076f6200076936600462004e86565b62001ed8565b604051620003e3919062004f40565b620004aa6200078f36600462004cf1565b60836020526000908152604090205463ffffffff1681565b608454620003cf90600160c01b90046001600160401b031681565b620003b9620007d336600462004bed565b62001f0b565b620003b9620007ea36600462004b56565b6200223f565b620004036200080136600462004cbe565b60009182526034602090815260408084206001600160a01b0393909316845291905290205460ff1690565b62000507620022f8565b620003cf6200084736600462004f55565b620023df565b620003b96200085e36600462004cf1565b620025b1565b620003b96200087536600462004cf1565b62002668565b62000507600081565b620005076200271e565b620008b67f000000000000000000000000000000000000000000000000000000000000000081565b6040516001600160a01b039091168152602001620003e3565b608554620008e590600160801b900461ffff1681565b60405161ffff9091168152602001620003e3565b6200098f6200090a36600462004aed565b604080516080808201835260008083526020808401829052838501829052606093840182905263ffffffff969096168152608186528381206001600160401b03958616825260040186528390208351918201845280548086168352600160401b9004909416948101949094526001830154918401919091526002909101549082015290565b604051620003e3919060006080820190506001600160401b0380845116835280602085015116602084015250604083015160408301526060830151606083015292915050565b608454620003cf90600160801b90046001600160401b031681565b620003b962000a0136600462004f82565b62002af3565b620004aa62000a183660046200501a565b60826020526000908152604090205463ffffffff1681565b620008b67f000000000000000000000000000000000000000000000000000000000000000081565b620003b962000a6936600462004ca4565b62002df8565b620003b962000a8036600462004cbe565b62002e94565b608554620003cf906001600160401b031681565b620003b962002ebd565b608454620003cf90600160401b90046001600160401b031681565b620003b962000ad03660046200504c565b62002f8d565b620008b67f000000000000000000000000000000000000000000000000000000000000000081565b620003b962000b0f366004620050c8565b62003066565b608054620004aa9063ffffffff1681565b62000bbd62000b3736600462004b25565b608160205260009081526040902080546001820154600583015460068401546007909401546001600160a01b0380851695600160a01b958690046001600160401b039081169692861695929092048216939282821692600160401b808404821693600160801b808204841694600160c01b90920484169380831693830416910460ff168c565b604080516001600160a01b039d8e1681526001600160401b039c8d1660208201529c909a16998c019990995296891660608b015260808a019590955292871660a089015290861660c0880152851660e0870152841661010086015283166101208501529190911661014083015260ff1661016082015261018001620003e3565b600054600290610100900460ff1615801562000c60575060005460ff8083169116105b62000cd85760405162461bcd60e51b815260206004820152602e60248201527f496e697469616c697a61626c653a20636f6e747261637420697320616c72656160448201527f647920696e697469616c697a656400000000000000000000000000000000000060648201526084015b60405180910390fd5b6000805461010060ff841661ffff199092169190911717905560858054608480546001600160c01b0316600160c01b6001600160401b038e8116919091029190911790915567016345785d8a00006086558c166001600160801b03199091161769070800000000000000001761ffff60801b19167103ea0000000000000000000000000000000017905562000d6c62003262565b62000d987f084e94f375e9d647f87f5b2ceffba1e062c70f6009fdbcf80291e803b5c9edd48c620032cf565b62000da5600088620032cf565b62000dd17fac75d24dbb35ea80e25fab167da4dea46c1915260426570db84f184891f5f59088620032cf565b62000dfd7f3dfe277d2a2c04b75fb2eb3743fa00005ae3678a20c299e65fdf4df76517f68e88620032cf565b62000e297f66156603fe29d13f97c6f3e3dff4ef71919f9aa61c555be0182d954e94221aac88620032cf565b62000e557fab66e11c4f712cd06ab11bf9339b48bef39e12d4a22eeef71d2860a0c90482bd89620032cf565b62000e817fa0fab074aba36a6fa69f1a83ee86e5abfb8433966eb57efb13dc2fc2f24ddd0889620032cf565b62000ead7f62ba6ba2ffed8cfe316b583325ea41ac6e7ba9e5864d2bc6fabba7ac26d2f0f489620032cf565b62000ed97fa5c5790f581d443ed43873ab47cfb8c5d66a6db268e58b5971bb33fc66e07db189620032cf565b62000f257f084e94f375e9d647f87f5b2ceffba1e062c70f6009fdbcf80291e803b5c9edd47f73cb0569fdbea2544dae03fdb2fe10eda92a72a2e8cd2bd496e85b762505a3f0620032db565b62000f517f73cb0569fdbea2544dae03fdb2fe10eda92a72a2e8cd2bd496e85b762505a3f089620032cf565b62000f7d7f8cf807f6970720f8e2c208c7c5037595982c7bd9ed93c380d09df743d0dcc3fb89620032cf565b62000fc97f141f8f32ce6198eee741f695cec728bfd32d289f1acf73621fb303581000545e7f9b6f082d8d3644ae2f24a3c32e356d6f2d9b2844d9b26164fbc82663ff285951620032db565b62000ff57f141f8f32ce6198eee741f695cec728bfd32d289f1acf73621fb303581000545e87620032cf565b620010217f9b6f082d8d3644ae2f24a3c32e356d6f2d9b2844d9b26164fbc82663ff28595187620032cf565b6073546074546001600160401b03600160401b909204821691168082146200105c57604051632e4cc54360e11b815260040160405180910390fd5b600062001084888888886000607460009054906101000a90046001600160401b031662003326565b6001600160401b03838116600081815260756020908152604080832054600287018352818420558885168084526072808452828520600389018552948390208554815560018087018054919092018054918a1667ffffffffffffffff198084168217835593546001600160801b0319938416909117600160401b91829004909b1681029a909a17905560068a01805490911690931797870297909717909155600787018054909616909417909455607a54606f549390915290549251635d6717a560e01b81529394506001600160a01b038c811694635d6717a5946200118b94938316936b010000000000000000000000900490921691607691607791906004016200520b565b600060405180830381600087803b158015620011a657600080fd5b505af1158015620011bb573d6000803e3d6000fd5b50506000805461ff0019169055505060405160ff851681527f7f26b83ff96e1f2b6a682f133852f6798a09c465da95921460cefb384740249893506020019150620012039050565b60405180910390a15050505050505050505050565b63ffffffff8216600090815260816020526040812062001239908362003554565b90505b92915050565b63ffffffff811660009081526081602052604081206200123c9062003599565b7f084e94f375e9d647f87f5b2ceffba1e062c70f6009fdbcf80291e803b5c9edd46200128e816200360a565b63ffffffff89166000908152608160205260409020620012b5818a8a8a8a8a8a8a62003616565b60068101805467ffffffffffffffff60401b1916600160401b6001600160401b0389811691820292909217835560009081526002840160205260409020869055600583018790559054600160801b9004161562001327576006810180546fffffffffffffffffffffffffffffffff1690555b7f00000000000000000000000000000000000000000000000000000000000000006001600160a01b03166333d6247d620013606200271e565b6040518263ffffffff1660e01b81526004016200137f91815260200190565b600060405180830381600087803b1580156200139a57600080fd5b505af1158015620013af573d6000803e3d6000fd5b5050608480546001600160c01b031661127560c71b1790555050604080516001600160401b03881681526020810186905290810186905233606082015263ffffffff8b16907f3182bd6e6f74fc1fdc88b60f3a4f4c7f79db6ae6f5b88a1b3f5a1e28ec210d5e9060800160405180910390a250505050505050505050565b7f084e94f375e9d647f87f5b2ceffba1e062c70f6009fdbcf80291e803b5c9edd462001459816200360a565b63ffffffff8916600090815260816020526040902062001480818a8a8a8a8a8a8a620039af565b60068101805467ffffffffffffffff60401b1916600160401b6001600160401b038a811691820292909217835560009081526002840160205260409020879055600583018890559054600160801b90041615620014f2576006810180546fffffffffffffffffffffffffffffffff1690555b7f00000000000000000000000000000000000000000000000000000000000000006001600160a01b03166333d6247d6200152b6200271e565b6040518263ffffffff1660e01b81526004016200154a91815260200190565b600060405180830381600087803b1580156200156557600080fd5b505af11580156200157a573d6000803e3d6000fd5b5050604080516001600160401b038b1681526020810189905290810189905233925063ffffffff8d1691507fd1ec3a1216f08b6eff72e169ceb548b782db18a6614852618d86bb19f3f9b0d39060600160405180910390a350505050505050505050565b63ffffffff821660009081526081602090815260408083203384527fc17b14a573f65366cdad721c7c0a0f76536bb4a86b935cdac44610e4f010b52a9092529091205460ff166200167857606f5460ff16156200164e57604051630bc011ff60e21b815260040160405180910390fd5b6200165a818362003554565b6200167857604051630674f25160e11b815260040160405180910390fd5b62001684818362003dd1565b505050565b7fa5c5790f581d443ed43873ab47cfb8c5d66a6db268e58b5971bb33fc66e07db1620016b5816200360a565b6103e88261ffff161080620016cf57506103ff8261ffff16115b15620016ee57604051630984a67960e31b815260040160405180910390fd5b6085805461ffff60801b1916600160801b61ffff8516908102919091179091556040519081527f7019933d795eba185c180209e8ae8bffbaa25bcef293364687702c31f4d302c5906020015b60405180910390a15050565b3360009081527f8875b94af5657a2903def9906d67a3f42d8a836d24b5602c00f00fc855339fcd602052604090205460ff166200181757608454600160801b90046001600160401b03161580620017c857506084544290620017bd9062093a8090600160801b90046001600160401b031662005276565b6001600160401b0316115b80620017f857506087544290620017ed9062093a80906001600160401b031662005276565b6001600160401b0316115b15620018175760405163692baaad60e11b815260040160405180910390fd5b6200182162003fc4565b565b60008281526034602052604090206001015462001840816200360a565b62001684838362004043565b6001600160a01b03811633146200187657604051630b4ad1cd60e31b815260040160405180910390fd5b620018828282620040c9565b5050565b7fa5c5790f581d443ed43873ab47cfb8c5d66a6db268e58b5971bb33fc66e07db1620018b2816200360a565b606f5460ff16620018f4576084546001600160401b03600160c01b909104811690831610620018f45760405163401636df60e01b815260040160405180910390fd5b608480546001600160c01b0316600160c01b6001600160401b038516908102919091179091556040519081527f1f4fa24c2e4bad19a7f3ec5c5485f70d46c798461c2e684f55bbd0fc661373a1906020016200173a565b600060865460646200195e9190620052a0565b905090565b7fab66e11c4f712cd06ab11bf9339b48bef39e12d4a22eeef71d2860a0c90482bd6200198f816200360a565b63ffffffff82161580620019ae5750607e5463ffffffff908116908316115b15620019cd57604051637512e5cb60e01b815260040160405180910390fd5b63ffffffff82166000908152607f60205260409020600180820154600160e81b900460ff161515900362001a1457604051633b8d3d9960e01b815260040160405180910390fd5b60018101805460ff60e81b1916600160e81b17905560405163ffffffff8416907f4710d2ee567ef1ed6eb2f651dde4589524bcf7cebc62147a99b281cc836e7e4490600090a2505050565b7fa0fab074aba36a6fa69f1a83ee86e5abfb8433966eb57efb13dc2fc2f24ddd0862001a8b816200360a565b63ffffffff8816158062001aaa5750607e5463ffffffff908116908916115b1562001ac957604051637512e5cb60e01b815260040160405180910390fd5b63ffffffff88166000908152607f60205260409020600180820154600160e81b900460ff161515900362001b1057604051633b8d3d9960e01b815260040160405180910390fd5b6001600160401b03881660009081526083602052604090205463ffffffff161562001b4e576040516337c8fe0960e11b815260040160405180910390fd5b6080805460009190829062001b699063ffffffff16620052ba565b825463ffffffff8281166101009490940a9384029302191691909117909155825460408051600080825260208201928390529394506001600160a01b0390921691309162001bb790620049c1565b62001bc593929190620052e0565b604051809103906000f08015801562001be2573d6000803e3d6000fd5b50905081608360008c6001600160401b03166001600160401b0316815260200190815260200160002060006101000a81548163ffffffff021916908363ffffffff1602179055508160826000836001600160a01b03166001600160a01b0316815260200190815260200160002060006101000a81548163ffffffff021916908363ffffffff1602179055506000608160008463ffffffff1663ffffffff1681526020019081526020016000209050818160000160006101000a8154816001600160a01b0302191690836001600160a01b031602179055508360010160149054906101000a90046001600160401b03168160010160146101000a8154816001600160401b0302191690836001600160401b031602179055508360010160009054906101000a90046001600160a01b03168160010160006101000a8154816001600160a01b0302191690836001600160a01b031602179055508a8160000160146101000a8154816001600160401b0302191690836001600160401b031602179055508360020154816002016000806001600160401b03168152602001908152602001600020819055508b63ffffffff168160070160086101000a8154816001600160401b0302191690836001600160401b0316021790555083600101601c9054906101000a900460ff168160070160106101000a81548160ff021916908360ff1602179055508263ffffffff167f194c983456df6701c6a50830b90fe80e72b823411d0d524970c9590dc277a6418d848e8c60405162001e56949392919063ffffffff9490941684526001600160a01b0392831660208501526001600160401b0391909116604084015216606082015260800190565b60405180910390a2604051633892b81160e11b81526001600160a01b0383169063712570229062001e96908d908d9088908e908e908e9060040162005317565b600060405180830381600087803b15801562001eb157600080fd5b505af115801562001ec6573d6000803e3d6000fd5b50505050505050505050505050505050565b63ffffffff8616600090815260816020526040902060609062001f009087878787876200414d565b979650505050505050565b606f5460ff161562001f3057604051630bc011ff60e21b815260040160405180910390fd5b63ffffffff881660009081526081602090815260408083206084546001600160401b038a81168652600383019094529190932060010154429262001f7f92600160c01b90048116911662005276565b6001600160401b0316111562001fa857604051638a0704d360e01b815260040160405180910390fd5b6103e862001fb788886200537a565b6001600160401b0316111562001fe057604051635acfba9d60e11b815260040160405180910390fd5b62001ff28189898989898989620039af565b62001ffe8187620042a5565b6085546001600160401b0316600003620021165760068101805467ffffffffffffffff60401b1916600160401b6001600160401b0389811691820292909217835560009081526002840160205260409020869055600583018790559054600160801b9004161562002084576006810180546fffffffffffffffffffffffffffffffff1690555b7f00000000000000000000000000000000000000000000000000000000000000006001600160a01b03166333d6247d620020bd6200271e565b6040518263ffffffff1660e01b8152600401620020dc91815260200190565b600060405180830381600087803b158015620020f757600080fd5b505af11580156200210c573d6000803e3d6000fd5b50505050620021e0565b6200212181620044a2565b600681018054600160801b90046001600160401b031690601062002145836200539d565b82546001600160401b039182166101009390930a92830292820219169190911790915560408051608081018252428316815289831660208083019182528284018b8152606084018b81526006890154600160801b90048716600090815260048a01909352949091209251835492518616600160401b026001600160801b03199093169516949094171781559151600183015551600290910155505b604080516001600160401b038816815260208101869052908101869052339063ffffffff8b16907faac1e7a157b259544ebacd6e8a82ae5d6c8f174e12aa48696277bcc9a661f0b49060600160405180910390a3505050505050505050565b606f5460ff16156200226457604051630bc011ff60e21b815260040160405180910390fd5b63ffffffff881660009081526081602052604090206200228b818989898989898962003616565b6001600160401b03871660009081526004820160209081526040918290206002015482519081529081018590527f1f44c21118c4603cfb4e1b621dbcfa2b73efcececee2b99b620b2953d33a7010910160405180910390a1620022ed62003fc4565b505050505050505050565b6040516370a0823160e01b815230600482015260009081906001600160a01b037f000000000000000000000000000000000000000000000000000000000000000016906370a0823190602401602060405180830381865afa15801562002362573d6000803e3d6000fd5b505050506040513d601f19601f82011682018060405250810190620023889190620053bc565b608454909150600090620023af906001600160401b03600160401b8204811691166200537a565b6001600160401b0316905080600003620023cc5760009250505090565b620023d88183620053ec565b9250505090565b606f5460009060ff16156200240757604051630bc011ff60e21b815260040160405180910390fd5b3360009081526082602052604081205463ffffffff16908190036200243f576040516371653c1560e01b815260040160405180910390fd5b836001600160401b03166000036200246a57604051632590ccf960e01b815260040160405180910390fd5b63ffffffff8116600090815260816020526040812060848054919287926200249d9084906001600160401b031662005276565b82546101009290920a6001600160401b0381810219909316918316021790915560068301541690506000620024d3878362005276565b6006840180546001600160401b0380841667ffffffffffffffff199092168217909255604080516060810182528a81524284166020808301918252888616838501908152600095865260038b0190915292909320905181559151600192909201805491518416600160401b026001600160801b0319909216929093169190911717905590506200256383620044a2565b6040516001600160401b038216815263ffffffff8516907f1d9f30260051d51d70339da239ea7b080021adcaabfa71c9b0ea339a20cf9a259060200160405180910390a29695505050505050565b7fa5c5790f581d443ed43873ab47cfb8c5d66a6db268e58b5971bb33fc66e07db1620025dd816200360a565b606f5460ff1662002618576085546001600160401b0390811690831610620026185760405163048a05a960e41b815260040160405180910390fd5b6085805467ffffffffffffffff19166001600160401b0384169081179091556040519081527fc4121f4e22c69632ebb7cf1f462be0511dc034f999b52013eddfb24aab765c75906020016200173a565b7fa5c5790f581d443ed43873ab47cfb8c5d66a6db268e58b5971bb33fc66e07db162002694816200360a565b62015180826001600160401b03161115620026c257604051631c0cfbfd60e31b815260040160405180910390fd5b6085805467ffffffffffffffff60401b1916600160401b6001600160401b038516908102919091179091556040519081527f1b023231a1ab6b5d93992f168fb44498e1a7e64cef58daff6f1c216de6a68c28906020016200173a565b60805460009063ffffffff168082036200273a57506000919050565b6000816001600160401b0381111562002757576200275762004d0f565b60405190808252806020026020018201604052801562002781578160200160208202803683370190505b50905060005b82811015620027f45760816000620027a183600162005403565b63ffffffff1663ffffffff16815260200190815260200160002060050154828281518110620027d457620027d462005419565b602090810291909101015280620027eb816200542f565b91505062002787565b50600060205b8360011462002a50576000620028126002866200544b565b6200281f600287620053ec565b6200282b919062005403565b90506000816001600160401b038111156200284a576200284a62004d0f565b60405190808252806020026020018201604052801562002874578160200160208202803683370190505b50905060005b82811015620029fc576200289060018462005462565b81148015620028ab5750620028a76002886200544b565b6001145b15620029335785620028bf826002620052a0565b81518110620028d257620028d262005419565b602002602001015185604051602001620028f6929190918252602082015260400190565b6040516020818303038152906040528051906020012082828151811062002921576200292162005419565b602002602001018181525050620029e7565b8562002941826002620052a0565b8151811062002954576200295462005419565b6020026020010151868260026200296c9190620052a0565b6200297990600162005403565b815181106200298c576200298c62005419565b6020026020010151604051602001620029af929190918252602082015260400190565b60405160208183030381529060405280519060200120828281518110620029da57620029da62005419565b6020026020010181815250505b80620029f3816200542f565b9150506200287a565b50809450819550838460405160200162002a20929190918252602082015260400190565b604051602081830303815290604052805190602001209350828062002a459062005478565b9350505050620027fa565b60008360008151811062002a685762002a6862005419565b6020026020010151905060005b8281101562002ae957604080516020810184905290810185905260600160408051601f1981840301815282825280516020918201209083018790529082018690529250606001604051602081830303815290604052805190602001209350808062002ae0906200542f565b91505062002a75565b5095945050505050565b7f66156603fe29d13f97c6f3e3dff4ef71919f9aa61c555be0182d954e94221aac62002b1f816200360a565b63ffffffff8416158062002b3e5750607e5463ffffffff908116908516115b1562002b5d57604051637512e5cb60e01b815260040160405180910390fd5b6001600160a01b03851660009081526082602052604081205463ffffffff169081900362002b9e576040516374a086a360e01b815260040160405180910390fd5b63ffffffff8181166000908152608160205260409020600781015490918716600160401b9091046001600160401b03160362002bed57604051634f61d51960e01b815260040160405180910390fd5b63ffffffff86166000908152607f60205260409020600180820154600160e81b900460ff161515900362002c3457604051633b8d3d9960e01b815260040160405180910390fd5b60018101546007830154600160801b900460ff908116600160e01b909204161462002c7257604051635aa0d5f160e11b815260040160405180910390fd5b60018082018054918401805473ffffffffffffffffffffffffffffffffffffffff1981166001600160a01b03909416938417825591546001600160401b03600160a01b9182900416027fffffffff00000000000000000000000000000000000000000000000000000000909216909217179055600782018054600160401b63ffffffff8a160267ffffffffffffffff60401b19909116179055600062002d188462001242565b60078401805467ffffffffffffffff19166001600160401b038316179055825460405163278f794360e11b81529192506001600160a01b038b811692634f1ef2869262002d6e9216908b908b9060040162005492565b600060405180830381600087803b15801562002d8957600080fd5b505af115801562002d9e573d6000803e3d6000fd5b50506040805163ffffffff8c811682526001600160401b0386166020830152881693507ff585e04c05d396901170247783d3e5f0ee9c1df23072985b50af089f5e48b19d92500160405180910390a2505050505050505050565b7f8cf807f6970720f8e2c208c7c5037595982c7bd9ed93c380d09df743d0dcc3fb62002e24816200360a565b683635c9adc5dea0000082118062002e3f5750633b9aca0082105b1562002e5e57604051638586952560e01b815260040160405180910390fd5b60868290556040518281527ffb383653f53ee079978d0c9aff7aeff04a10166ce244cca9c9f9d8d96bed45b2906020016200173a565b60008281526034602052604090206001015462002eb1816200360a565b620016848383620040c9565b7f62ba6ba2ffed8cfe316b583325ea41ac6e7ba9e5864d2bc6fabba7ac26d2f0f462002ee9816200360a565b6087805467ffffffffffffffff1916426001600160401b031617905560408051636de0b4bb60e11b815290517f00000000000000000000000000000000000000000000000000000000000000006001600160a01b03169163dbc1697691600480830192600092919082900301818387803b15801562002f6757600080fd5b505af115801562002f7c573d6000803e3d6000fd5b5050505062002f8a6200456d565b50565b7f3dfe277d2a2c04b75fb2eb3743fa00005ae3678a20c299e65fdf4df76517f68e62002fb9816200360a565b6001600160401b03841660009081526083602052604090205463ffffffff161562002ff7576040516337c8fe0960e11b815260040160405180910390fd5b6001600160a01b03871660009081526082602052604090205463ffffffff16156200303557604051630d409b9360e41b815260040160405180910390fd5b6000620030488888888887600062003326565b60008080526002909101602052604090209390935550505050505050565b7fac75d24dbb35ea80e25fab167da4dea46c1915260426570db84f184891f5f59062003092816200360a565b607e8054600091908290620030ad9063ffffffff16620052ba565b91906101000a81548163ffffffff021916908363ffffffff160217905590506040518060c00160405280896001600160a01b03168152602001886001600160a01b03168152602001876001600160401b031681526020018660ff16815260200160001515815260200185815250607f60008363ffffffff1663ffffffff16815260200190815260200160002060008201518160000160006101000a8154816001600160a01b0302191690836001600160a01b0316021790555060208201518160010160006101000a8154816001600160a01b0302191690836001600160a01b0316021790555060408201518160010160146101000a8154816001600160401b0302191690836001600160401b03160217905550606082015181600101601c6101000a81548160ff021916908360ff160217905550608082015181600101601d6101000a81548160ff02191690831515021790555060a082015181600201559050508063ffffffff167fa2970448b3bd66ba7e524e7b2a5b9cf94fa29e32488fb942afdfe70dd4b77b528989898989896040516200325096959493929190620054d1565b60405180910390a25050505050505050565b600054610100900460ff16620018215760405162461bcd60e51b815260206004820152602b60248201527f496e697469616c697a61626c653a20636f6e7472616374206973206e6f74206960448201526a6e697469616c697a696e6760a81b606482015260840162000ccf565b62001882828262004043565b600082815260346020526040808220600101805490849055905190918391839186917fbd79b86ffe0ab8e8776151514217cd7cacd52c909f66475c3af44e129f0b00ff9190a4505050565b6080805460009182918290620033429063ffffffff16620052ba565b91906101000a81548163ffffffff021916908363ffffffff160217905590508060836000876001600160401b03166001600160401b0316815260200190815260200160002060006101000a81548163ffffffff021916908363ffffffff16021790555080608260008a6001600160a01b03166001600160a01b0316815260200190815260200160002060006101000a81548163ffffffff021916908363ffffffff160217905550608160008263ffffffff1663ffffffff1681526020019081526020016000209150878260000160006101000a8154816001600160a01b0302191690836001600160a01b03160217905550858260010160146101000a8154816001600160401b0302191690836001600160401b03160217905550868260010160006101000a8154816001600160a01b0302191690836001600160a01b03160217905550848260000160146101000a8154816001600160401b0302191690836001600160401b03160217905550838260070160106101000a81548160ff021916908360ff1602179055508063ffffffff167fadfc7d56f7e39b08b321534f14bfb135ad27698f7d2f5ad0edc2356ea9a3f850878a888888604051620035419594939291906001600160401b0395861681526001600160a01b03949094166020850152918416604084015260ff166060830152909116608082015260a00190565b60405180910390a2509695505050505050565b6085546001600160401b038281166000908152600485016020526040812054909242926200358792918116911662005276565b6001600160401b031611159392505050565b6006810154600090600160801b90046001600160401b031615620035ed575060068101546001600160401b03600160801b909104811660009081526004909201602052604090912054600160401b90041690565b5060060154600160401b90046001600160401b031690565b919050565b62002f8a8133620045c6565b60078801546000906001600160401b0390811690871610156200364c5760405163ead1340b60e01b815260040160405180910390fd5b6001600160401b03881615620036ed5760068901546001600160401b03600160801b90910481169089161115620036965760405163bb14c20560e01b815260040160405180910390fd5b506001600160401b03808816600090815260048a0160205260409020600281015481549092888116600160401b9092041614620036e657604051632bd2e3e760e01b815260040160405180910390fd5b5062003762565b506001600160401b03851660009081526002890160205260409020548062003728576040516324cbdcc360e11b815260040160405180910390fd5b60068901546001600160401b03600160401b909104811690871611156200376257604051630f2b74f160e11b815260040160405180910390fd5b60068901546001600160401b03600160801b909104811690881611806200379b5750876001600160401b0316876001600160401b031611155b80620037bf575060068901546001600160401b03600160c01b909104811690881611155b15620037de5760405163bfa7079f60e01b815260040160405180910390fd5b6001600160401b03878116600090815260048b016020526040902054600160401b900481169086161462003825576040516332a2a77f60e01b815260040160405180910390fd5b6000620038378a88888886896200414d565b905060007f30644e72e131a029b85045b68181585d2833e84879b9709143e1f593f00000016002836040516200386e919062005529565b602060405180830381855afa1580156200388c573d6000803e3d6000fd5b5050506040513d601f19601f82011682018060405250810190620038b19190620053bc565b620038bd91906200544b565b60018c0154604080516020810182528381529051634890ed4560e11b81529293506001600160a01b0390911691639121da8a91620039019188919060040162005547565b602060405180830381865afa1580156200391f573d6000803e3d6000fd5b505050506040513d601f19601f8201168201806040525081019062003945919062005584565b62003963576040516309bde33960e01b815260040160405180910390fd5b6001600160401b038916600090815260048c016020526040902060020154859003620039a25760405163a47276bd60e01b815260040160405180910390fd5b5050505050505050505050565b600080620039bd8a62003599565b60078b01549091506001600160401b039081169089161015620039f35760405163ead1340b60e01b815260040160405180910390fd5b6001600160401b0389161562003a965760068a01546001600160401b03600160801b9091048116908a16111562003a3d5760405163bb14c20560e01b815260040160405180910390fd5b6001600160401b03808a16600090815260048c01602052604090206002810154815490945090918a8116600160401b909204161462003a8f57604051632bd2e3e760e01b815260040160405180910390fd5b5062003b06565b6001600160401b038816600090815260028b01602052604090205491508162003ad2576040516324cbdcc360e11b815260040160405180910390fd5b806001600160401b0316886001600160401b0316111562003b0657604051630f2b74f160e11b815260040160405180910390fd5b806001600160401b0316876001600160401b03161162003b395760405163b9b18f5760e01b815260040160405180910390fd5b600062003b4b8b8a8a8a878b6200414d565b905060007f30644e72e131a029b85045b68181585d2833e84879b9709143e1f593f000000160028360405162003b82919062005529565b602060405180830381855afa15801562003ba0573d6000803e3d6000fd5b5050506040513d601f19601f8201168201806040525081019062003bc59190620053bc565b62003bd191906200544b565b60018d0154604080516020810182528381529051634890ed4560e11b81529293506001600160a01b0390911691639121da8a9162003c159189919060040162005547565b602060405180830381865afa15801562003c33573d6000803e3d6000fd5b505050506040513d601f19601f8201168201806040525081019062003c59919062005584565b62003c77576040516309bde33960e01b815260040160405180910390fd5b600062003c85848b6200537a565b905062003cde87826001600160401b031662003ca0620022f8565b62003cac9190620052a0565b6001600160a01b037f00000000000000000000000000000000000000000000000000000000000000001691906200460a565b80608460088282829054906101000a90046001600160401b031662003d04919062005276565b82546101009290920a6001600160401b03818102199093169183160217909155608480547fffffffffffffffff0000000000000000ffffffffffffffffffffffffffffffff16600160801b428416021790558e546040516332c2d15360e01b8152918d166004830152602482018b90523360448301526001600160a01b031691506332c2d15390606401600060405180830381600087803b15801562003da957600080fd5b505af115801562003dbe573d6000803e3d6000fd5b5050505050505050505050505050505050565b60068201546001600160401b03600160c01b909104811690821611158062003e10575060068201546001600160401b03600160801b9091048116908216115b1562003e2f5760405163d086b70b60e01b815260040160405180910390fd5b6001600160401b0381811660008181526004850160209081526040808320805460068901805467ffffffffffffffff60401b1916600160401b92839004909816918202979097178755600280830154828752908a0190945291909320919091556001820154600587015583546001600160c01b0316600160c01b909302929092179092557f00000000000000000000000000000000000000000000000000000000000000006001600160a01b03166333d6247d62003eec6200271e565b6040518263ffffffff1660e01b815260040162003f0b91815260200190565b600060405180830381600087803b15801562003f2657600080fd5b505af115801562003f3b573d6000803e3d6000fd5b505085546001600160a01b0316600090815260826020908152604091829020546002870154600188015484516001600160401b03898116825294810192909252818501529188166060830152915163ffffffff90921693507f581910eb7a27738945c2f00a91f2284b2d6de9d4e472b12f901c2b0df045e21b925081900360800190a250505050565b7f00000000000000000000000000000000000000000000000000000000000000006001600160a01b0316632072f6c56040518163ffffffff1660e01b8152600401600060405180830381600087803b1580156200402057600080fd5b505af115801562004035573d6000803e3d6000fd5b505050506200182162004673565b60008281526034602090815260408083206001600160a01b038516845290915290205460ff16620018825760008281526034602090815260408083206001600160a01b0385168085529252808320805460ff1916600117905551339285917f2f8788117e7eff1d82e926ec794901d17c78024a50270940304540a733656f0d9190a45050565b60008281526034602090815260408083206001600160a01b038516845290915290205460ff1615620018825760008281526034602090815260408083206001600160a01b0385168085529252808320805460ff1916905551339285917ff6391f5c32d9c69d2a47ea670b442974b53935d1edc7fd64eb21e047a839171b9190a45050565b6001600160401b038086166000818152600389016020526040808220549388168252902054606092911580159062004183575081155b15620041a25760405163340c614f60e11b815260040160405180910390fd5b80620041c1576040516366385b5160e01b815260040160405180910390fd5b620041cc84620046d0565b620041ea576040516305dae44f60e21b815260040160405180910390fd5b885460018a01546040516bffffffffffffffffffffffff193360601b16602082015260348101889052605481018590527fffffffffffffffff00000000000000000000000000000000000000000000000060c08c811b82166074840152600160a01b94859004811b8216607c84015293909204831b82166084820152608c810187905260ac810184905260cc81018990529189901b1660ec82015260f401604051602081830303815290604052925050509695505050505050565b6000620042b28362003599565b905081600080620042c484846200537a565b6085546001600160401b039182169250600091620042eb91600160401b9004164262005462565b90505b846001600160401b0316846001600160401b03161462004375576001600160401b0380851660009081526003890160205260409020600181015490911682101562004350576001810154600160401b90046001600160401b031694506200436e565b6200435c86866200537a565b6001600160401b031693505062004375565b50620042ee565b600062004383848462005462565b905083811015620043e157808403600c8111620043a15780620043a4565b600c5b9050806103e80a81608560109054906101000a900461ffff1661ffff160a6086540281620043d657620043d6620053d6565b046086555062004459565b838103600c8111620043f45780620043f7565b600c5b90506000816103e80a82608560109054906101000a900461ffff1661ffff160a670de0b6b3a76400000281620044315762004431620053d6565b04905080608654670de0b6b3a76400000281620044525762004452620053d6565b0460865550505b683635c9adc5dea0000060865411156200448057683635c9adc5dea0000060865562004498565b633b9aca0060865410156200449857633b9aca006086555b5050505050505050565b60068101546001600160401b03600160c01b82048116600160801b90920416111562002f8a576006810154600090620044ed90600160c01b90046001600160401b0316600162005276565b9050620044fb828262003554565b156200188257600682015460009060029062004529908490600160801b90046001600160401b03166200537a565b620045359190620055a8565b62004541908362005276565b90506200454f838262003554565b15620045615762001684838262003dd1565b62001684838362003dd1565b606f5460ff166200459157604051635386698160e01b815260040160405180910390fd5b606f805460ff191690556040517f1e5e34eea33501aecf2ebec9fe0e884a40804275ea7fe10b2ba084c8374308b390600090a1565b60008281526034602090815260408083206001600160a01b038516845290915290205460ff166200188257604051637615be1f60e11b815260040160405180910390fd5b604080516001600160a01b038416602482015260448082018490528251808303909101815260649091019091526020810180517bffffffffffffffffffffffffffffffffffffffffffffffffffffffff1663a9059cbb60e01b1790526200168490849062004756565b606f5460ff16156200469857604051630bc011ff60e21b815260040160405180910390fd5b606f805460ff191660011790556040517f2261efe5aef6fedc1fd1550b25facc9181745623049c7901287030b9ad1a549790600090a1565b600067ffffffff000000016001600160401b03831610801562004707575067ffffffff00000001604083901c6001600160401b0316105b801562004728575067ffffffff00000001608083901c6001600160401b0316105b801562004740575067ffffffff0000000160c083901c105b156200474e57506001919050565b506000919050565b6000620047ad826040518060400160405280602081526020017f5361666545524332303a206c6f772d6c6576656c2063616c6c206661696c6564815250856001600160a01b03166200482f9092919063ffffffff16565b805190915015620016845780806020019051810190620047ce919062005584565b620016845760405162461bcd60e51b815260206004820152602a60248201527f5361666545524332303a204552433230206f7065726174696f6e20646964206e6044820152691bdd081cdd58d8d9595960b21b606482015260840162000ccf565b606062004840848460008562004848565b949350505050565b606082471015620048ab5760405162461bcd60e51b815260206004820152602660248201527f416464726573733a20696e73756666696369656e742062616c616e636520666f6044820152651c8818d85b1b60d21b606482015260840162000ccf565b600080866001600160a01b03168587604051620048c9919062005529565b60006040518083038185875af1925050503d806000811462004908576040519150601f19603f3d011682016040523d82523d6000602084013e6200490d565b606091505b509150915062001f0087838387606083156200498e57825160000362004986576001600160a01b0385163b620049865760405162461bcd60e51b815260206004820152601d60248201527f416464726573733a2063616c6c20746f206e6f6e2d636f6e7472616374000000604482015260640162000ccf565b508162004840565b620048408383815115620049a55781518083602001fd5b8060405162461bcd60e51b815260040162000ccf919062004f40565b61095380620055d283390190565b6001600160a01b038116811462002f8a57600080fd5b80356001600160401b03811681146200360557600080fd5b6000806000806000806000806000806101408b8d03121562004a1e57600080fd5b8a3562004a2b81620049cf565b995062004a3b60208c01620049e5565b985062004a4b60408c01620049e5565b975060608b013562004a5d81620049cf565b965060808b013562004a6f81620049cf565b955060a08b013562004a8181620049cf565b945060c08b013562004a9381620049cf565b935060e08b013562004aa581620049cf565b925062004ab66101008c01620049e5565b915062004ac76101208c01620049e5565b90509295989b9194979a5092959850565b803563ffffffff811681146200360557600080fd5b6000806040838503121562004b0157600080fd5b62004b0c8362004ad8565b915062004b1c60208401620049e5565b90509250929050565b60006020828403121562004b3857600080fd5b620012398262004ad8565b8061030081018310156200123c57600080fd5b6000806000806000806000806103e0898b03121562004b7457600080fd5b62004b7f8962004ad8565b975062004b8f60208a01620049e5565b965062004b9f60408a01620049e5565b955062004baf60608a01620049e5565b945062004bbf60808a01620049e5565b935060a0890135925060c0890135915062004bde8a60e08b0162004b43565b90509295985092959890939650565b6000806000806000806000806103e0898b03121562004c0b57600080fd5b62004c168962004ad8565b975062004c2660208a01620049e5565b965062004c3660408a01620049e5565b955062004c4660608a01620049e5565b94506080890135935060a0890135925060c089013562004c6681620049cf565b915062004bde8a60e08b0162004b43565b60006020828403121562004c8a57600080fd5b813561ffff8116811462004c9d57600080fd5b9392505050565b60006020828403121562004cb757600080fd5b5035919050565b6000806040838503121562004cd257600080fd5b82359150602083013562004ce681620049cf565b809150509250929050565b60006020828403121562004d0457600080fd5b6200123982620049e5565b634e487b7160e01b600052604160045260246000fd5b600082601f83011262004d3757600080fd5b81356001600160401b038082111562004d545762004d5462004d0f565b604051601f8301601f19908116603f0116810190828211818310171562004d7f5762004d7f62004d0f565b8160405283815286602085880101111562004d9957600080fd5b836020870160208301376000602085830101528094505050505092915050565b600080600080600080600060e0888a03121562004dd557600080fd5b62004de08862004ad8565b965062004df060208901620049e5565b9550604088013562004e0281620049cf565b9450606088013562004e1481620049cf565b9350608088013562004e2681620049cf565b925060a08801356001600160401b038082111562004e4357600080fd5b62004e518b838c0162004d25565b935060c08a013591508082111562004e6857600080fd5b5062004e778a828b0162004d25565b91505092959891949750929550565b60008060008060008060c0878903121562004ea057600080fd5b62004eab8762004ad8565b955062004ebb60208801620049e5565b945062004ecb60408801620049e5565b9350606087013592506080870135915060a087013590509295509295509295565b60005b8381101562004f0957818101518382015260200162004eef565b50506000910152565b6000815180845262004f2c81602086016020860162004eec565b601f01601f19169290920160200192915050565b60208152600062001239602083018462004f12565b6000806040838503121562004f6957600080fd5b62004f7483620049e5565b946020939093013593505050565b6000806000806060858703121562004f9957600080fd5b843562004fa681620049cf565b935062004fb66020860162004ad8565b925060408501356001600160401b038082111562004fd357600080fd5b818701915087601f83011262004fe857600080fd5b81358181111562004ff857600080fd5b8860208285010111156200500b57600080fd5b95989497505060200194505050565b6000602082840312156200502d57600080fd5b813562004c9d81620049cf565b803560ff811681146200360557600080fd5b60008060008060008060c087890312156200506657600080fd5b86356200507381620049cf565b955060208701356200508581620049cf565b94506200509560408801620049e5565b9350620050a560608801620049e5565b925060808701359150620050bc60a088016200503a565b90509295509295509295565b60008060008060008060c08789031215620050e257600080fd5b8635620050ef81620049cf565b955060208701356200510181620049cf565b94506200511160408801620049e5565b935062005121606088016200503a565b92506080870135915060a08701356001600160401b038111156200514457600080fd5b6200515289828a0162004d25565b9150509295509295509295565b8054600090600181811c90808316806200517a57607f831692505b602080841082036200519c57634e487b7160e01b600052602260045260246000fd5b83885260208801828015620051ba5760018114620051d157620051fe565b60ff198716825285151560051b82019750620051fe565b60008981526020902060005b87811015620051f857815484820152908601908401620051dd565b83019850505b5050505050505092915050565b60006001600160a01b03808816835280871660208401525060a060408301526200523960a08301866200515f565b82810360608401526200524d81866200515f565b9150508260808301529695505050505050565b634e487b7160e01b600052601160045260246000fd5b6001600160401b0381811683821601908082111562005299576200529962005260565b5092915050565b80820281158282048414176200123c576200123c62005260565b600063ffffffff808316818103620052d657620052d662005260565b6001019392505050565b60006001600160a01b038086168352808516602084015250606060408301526200530e606083018462004f12565b95945050505050565b60006001600160a01b038089168352808816602084015263ffffffff8716604084015280861660608401525060c060808301526200535960c083018562004f12565b82810360a08401526200536d818562004f12565b9998505050505050505050565b6001600160401b0382811682821603908082111562005299576200529962005260565b60006001600160401b03808316818103620052d657620052d662005260565b600060208284031215620053cf57600080fd5b5051919050565b634e487b7160e01b600052601260045260246000fd5b600082620053fe57620053fe620053d6565b500490565b808201808211156200123c576200123c62005260565b634e487b7160e01b600052603260045260246000fd5b60006001820162005444576200544462005260565b5060010190565b6000826200545d576200545d620053d6565b500690565b818103818111156200123c576200123c62005260565b6000816200548a576200548a62005260565b506000190190565b6001600160a01b038416815260406020820152816040820152818360608301376000818301606090810191909152601f909201601f1916010192915050565b60006001600160a01b0380891683528088166020840152506001600160401b038616604083015260ff8516606083015283608083015260c060a08301526200551d60c083018462004f12565b98975050505050505050565b600082516200553d81846020870162004eec565b9190910192915050565b61032081016103008085843782018360005b60018110156200557a57815183526020928301929091019060010162005559565b5050509392505050565b6000602082840312156200559757600080fd5b8151801515811462004c9d57600080fd5b60006001600160401b0380841680620055c557620055c5620053d6565b9216919091049291505056fe60a06040526040516200095338038062000953833981016040819052620000269162000383565b828162000034828262000060565b50506001600160a01b038216608052620000576200005160805190565b620000c6565b50505062000481565b6200006b8262000138565b6040516001600160a01b038316907fbc7cd75a20ee27fd9adebab32041f755214dbc6bffa90cc0225b39da2e5c2d3b90600090a2805115620000b857620000b38282620001b8565b505050565b620000c262000235565b5050565b7f7e644d79422f17c01e4894b5f4f588d331ebfa28653d42ae832dc59e38c9798f6200010860008051602062000933833981519152546001600160a01b031690565b604080516001600160a01b03928316815291841660208301520160405180910390a1620001358162000257565b50565b806001600160a01b03163b6000036200017457604051634c9c8ce360e01b81526001600160a01b03821660048201526024015b60405180910390fd5b807f360894a13ba1a3210667c828492db98dca3e2076cc3735a920a3ca505d382bbc5b80546001600160a01b0319166001600160a01b039290921691909117905550565b6060600080846001600160a01b031684604051620001d7919062000463565b600060405180830381855af49150503d806000811462000214576040519150601f19603f3d011682016040523d82523d6000602084013e62000219565b606091505b5090925090506200022c8583836200029a565b95945050505050565b3415620002555760405163b398979f60e01b815260040160405180910390fd5b565b6001600160a01b0381166200028357604051633173bdd160e11b8152600060048201526024016200016b565b806000805160206200093383398151915262000197565b606082620002b357620002ad8262000300565b620002f9565b8151158015620002cb57506001600160a01b0384163b155b15620002f657604051639996b31560e01b81526001600160a01b03851660048201526024016200016b565b50805b9392505050565b805115620003115780518082602001fd5b604051630a12f52160e11b815260040160405180910390fd5b80516001600160a01b03811681146200034257600080fd5b919050565b634e487b7160e01b600052604160045260246000fd5b60005b838110156200037a57818101518382015260200162000360565b50506000910152565b6000806000606084860312156200039957600080fd5b620003a4846200032a565b9250620003b4602085016200032a565b60408501519092506001600160401b0380821115620003d257600080fd5b818601915086601f830112620003e757600080fd5b815181811115620003fc57620003fc62000347565b604051601f8201601f19908116603f0116810190838211818310171562000427576200042762000347565b816040528281528960208487010111156200044157600080fd5b620004548360208301602088016200035d565b80955050505050509250925092565b60008251620004778184602087016200035d565b9190910192915050565b6080516104976200049c6000396000601001526104976000f3fe608060405261000c61000e565b005b7f00000000000000000000000000000000000000000000000000000000000000006001600160a01b03163303610082576000357fffffffff000000000000000000000000000000000000000000000000000000001663278f794360e11b1461007a57610078610086565b565b610078610096565b6100785b6100786100916100c5565b6100fd565b6000806100a63660048184610322565b8101906100b39190610362565b915091506100c18282610121565b5050565b60006100f87f360894a13ba1a3210667c828492db98dca3e2076cc3735a920a3ca505d382bbc546001600160a01b031690565b905090565b3660008037600080366000845af43d6000803e80801561011c573d6000f35b3d6000fd5b61012a8261017c565b6040516001600160a01b038316907fbc7cd75a20ee27fd9adebab32041f755214dbc6bffa90cc0225b39da2e5c2d3b90600090a28051156101745761016f8282610205565b505050565b6100c161027b565b806001600160a01b03163b6000036101b757604051634c9c8ce360e01b81526001600160a01b03821660048201526024015b60405180910390fd5b7f360894a13ba1a3210667c828492db98dca3e2076cc3735a920a3ca505d382bbc805473ffffffffffffffffffffffffffffffffffffffff19166001600160a01b0392909216919091179055565b6060600080846001600160a01b0316846040516102229190610432565b600060405180830381855af49150503d806000811461025d576040519150601f19603f3d011682016040523d82523d6000602084013e610262565b606091505b509150915061027285838361029a565b95945050505050565b34156100785760405163b398979f60e01b815260040160405180910390fd5b6060826102af576102aa826102f9565b6102f2565b81511580156102c657506001600160a01b0384163b155b156102ef57604051639996b31560e01b81526001600160a01b03851660048201526024016101ae565b50805b9392505050565b8051156103095780518082602001fd5b604051630a12f52160e11b815260040160405180910390fd5b6000808585111561033257600080fd5b8386111561033f57600080fd5b5050820193919092039150565b634e487b7160e01b600052604160045260246000fd5b6000806040838503121561037557600080fd5b82356001600160a01b038116811461038c57600080fd5b9150602083013567ffffffffffffffff808211156103a957600080fd5b818501915085601f8301126103bd57600080fd5b8135818111156103cf576103cf61034c565b604051601f8201601f19908116603f011681019083821181831017156103f7576103f761034c565b8160405282815288602084870101111561041057600080fd5b8260208601602083013760006020848301015280955050505050509250929050565b6000825160005b818110156104535760208186018101518583015201610439565b50600092019182525091905056fea26469706673582212207e447cb5977dac94402c212183a6cca2d1879cfa5205fba47bdc639a0262044064736f6c63430008140033b53127684a568b3173ae13b9f8a6016e243e63b6e8ee1178d6a717850b5d6103a2646970667358221220c09242099d258ed01da703b79f9d3b773f6b5374931d820f5fc0b8b9f40a89fb64736f6c63430008140033",
  "linkReferences": {},
  "deployedLinkReferences": {}
}