{
  "_format": "hh-sol-artifact-1",
  "contractName": "PolygonValidiumExistentEtrog",
  "sourceName": "contracts/v2/consensus/validium/PolygonValidiumExistentEtrog.sol",
  "abi": [
    {
      "inputs": [
        {
          "internalType": "contract IPolygonZkEVMGlobalExitRootV2",
          "name": "_globalExitRootManager",
          "type": "address"
        },
        {
          "internalType": "contract IERC20Upgradeable",
          "name": "_pol",
          "type": "address"
        },
        {
          "internalType": "contract IPolygonZkEVMBridgeV2",
          "name": "_bridgeAddress",
          "type": "address"
        },
        {
          "internalType": "contract PolygonRollupManager",
          "name": "_rollupManager",
          "type": "address"
        }
      ],
      "stateMutability": "nonpayable",
      "type": "constructor"
    },
    {
      "inputs": [],
      "name": "BatchAlreadyVerified",
      "type": "error"
    },
    {
      "inputs": [],
      "name": "BatchNotSequencedOrNotSequenceEnd",
      "type": "error"
    },
    {
      "inputs": [],
      "name": "ExceedMaxVerifyBatches",
      "type": "error"
    },
    {
      "inputs": [],
      "name": "FinalNumBatchBelowLastVerifiedBatch",
      "type": "error"
    },
    {
      "inputs": [],
      "name": "FinalNumBatchDoesNotMatchPendingState",
      "type": "error"
    },
    {
      "inputs": [],
      "name": "FinalPendingStateNumInvalid",
      "type": "error"
    },
    {
      "inputs": [],
      "name": "ForceBatchNotAllowed",
      "type": "error"
    },
    {
      "inputs": [],
      "name": "ForceBatchTimeoutNotExpired",
      "type": "error"
    },
    {
      "inputs": [],
      "name": "ForceBatchesAlreadyActive",
      "type": "error"
    },
    {
      "inputs": [],
      "name": "ForceBatchesDecentralized",
      "type": "error"
    },
    {
      "inputs": [],
      "name": "ForceBatchesNotAllowedOnEmergencyState",
      "type": "error"
    },
    {
      "inputs": [],
      "name": "ForceBatchesOverflow",
      "type": "error"
    },
    {
      "inputs": [],
      "name": "ForcedDataDoesNotMatch",
      "type": "error"
    },
    {
      "inputs": [],
      "name": "GasTokenNetworkMustBeZeroOnEther",
      "type": "error"
    },
    {
      "inputs": [],
      "name": "GlobalExitRootNotExist",
      "type": "error"
    },
    {
      "inputs": [],
      "name": "HaltTimeoutNotExpired",
      "type": "error"
    },
    {
      "inputs": [],
      "name": "HaltTimeoutNotExpiredAfterEmergencyState",
      "type": "error"
    },
    {
      "inputs": [],
      "name": "HugeTokenMetadataNotSupported",
      "type": "error"
    },
    {
      "inputs": [],
      "name": "InitNumBatchAboveLastVerifiedBatch",
      "type": "error"
    },
    {
      "inputs": [],
      "name": "InitNumBatchDoesNotMatchPendingState",
      "type": "error"
    },
    {
      "inputs": [],
      "name": "InitSequencedBatchDoesNotMatch",
      "type": "error"
    },
    {
      "inputs": [],
      "name": "InvalidInitializeTransaction",
      "type": "error"
    },
    {
      "inputs": [],
      "name": "InvalidProof",
      "type": "error"
    },
    {
      "inputs": [],
      "name": "InvalidRangeBatchTimeTarget",
      "type": "error"
    },
    {
      "inputs": [],
      "name": "InvalidRangeForceBatchTimeout",
      "type": "error"
    },
    {
      "inputs": [],
      "name": "InvalidRangeMultiplierBatchFee",
      "type": "error"
    },
    {
      "inputs": [],
      "name": "MaxTimestampSequenceInvalid",
      "type": "error"
    },
    {
      "inputs": [],
      "name": "NewAccInputHashDoesNotExist",
      "type": "error"
    },
    {
      "inputs": [],
      "name": "NewPendingStateTimeoutMustBeLower",
      "type": "error"
    },
    {
      "inputs": [],
      "name": "NewStateRootNotInsidePrime",
      "type": "error"
    },
    {
      "inputs": [],
      "name": "NewTrustedAggregatorTimeoutMustBeLower",
      "type": "error"
    },
    {
      "inputs": [],
      "name": "NotEnoughMaticAmount",
      "type": "error"
    },
    {
      "inputs": [],
      "name": "NotEnoughPOLAmount",
      "type": "error"
    },
    {
      "inputs": [],
      "name": "OldAccInputHashDoesNotExist",
      "type": "error"
    },
    {
      "inputs": [],
      "name": "OldStateRootDoesNotExist",
      "type": "error"
    },
    {
      "inputs": [],
      "name": "OnlyAdmin",
      "type": "error"
    },
    {
      "inputs": [],
      "name": "OnlyPendingAdmin",
      "type": "error"
    },
    {
      "inputs": [],
      "name": "OnlyRollupManager",
      "type": "error"
    },
    {
      "inputs": [],
      "name": "OnlyTrustedAggregator",
      "type": "error"
    },
    {
      "inputs": [],
      "name": "OnlyTrustedSequencer",
      "type": "error"
    },
    {
      "inputs": [],
      "name": "PendingStateDoesNotExist",
      "type": "error"
    },
    {
      "inputs": [],
      "name": "PendingStateInvalid",
      "type": "error"
    },
    {
      "inputs": [],
      "name": "PendingStateNotConsolidable",
      "type": "error"
    },
    {
      "inputs": [],
      "name": "PendingStateTimeoutExceedHaltAggregationTimeout",
      "type": "error"
    },
    {
      "inputs": [],
      "name": "SequenceWithDataAvailabilityNotAllowed",
      "type": "error"
    },
    {
      "inputs": [],
      "name": "SequenceZeroBatches",
      "type": "error"
    },
    {
      "inputs": [],
      "name": "SequencedTimestampBelowForcedTimestamp",
      "type": "error"
    },
    {
      "inputs": [],
      "name": "SequencedTimestampInvalid",
      "type": "error"
    },
    {
      "inputs": [],
      "name": "StoredRootMustBeDifferentThanNewRoot",
      "type": "error"
    },
    {
      "inputs": [],
      "name": "SwitchToSameValue",
      "type": "error"
    },
    {
      "inputs": [],
      "name": "TransactionsLengthAboveMax",
      "type": "error"
    },
    {
      "inputs": [],
      "name": "TrustedAggregatorTimeoutExceedHaltAggregationTimeout",
      "type": "error"
    },
    {
      "inputs": [],
      "name": "TrustedAggregatorTimeoutNotExpired",
      "type": "error"
    },
    {
      "anonymous": false,
      "inputs": [
        {
          "indexed": false,
          "internalType": "address",
          "name": "newAdmin",
          "type": "address"
        }
      ],
      "name": "AcceptAdminRole",
      "type": "event"
    },
    {
      "anonymous": false,
      "inputs": [
        {
          "indexed": true,
          "internalType": "uint64",
          "name": "forceBatchNum",
          "type": "uint64"
        },
        {
          "indexed": false,
          "internalType": "bytes32",
          "name": "lastGlobalExitRoot",
          "type": "bytes32"
        },
        {
          "indexed": false,
          "internalType": "address",
          "name": "sequencer",
          "type": "address"
        },
        {
          "indexed": false,
          "internalType": "bytes",
          "name": "transactions",
          "type": "bytes"
        }
      ],
      "name": "ForceBatch",
      "type": "event"
    },
    {
      "anonymous": false,
      "inputs": [
        {
          "indexed": false,
          "internalType": "bytes",
          "name": "transactions",
          "type": "bytes"
        },
        {
          "indexed": false,
          "internalType": "bytes32",
          "name": "lastGlobalExitRoot",
          "type": "bytes32"
        },
        {
          "indexed": false,
          "internalType": "address",
          "name": "sequencer",
          "type": "address"
        }
      ],
      "name": "InitialSequenceBatches",
      "type": "event"
    },
    {
      "anonymous": false,
      "inputs": [
        {
          "indexed": false,
          "internalType": "uint8",
          "name": "version",
          "type": "uint8"
        }
      ],
      "name": "Initialized",
      "type": "event"
    },
    {
      "anonymous": false,
      "inputs": [
        {
          "indexed": true,
          "internalType": "uint64",
          "name": "numBatch",
          "type": "uint64"
        },
        {
          "indexed": false,
          "internalType": "bytes32",
          "name": "l1InfoRoot",
          "type": "bytes32"
        }
      ],
      "name": "SequenceBatches",
      "type": "event"
    },
    {
      "anonymous": false,
      "inputs": [
        {
          "indexed": true,
          "internalType": "uint64",
          "name": "numBatch",
          "type": "uint64"
        }
      ],
      "name": "SequenceForceBatches",
      "type": "event"
    },
    {
      "anonymous": false,
      "inputs": [
        {
          "indexed": false,
          "internalType": "address",
          "name": "newDataAvailabilityProtocol",
          "type": "address"
        }
      ],
      "name": "SetDataAvailabilityProtocol",
      "type": "event"
    },
    {
      "anonymous": false,
      "inputs": [
        {
          "indexed": false,
          "internalType": "address",
          "name": "newForceBatchAddress",
          "type": "address"
        }
      ],
      "name": "SetForceBatchAddress",
      "type": "event"
    },
    {
      "anonymous": false,
      "inputs": [
        {
          "indexed": false,
          "internalType": "uint64",
          "name": "newforceBatchTimeout",
          "type": "uint64"
        }
      ],
      "name": "SetForceBatchTimeout",
      "type": "event"
    },
    {
      "anonymous": false,
      "inputs": [
        {
          "indexed": false,
          "internalType": "address",
          "name": "newTrustedSequencer",
          "type": "address"
        }
      ],
      "name": "SetTrustedSequencer",
      "type": "event"
    },
    {
      "anonymous": false,
      "inputs": [
        {
          "indexed": false,
          "internalType": "string",
          "name": "newTrustedSequencerURL",
          "type": "string"
        }
      ],
      "name": "SetTrustedSequencerURL",
      "type": "event"
    },
    {
      "anonymous": false,
      "inputs": [],
      "name": "SwitchSequenceWithDataAvailability",
      "type": "event"
    },
    {
      "anonymous": false,
      "inputs": [
        {
          "indexed": false,
          "internalType": "address",
          "name": "newPendingAdmin",
          "type": "address"
        }
      ],
      "name": "TransferAdminRole",
      "type": "event"
    },
    {
      "anonymous": false,
      "inputs": [
        {
          "indexed": false,
          "internalType": "uint64",
          "name": "numBatch",
          "type": "uint64"
        },
        {
          "indexed": false,
          "internalType": "bytes",
          "name": "transactions",
          "type": "bytes"
        },
        {
          "indexed": false,
          "internalType": "bytes32",
          "name": "lastGlobalExitRoot",
          "type": "bytes32"
        },
        {
          "indexed": false,
          "internalType": "address",
          "name": "sequencer",
          "type": "address"
        }
      ],
      "name": "UpdateEtrogSequence",
      "type": "event"
    },
    {
      "anonymous": false,
      "inputs": [
        {
          "indexed": true,
          "internalType": "uint64",
          "name": "numBatch",
          "type": "uint64"
        },
        {
          "indexed": false,
          "internalType": "bytes32",
          "name": "stateRoot",
          "type": "bytes32"
        },
        {
          "indexed": true,
          "internalType": "address",
          "name": "aggregator",
          "type": "address"
        }
      ],
      "name": "VerifyBatches",
      "type": "event"
    },
    {
      "inputs": [],
      "name": "GLOBAL_EXIT_ROOT_MANAGER_L2",
      "outputs": [
        {
          "internalType": "contract IBasePolygonZkEVMGlobalExitRoot",
          "name": "",
          "type": "address"
        }
      ],
      "stateMutability": "view",
      "type": "function"
    },
    {
      "inputs": [],
      "name": "INITIALIZE_TX_BRIDGE_LIST_LEN_LEN",
      "outputs": [
        {
          "internalType": "uint8",
          "name": "",
          "type": "uint8"
        }
      ],
      "stateMutability": "view",
      "type": "function"
    },
    {
      "inputs": [],
      "name": "INITIALIZE_TX_BRIDGE_PARAMS",
      "outputs": [
        {
          "internalType": "bytes",
          "name": "",
          "type": "bytes"
        }
      ],
      "stateMutability": "view",
      "type": "function"
    },
    {
      "inputs": [],
      "name": "INITIALIZE_TX_BRIDGE_PARAMS_AFTER_BRIDGE_ADDRESS",
      "outputs": [
        {
          "internalType": "bytes",
          "name": "",
          "type": "bytes"
        }
      ],
      "stateMutability": "view",
      "type": "function"
    },
    {
      "inputs": [],
      "name": "INITIALIZE_TX_BRIDGE_PARAMS_AFTER_BRIDGE_ADDRESS_EMPTY_METADATA",
      "outputs": [
        {
          "internalType": "bytes",
          "name": "",
          "type": "bytes"
        }
      ],
      "stateMutability": "view",
      "type": "function"
    },
    {
      "inputs": [],
      "name": "INITIALIZE_TX_CONSTANT_BYTES",
      "outputs": [
        {
          "internalType": "uint16",
          "name": "",
          "type": "uint16"
        }
      ],
      "stateMutability": "view",
      "type": "function"
    },
    {
      "inputs": [],
      "name": "INITIALIZE_TX_CONSTANT_BYTES_EMPTY_METADATA",
      "outputs": [
        {
          "internalType": "uint16",
          "name": "",
          "type": "uint16"
        }
      ],
      "stateMutability": "view",
      "type": "function"
    },
    {
      "inputs": [],
      "name": "INITIALIZE_TX_DATA_LEN_EMPTY_METADATA",
      "outputs": [
        {
          "internalType": "uint8",
          "name": "",
          "type": "uint8"
        }
      ],
      "stateMutability": "view",
      "type": "function"
    },
    {
      "inputs": [],
      "name": "INITIALIZE_TX_EFFECTIVE_PERCENTAGE",
      "outputs": [
        {
          "internalType": "bytes1",
          "name": "",
          "type": "bytes1"
        }
      ],
      "stateMutability": "view",
      "type": "function"
    },
    {
      "inputs": [],
      "name": "SET_UP_ETROG_TX",
      "outputs": [
        {
          "internalType": "bytes",
          "name": "",
          "type": "bytes"
        }
      ],
      "stateMutability": "view",
      "type": "function"
    },
    {
      "inputs": [],
      "name": "SIGNATURE_INITIALIZE_TX_R",
      "outputs": [
        {
          "internalType": "bytes32",
          "name": "",
          "type": "bytes32"
        }
      ],
      "stateMutability": "view",
      "type": "function"
    },
    {
      "inputs": [],
      "name": "SIGNATURE_INITIALIZE_TX_S",
      "outputs": [
        {
          "internalType": "bytes32",
          "name": "",
          "type": "bytes32"
        }
      ],
      "stateMutability": "view",
      "type": "function"
    },
    {
      "inputs": [],
      "name": "SIGNATURE_INITIALIZE_TX_V",
      "outputs": [
        {
          "internalType": "uint8",
          "name": "",
          "type": "uint8"
        }
      ],
      "stateMutability": "view",
      "type": "function"
    },
    {
      "inputs": [],
      "name": "TIMESTAMP_RANGE",
      "outputs": [
        {
          "internalType": "uint256",
          "name": "",
          "type": "uint256"
        }
      ],
      "stateMutability": "view",
      "type": "function"
    },
    {
      "inputs": [],
      "name": "acceptAdminRole",
      "outputs": [],
      "stateMutability": "nonpayable",
      "type": "function"
    },
    {
      "inputs": [],
      "name": "admin",
      "outputs": [
        {
          "internalType": "address",
          "name": "",
          "type": "address"
        }
      ],
      "stateMutability": "view",
      "type": "function"
    },
    {
      "inputs": [],
      "name": "bridgeAddress",
      "outputs": [
        {
          "internalType": "contract IPolygonZkEVMBridgeV2",
          "name": "",
          "type": "address"
        }
      ],
      "stateMutability": "view",
      "type": "function"
    },
    {
      "inputs": [],
      "name": "calculatePolPerForceBatch",
      "outputs": [
        {
          "internalType": "uint256",
          "name": "",
          "type": "uint256"
        }
      ],
      "stateMutability": "view",
      "type": "function"
    },
    {
      "inputs": [],
      "name": "dataAvailabilityProtocol",
      "outputs": [
        {
          "internalType": "contract IDataAvailabilityProtocol",
          "name": "",
          "type": "address"
        }
      ],
      "stateMutability": "view",
      "type": "function"
    },
    {
      "inputs": [
        {
          "internalType": "bytes",
          "name": "transactions",
          "type": "bytes"
        },
        {
          "internalType": "uint256",
          "name": "polAmount",
          "type": "uint256"
        }
      ],
      "name": "forceBatch",
      "outputs": [],
      "stateMutability": "nonpayable",
      "type": "function"
    },
    {
      "inputs": [],
      "name": "forceBatchAddress",
      "outputs": [
        {
          "internalType": "address",
          "name": "",
          "type": "address"
        }
      ],
      "stateMutability": "view",
      "type": "function"
    },
    {
      "inputs": [],
      "name": "forceBatchTimeout",
      "outputs": [
        {
          "internalType": "uint64",
          "name": "",
          "type": "uint64"
        }
      ],
      "stateMutability": "view",
      "type": "function"
    },
    {
      "inputs": [
        {
          "internalType": "uint64",
          "name": "",
          "type": "uint64"
        }
      ],
      "name": "forcedBatches",
      "outputs": [
        {
          "internalType": "bytes32",
          "name": "",
          "type": "bytes32"
        }
      ],
      "stateMutability": "view",
      "type": "function"
    },
    {
      "inputs": [],
      "name": "gasTokenAddress",
      "outputs": [
        {
          "internalType": "address",
          "name": "",
          "type": "address"
        }
      ],
      "stateMutability": "view",
      "type": "function"
    },
    {
      "inputs": [],
      "name": "gasTokenNetwork",
      "outputs": [
        {
          "internalType": "uint32",
          "name": "",
          "type": "uint32"
        }
      ],
      "stateMutability": "view",
      "type": "function"
    },
    {
      "inputs": [
        {
          "internalType": "uint32",
          "name": "networkID",
          "type": "uint32"
        },
        {
          "internalType": "address",
          "name": "_gasTokenAddress",
          "type": "address"
        },
        {
          "internalType": "uint32",
          "name": "_gasTokenNetwork",
          "type": "uint32"
        },
        {
          "internalType": "bytes",
          "name": "_gasTokenMetadata",
          "type": "bytes"
        }
      ],
      "name": "generateInitializeTransaction",
      "outputs": [
        {
          "internalType": "bytes",
          "name": "",
          "type": "bytes"
        }
      ],
      "stateMutability": "view",
      "type": "function"
    },
    {
      "inputs": [],
      "name": "globalExitRootManager",
      "outputs": [
        {
          "internalType": "contract IPolygonZkEVMGlobalExitRootV2",
          "name": "",
          "type": "address"
        }
      ],
      "stateMutability": "view",
      "type": "function"
    },
    {
      "inputs": [
        {
          "internalType": "address",
          "name": "_admin",
          "type": "address"
        },
        {
          "internalType": "address",
          "name": "sequencer",
          "type": "address"
        },
        {
          "internalType": "uint32",
          "name": "networkID",
          "type": "uint32"
        },
        {
          "internalType": "address",
          "name": "_gasTokenAddress",
          "type": "address"
        },
        {
          "internalType": "string",
          "name": "sequencerURL",
          "type": "string"
        },
        {
          "internalType": "string",
          "name": "_networkName",
          "type": "string"
        }
      ],
      "name": "initialize",
      "outputs": [],
      "stateMutability": "nonpayable",
      "type": "function"
    },
    {
      "inputs": [
        {
          "internalType": "address",
          "name": "_admin",
          "type": "address"
        },
        {
          "internalType": "address",
          "name": "_trustedSequencer",
          "type": "address"
        },
        {
          "internalType": "string",
          "name": "_trustedSequencerURL",
          "type": "string"
        },
        {
          "internalType": "string",
          "name": "_networkName",
          "type": "string"
        },
        {
          "internalType": "bytes32",
          "name": "_lastAccInputHash",
          "type": "bytes32"
        }
      ],
      "name": "initializeUpgrade",
      "outputs": [],
      "stateMutability": "nonpayable",
      "type": "function"
    },
    {
      "inputs": [],
      "name": "isSequenceWithDataAvailabilityAllowed",
      "outputs": [
        {
          "internalType": "bool",
          "name": "",
          "type": "bool"
        }
      ],
      "stateMutability": "view",
      "type": "function"
    },
    {
      "inputs": [],
      "name": "lastAccInputHash",
      "outputs": [
        {
          "internalType": "bytes32",
          "name": "",
          "type": "bytes32"
        }
      ],
      "stateMutability": "view",
      "type": "function"
    },
    {
      "inputs": [],
      "name": "lastForceBatch",
      "outputs": [
        {
          "internalType": "uint64",
          "name": "",
          "type": "uint64"
        }
      ],
      "stateMutability": "view",
      "type": "function"
    },
    {
      "inputs": [],
      "name": "lastForceBatchSequenced",
      "outputs": [
        {
          "internalType": "uint64",
          "name": "",
          "type": "uint64"
        }
      ],
      "stateMutability": "view",
      "type": "function"
    },
    {
      "inputs": [],
      "name": "networkName",
      "outputs": [
        {
          "internalType": "string",
          "name": "",
          "type": "string"
        }
      ],
      "stateMutability": "view",
      "type": "function"
    },
    {
      "inputs": [
        {
          "internalType": "uint64",
          "name": "lastVerifiedBatch",
          "type": "uint64"
        },
        {
          "internalType": "bytes32",
          "name": "newStateRoot",
          "type": "bytes32"
        },
        {
          "internalType": "address",
          "name": "aggregator",
          "type": "address"
        }
      ],
      "name": "onVerifyBatches",
      "outputs": [],
      "stateMutability": "nonpayable",
      "type": "function"
    },
    {
      "inputs": [],
      "name": "pendingAdmin",
      "outputs": [
        {
          "internalType": "address",
          "name": "",
          "type": "address"
        }
      ],
      "stateMutability": "view",
      "type": "function"
    },
    {
      "inputs": [],
      "name": "pol",
      "outputs": [
        {
          "internalType": "contract IERC20Upgradeable",
          "name": "",
          "type": "address"
        }
      ],
      "stateMutability": "view",
      "type": "function"
    },
    {
      "inputs": [],
      "name": "rollupManager",
      "outputs": [
        {
          "internalType": "contract PolygonRollupManager",
          "name": "",
          "type": "address"
        }
      ],
      "stateMutability": "view",
      "type": "function"
    },
    {
      "inputs": [
        {
          "components": [
            {
              "internalType": "bytes",
              "name": "transactions",
              "type": "bytes"
            },
            {
              "internalType": "bytes32",
              "name": "forcedGlobalExitRoot",
              "type": "bytes32"
            },
            {
              "internalType": "uint64",
              "name": "forcedTimestamp",
              "type": "uint64"
            },
            {
              "internalType": "bytes32",
              "name": "forcedBlockHashL1",
              "type": "bytes32"
            }
          ],
          "internalType": "struct PolygonRollupBaseEtrog.BatchData[]",
          "name": "batches",
          "type": "tuple[]"
        },
        {
          "internalType": "uint64",
          "name": "maxSequenceTimestamp",
          "type": "uint64"
        },
        {
          "internalType": "uint64",
          "name": "initSequencedBatch",
          "type": "uint64"
        },
        {
          "internalType": "address",
          "name": "l2Coinbase",
          "type": "address"
        }
      ],
      "name": "sequenceBatches",
      "outputs": [],
      "stateMutability": "nonpayable",
      "type": "function"
    },
    {
      "inputs": [
        {
          "components": [
            {
              "internalType": "bytes32",
              "name": "transactionsHash",
              "type": "bytes32"
            },
            {
              "internalType": "bytes32",
              "name": "forcedGlobalExitRoot",
              "type": "bytes32"
            },
            {
              "internalType": "uint64",
              "name": "forcedTimestamp",
              "type": "uint64"
            },
            {
              "internalType": "bytes32",
              "name": "forcedBlockHashL1",
              "type": "bytes32"
            }
          ],
          "internalType": "struct PolygonValidiumExistentEtrog.ValidiumBatchData[]",
          "name": "batches",
          "type": "tuple[]"
        },
        {
          "internalType": "uint64",
          "name": "maxSequenceTimestamp",
          "type": "uint64"
        },
        {
          "internalType": "uint64",
          "name": "initSequencedBatch",
          "type": "uint64"
        },
        {
          "internalType": "address",
          "name": "l2Coinbase",
          "type": "address"
        },
        {
          "internalType": "bytes",
          "name": "dataAvailabilityMessage",
          "type": "bytes"
        }
      ],
      "name": "sequenceBatchesValidium",
      "outputs": [],
      "stateMutability": "nonpayable",
      "type": "function"
    },
    {
      "inputs": [
        {
          "components": [
            {
              "internalType": "bytes",
              "name": "transactions",
              "type": "bytes"
            },
            {
              "internalType": "bytes32",
              "name": "forcedGlobalExitRoot",
              "type": "bytes32"
            },
            {
              "internalType": "uint64",
              "name": "forcedTimestamp",
              "type": "uint64"
            },
            {
              "internalType": "bytes32",
              "name": "forcedBlockHashL1",
              "type": "bytes32"
            }
          ],
          "internalType": "struct PolygonRollupBaseEtrog.BatchData[]",
          "name": "batches",
          "type": "tuple[]"
        }
      ],
      "name": "sequenceForceBatches",
      "outputs": [],
      "stateMutability": "nonpayable",
      "type": "function"
    },
    {
      "inputs": [
        {
          "internalType": "contract IDataAvailabilityProtocol",
          "name": "newDataAvailabilityProtocol",
          "type": "address"
        }
      ],
      "name": "setDataAvailabilityProtocol",
      "outputs": [],
      "stateMutability": "nonpayable",
      "type": "function"
    },
    {
      "inputs": [
        {
          "internalType": "address",
          "name": "newForceBatchAddress",
          "type": "address"
        }
      ],
      "name": "setForceBatchAddress",
      "outputs": [],
      "stateMutability": "nonpayable",
      "type": "function"
    },
    {
      "inputs": [
        {
          "internalType": "uint64",
          "name": "newforceBatchTimeout",
          "type": "uint64"
        }
      ],
      "name": "setForceBatchTimeout",
      "outputs": [],
      "stateMutability": "nonpayable",
      "type": "function"
    },
    {
      "inputs": [
        {
          "internalType": "address",
          "name": "newTrustedSequencer",
          "type": "address"
        }
      ],
      "name": "setTrustedSequencer",
      "outputs": [],
      "stateMutability": "nonpayable",
      "type": "function"
    },
    {
      "inputs": [
        {
          "internalType": "string",
          "name": "newTrustedSequencerURL",
          "type": "string"
        }
      ],
      "name": "setTrustedSequencerURL",
      "outputs": [],
      "stateMutability": "nonpayable",
      "type": "function"
    },
    {
      "inputs": [
        {
          "internalType": "bool",
          "name": "newIsSequenceWithDataAvailabilityAllowed",
          "type": "bool"
        }
      ],
      "name": "switchSequenceWithDataAvailability",
      "outputs": [],
      "stateMutability": "nonpayable",
      "type": "function"
    },
    {
      "inputs": [
        {
          "internalType": "address",
          "name": "newPendingAdmin",
          "type": "address"
        }
      ],
      "name": "transferAdminRole",
      "outputs": [],
      "stateMutability": "nonpayable",
      "type": "function"
    },
    {
      "inputs": [],
      "name": "trustedSequencer",
      "outputs": [
        {
          "internalType": "address",
          "name": "",
          "type": "address"
        }
      ],
      "stateMutability": "view",
      "type": "function"
    },
    {
      "inputs": [],
      "name": "trustedSequencerURL",
      "outputs": [
        {
          "internalType": "string",
          "name": "",
          "type": "string"
        }
      ],
      "stateMutability": "view",
      "type": "function"
    }
  ],
  "bytecode": "0x6101006040523480156200001257600080fd5b506040516200593638038062005936833981016040819052620000359162000071565b6001600160a01b0393841660a052918316608052821660c0521660e052620000d9565b6001600160a01b03811681146200006e57600080fd5b50565b600080600080608085870312156200008857600080fd5b8451620000958162000058565b6020860151909450620000a88162000058565b6040860151909350620000bb8162000058565b6060860151909250620000ce8162000058565b939692955090935050565b60805160a05160c05160e051615735620002016000396000818161056301528181610b8701528181610cf401528181610e75015281816111cc015281816114d601528181611ab7015281816120250152818161247c01528181612572015281816131920152818161321101528181613233015281816133d6015281816135e4015281816136ac01528181614157015281816141d0015281816141f2015261429d015260008181610718015281816116ca015281816117a4015281816127430152818161284b01528181612cb90152613c940152600081816107dc0152818161103d0152818161192b01528181612d3b015281816137f70152613d1601526000818161083401528181610913015281816124c5015281816132e101526137cb01526157356000f3fe608060405234801561001057600080fd5b50600436106103355760003560e01c80637a5460c5116101b2578063c7fffd4b116100f9578063def57e54116100a2578063e7a7ed021161007c578063e7a7ed0214610876578063eaeb077b1461088a578063f35dda471461089d578063f851a440146108a557600080fd5b8063def57e541461081c578063e46761c41461082f578063e57a0b4c1461085657600080fd5b8063d02103ca116100d3578063d02103ca146107d7578063d7bc90ff146107fe578063db5b0ed71461080957600080fd5b8063c7fffd4b1461079c578063c89e42df146107a4578063cfa8ed47146107b757600080fd5b8063a3c573eb1161015b578063af7f3e0211610135578063af7f3e0214610760578063b0afe15414610768578063c754c7ed1461077457600080fd5b8063a3c573eb14610713578063a652f26c1461073a578063ada8f9191461074d57600080fd5b806391cafe321161018c57806391cafe32146106d25780639e001877146106e55780639f26f8401461070057600080fd5b80637a5460c51461067b5780637cd76b8b146106b75780638c3d7301146106ca57600080fd5b806342308fab11610281578063542028d51161022a5780636b8616ce116102045780636b8616ce1461062c5780636e05d2cd1461064c5780636ff512cc14610655578063712570221461066857600080fd5b8063542028d5146106095780635d6717a514610611578063676870d21461062457600080fd5b80634c21fef31161025b5780634c21fef3146105855780634e487706146105ba57806352bdeb6d146105cd57600080fd5b806342308fab1461051d578063456052671461052557806349b7b8021461055e57600080fd5b80632acdc2b6116102e35780633c351e10116102bd5780633c351e10146104685780633cbc795b1461048857806340b5de6c146104c557600080fd5b80632acdc2b6146104205780632c111c061461043557806332c2d1531461045557600080fd5b8063107bf28c11610314578063107bf28c146103b957806311e892d4146103c157806326782247146103db57600080fd5b8062d0295d1461033a578063035089631461035557806305835f3714610370575b600080fd5b6103426108cb565b6040519081526020015b60405180910390f35b61035d602081565b60405161ffff909116815260200161034c565b6103ac6040518060400160405280600881526020017f80808401c9c3809400000000000000000000000000000000000000000000000081525081565b60405161034c91906146b4565b6103ac6109d7565b6103c960f981565b60405160ff909116815260200161034c565b6001546103fb9073ffffffffffffffffffffffffffffffffffffffff1681565b60405173ffffffffffffffffffffffffffffffffffffffff909116815260200161034c565b61043361042e3660046146df565b610a65565b005b6008546103fb9073ffffffffffffffffffffffffffffffffffffffff1681565b61043361046336600461474f565b610b85565b6009546103fb9073ffffffffffffffffffffffffffffffffffffffff1681565b6009546104b09074010000000000000000000000000000000000000000900463ffffffff1681565b60405163ffffffff909116815260200161034c565b6104ec7fff0000000000000000000000000000000000000000000000000000000000000081565b6040517fff00000000000000000000000000000000000000000000000000000000000000909116815260200161034c565b610342602481565b6007546105459068010000000000000000900467ffffffffffffffff1681565b60405167ffffffffffffffff909116815260200161034c565b6103fb7f000000000000000000000000000000000000000000000000000000000000000081565b603c546105aa9074010000000000000000000000000000000000000000900460ff1681565b604051901515815260200161034c565b6104336105c8366004614791565b610c54565b6103ac6040518060400160405280600281526020017f80b800000000000000000000000000000000000000000000000000000000000081525081565b6103ac610e66565b61043361061f3660046148f1565b610e73565b61035d601f81565b61034261063a366004614791565b60066020526000908152604090205481565b61034260055481565b610433610663366004614982565b61140a565b6104336106763660046149b1565b6114d4565b6103ac6040518060400160405280600281526020017f80b900000000000000000000000000000000000000000000000000000000000081525081565b6104336106c5366004614982565b611cf3565b610433611dbd565b6104336106e0366004614982565b611e90565b6103fb73a40d5f56745a118d0906a34e69aec8c0db1cb8fa81565b61043361070e366004614aaa565b611fa9565b6103fb7f000000000000000000000000000000000000000000000000000000000000000081565b6103ac610748366004614aec565b612642565b61043361075b366004614982565b612a27565b6103ac612af1565b6103426405ca1ab1e081565b60075461054590700100000000000000000000000000000000900467ffffffffffffffff1681565b6103c960e481565b6104336107b2366004614b61565b612b0d565b6002546103fb9073ffffffffffffffffffffffffffffffffffffffff1681565b6103fb7f000000000000000000000000000000000000000000000000000000000000000081565b610342635ca1ab1e81565b610433610817366004614bd8565b612ba0565b61043361082a366004614cab565b613505565b6103fb7f000000000000000000000000000000000000000000000000000000000000000081565b603c546103fb9073ffffffffffffffffffffffffffffffffffffffff1681565b6007546105459067ffffffffffffffff1681565b610433610898366004614d28565b61356d565b6103c9601b81565b6000546103fb9062010000900473ffffffffffffffffffffffffffffffffffffffff1681565b6040517f70a08231000000000000000000000000000000000000000000000000000000008152306004820152600090819073ffffffffffffffffffffffffffffffffffffffff7f000000000000000000000000000000000000000000000000000000000000000016906370a0823190602401602060405180830381865afa15801561095a573d6000803e3d6000fd5b505050506040513d601f19601f8201168201806040525081019061097e9190614d74565b6007549091506000906109a99067ffffffffffffffff68010000000000000000820481169116614dbc565b67ffffffffffffffff169050806000036109c65760009250505090565b6109d08183614de4565b9250505090565b600480546109e490614e1f565b80601f0160208091040260200160405190810160405280929190818152602001828054610a1090614e1f565b8015610a5d5780601f10610a3257610100808354040283529160200191610a5d565b820191906000526020600020905b815481529060010190602001808311610a4057829003601f168201915b505050505081565b60005462010000900473ffffffffffffffffffffffffffffffffffffffff163314610abc576040517f4755657900000000000000000000000000000000000000000000000000000000815260040160405180910390fd5b603c5474010000000000000000000000000000000000000000900460ff16151581151503610b16576040517f5f0e7abe00000000000000000000000000000000000000000000000000000000815260040160405180910390fd5b603c80547fffffffffffffffffffffff00ffffffffffffffffffffffffffffffffffffffff1674010000000000000000000000000000000000000000831515021790556040517ff32a0473f809a720a4f8af1e50d353f1caf7452030626fdaac4273f5e6587f4190600090a150565b7f000000000000000000000000000000000000000000000000000000000000000073ffffffffffffffffffffffffffffffffffffffff163314610bf4576040517fb9b3a2c800000000000000000000000000000000000000000000000000000000815260040160405180910390fd5b8073ffffffffffffffffffffffffffffffffffffffff168367ffffffffffffffff167f9c72852172521097ba7e1482e6b44b351323df0155f97f4ea18fcec28e1f596684604051610c4791815260200190565b60405180910390a3505050565b60005462010000900473ffffffffffffffffffffffffffffffffffffffff163314610cab576040517f4755657900000000000000000000000000000000000000000000000000000000815260040160405180910390fd5b62093a8067ffffffffffffffff82161115610cf2576040517ff5e37f2f00000000000000000000000000000000000000000000000000000000815260040160405180910390fd5b7f000000000000000000000000000000000000000000000000000000000000000073ffffffffffffffffffffffffffffffffffffffff166315064c966040518163ffffffff1660e01b8152600401602060405180830381865afa158015610d5d573d6000803e3d6000fd5b505050506040513d601f19601f82011682018060405250810190610d819190614e72565b610de25760075467ffffffffffffffff700100000000000000000000000000000000909104811690821610610de2576040517ff5e37f2f00000000000000000000000000000000000000000000000000000000815260040160405180910390fd5b600780547fffffffffffffffff0000000000000000ffffffffffffffffffffffffffffffff1670010000000000000000000000000000000067ffffffffffffffff8416908102919091179091556040519081527fa7eb6cb8a613eb4e8bddc1ac3d61ec6cf10898760f0b187bcca794c6ca6fa40b906020015b60405180910390a150565b600380546109e490614e1f565b7f000000000000000000000000000000000000000000000000000000000000000073ffffffffffffffffffffffffffffffffffffffff163314610ee2576040517fb9b3a2c800000000000000000000000000000000000000000000000000000000815260040160405180910390fd5b600054610100900460ff1615808015610f025750600054600160ff909116105b80610f1c5750303b158015610f1c575060005460ff166001145b610fad576040517f08c379a000000000000000000000000000000000000000000000000000000000815260206004820152602e60248201527f496e697469616c697a61626c653a20636f6e747261637420697320616c72656160448201527f647920696e697469616c697a656400000000000000000000000000000000000060648201526084015b60405180910390fd5b600080547fffffffffffffffffffffffffffffffffffffffffffffffffffffffffffffff00166001179055801561100b57600080547fffffffffffffffffffffffffffffffffffffffffffffffffffffffffffff00ff166101001790555b60006040518060a001604052806062815260200161569e606291399050600081805190602001209050600042905060007f000000000000000000000000000000000000000000000000000000000000000073ffffffffffffffffffffffffffffffffffffffff16633ed691ef6040518163ffffffff1660e01b8152600401602060405180830381865afa1580156110a6573d6000803e3d6000fd5b505050506040513d601f19601f820116820180604052508101906110ca9190614d74565b90506000868483858d6110de600143614e8f565b60408051602081019790975286019490945260608086019390935260c09190911b7fffffffffffffffff000000000000000000000000000000000000000000000000166080850152901b7fffffffffffffffffffffffffffffffffffffffff00000000000000000000000016608883015240609c82015260bc01604080518083037fffffffffffffffffffffffffffffffffffffffffffffffffffffffffffffffe001815290829052805160209091012060058190557f9a908e73000000000000000000000000000000000000000000000000000000008252600160048301526024820181905291506000907f000000000000000000000000000000000000000000000000000000000000000073ffffffffffffffffffffffffffffffffffffffff1690639a908e73906044016020604051808303816000875af115801561122a573d6000803e3d6000fd5b505050506040513d601f19601f8201168201806040525081019061124e9190614ea8565b90508b600060026101000a81548173ffffffffffffffffffffffffffffffffffffffff021916908373ffffffffffffffffffffffffffffffffffffffff1602179055508a600260006101000a81548173ffffffffffffffffffffffffffffffffffffffff021916908373ffffffffffffffffffffffffffffffffffffffff16021790555089600390816112e19190614f0b565b5060046112ee8a82614f0b565b508b600860006101000a81548173ffffffffffffffffffffffffffffffffffffffff021916908373ffffffffffffffffffffffffffffffffffffffff16021790555062069780600760106101000a81548167ffffffffffffffff021916908367ffffffffffffffff1602179055507fd2c80353fc15ef62c6affc7cd6b7ab5b42c43290c50be3372e55ae552cecd19c8187858e6040516113919493929190615025565b60405180910390a1505050505050801561140257600080547fffffffffffffffffffffffffffffffffffffffffffffffffffffffffffff00ff169055604051600181527f7f26b83ff96e1f2b6a682f133852f6798a09c465da95921460cefb38474024989060200160405180910390a15b505050505050565b60005462010000900473ffffffffffffffffffffffffffffffffffffffff163314611461576040517f4755657900000000000000000000000000000000000000000000000000000000815260040160405180910390fd5b600280547fffffffffffffffffffffffff00000000000000000000000000000000000000001673ffffffffffffffffffffffffffffffffffffffff83169081179091556040519081527ff54144f9611984021529f814a1cb6a41e22c58351510a0d9f7e822618abb9cc090602001610e5b565b7f000000000000000000000000000000000000000000000000000000000000000073ffffffffffffffffffffffffffffffffffffffff163314611543576040517fb9b3a2c800000000000000000000000000000000000000000000000000000000815260040160405180910390fd5b600054610100900460ff16158080156115635750600054600160ff909116105b8061157d5750303b15801561157d575060005460ff166001145b611609576040517f08c379a000000000000000000000000000000000000000000000000000000000815260206004820152602e60248201527f496e697469616c697a61626c653a20636f6e747261637420697320616c72656160448201527f647920696e697469616c697a65640000000000000000000000000000000000006064820152608401610fa4565b600080547fffffffffffffffffffffffffffffffffffffffffffffffffffffffffffffff00166001179055801561166757600080547fffffffffffffffffffffffffffffffffffffffffffffffffffffffffffff00ff166101001790555b606073ffffffffffffffffffffffffffffffffffffffff8516156118cc576040517fc00f14ab00000000000000000000000000000000000000000000000000000000815273ffffffffffffffffffffffffffffffffffffffff86811660048301527f0000000000000000000000000000000000000000000000000000000000000000169063c00f14ab90602401600060405180830381865afa158015611711573d6000803e3d6000fd5b505050506040513d6000823e601f3d9081017fffffffffffffffffffffffffffffffffffffffffffffffffffffffffffffffe01682016040526117579190810190615075565b6040517f318aee3d00000000000000000000000000000000000000000000000000000000815273ffffffffffffffffffffffffffffffffffffffff878116600483015291925060009182917f00000000000000000000000000000000000000000000000000000000000000009091169063318aee3d906024016040805180830381865afa1580156117ec573d6000803e3d6000fd5b505050506040513d601f19601f8201168201806040525081019061181091906150ec565b915091508163ffffffff16600014611888576009805463ffffffff841674010000000000000000000000000000000000000000027fffffffffffffffff00000000000000000000000000000000000000000000000090911673ffffffffffffffffffffffffffffffffffffffff8416171790556118c9565b600980547fffffffffffffffffffffffff00000000000000000000000000000000000000001673ffffffffffffffffffffffffffffffffffffffff89161790555b50505b60095460009061191490889073ffffffffffffffffffffffffffffffffffffffff81169074010000000000000000000000000000000000000000900463ffffffff1685612642565b9050600081805190602001209050600042905060007f000000000000000000000000000000000000000000000000000000000000000073ffffffffffffffffffffffffffffffffffffffff16633ed691ef6040518163ffffffff1660e01b8152600401602060405180830381865afa158015611994573d6000803e3d6000fd5b505050506040513d601f19601f820116820180604052508101906119b89190614d74565b90506000808483858f6119cc600143614e8f565b60408051602081019790975286019490945260608086019390935260c09190911b7fffffffffffffffff000000000000000000000000000000000000000000000000166080850152901b7fffffffffffffffffffffffffffffffffffffffff00000000000000000000000016608883015240609c82015260bc01604080518083037fffffffffffffffffffffffffffffffffffffffffffffffffffffffffffffffe001815290829052805160209091012060058190557f9a908e73000000000000000000000000000000000000000000000000000000008252600160048301526024820181905291507f000000000000000000000000000000000000000000000000000000000000000073ffffffffffffffffffffffffffffffffffffffff1690639a908e73906044016020604051808303816000875af1158015611b15573d6000803e3d6000fd5b505050506040513d601f19601f82011682018060405250810190611b399190614ea8565b508c600060026101000a81548173ffffffffffffffffffffffffffffffffffffffff021916908373ffffffffffffffffffffffffffffffffffffffff1602179055508b600260006101000a81548173ffffffffffffffffffffffffffffffffffffffff021916908373ffffffffffffffffffffffffffffffffffffffff1602179055508860039081611bcb9190614f0b565b506004611bd88982614f0b565b508c600860006101000a81548173ffffffffffffffffffffffffffffffffffffffff021916908373ffffffffffffffffffffffffffffffffffffffff16021790555062069780600760106101000a81548167ffffffffffffffff021916908367ffffffffffffffff1602179055507f060116213bcbf54ca19fd649dc84b59ab2bbd200ab199770e4d923e222a28e7f85838e604051611c7993929190615126565b60405180910390a15050505050508015611cea57600080547fffffffffffffffffffffffffffffffffffffffffffffffffffffffffffff00ff169055604051600181527f7f26b83ff96e1f2b6a682f133852f6798a09c465da95921460cefb38474024989060200160405180910390a15b50505050505050565b60005462010000900473ffffffffffffffffffffffffffffffffffffffff163314611d4a576040517f4755657900000000000000000000000000000000000000000000000000000000815260040160405180910390fd5b603c80547fffffffffffffffffffffffff00000000000000000000000000000000000000001673ffffffffffffffffffffffffffffffffffffffff83169081179091556040519081527fd331bd4c4cd1afecb94a225184bded161ff3213624ba4fb58c4f30c5a861144a90602001610e5b565b60015473ffffffffffffffffffffffffffffffffffffffff163314611e0e576040517fd1ec4b2300000000000000000000000000000000000000000000000000000000815260040160405180910390fd5b600154600080547fffffffffffffffffffff0000000000000000000000000000000000000000ffff1673ffffffffffffffffffffffffffffffffffffffff9092166201000081029290921790556040519081527f056dc487bbf0795d0bbb1b4f0af523a855503cff740bfb4d5475f7a90c091e8e9060200160405180910390a1565b60005462010000900473ffffffffffffffffffffffffffffffffffffffff163314611ee7576040517f4755657900000000000000000000000000000000000000000000000000000000815260040160405180910390fd5b60085473ffffffffffffffffffffffffffffffffffffffff16611f36576040517fc89374d800000000000000000000000000000000000000000000000000000000815260040160405180910390fd5b600880547fffffffffffffffffffffffff00000000000000000000000000000000000000001673ffffffffffffffffffffffffffffffffffffffff83169081179091556040519081527f5fbd7dd171301c4a1611a84aac4ba86d119478560557755f7927595b082634fb90602001610e5b565b60085473ffffffffffffffffffffffffffffffffffffffff168015801590611fe7575073ffffffffffffffffffffffffffffffffffffffff81163314155b1561201e576040517f24eff8c300000000000000000000000000000000000000000000000000000000815260040160405180910390fd5b4262093a807f000000000000000000000000000000000000000000000000000000000000000073ffffffffffffffffffffffffffffffffffffffff166330c27dde6040518163ffffffff1660e01b8152600401602060405180830381865afa15801561208e573d6000803e3d6000fd5b505050506040513d601f19601f820116820180604052508101906120b29190614ea8565b6120bc9190615165565b67ffffffffffffffff1611156120fe576040517f3d49ed4c00000000000000000000000000000000000000000000000000000000815260040160405180910390fd5b81600081900361213a576040517fcb591a5f00000000000000000000000000000000000000000000000000000000815260040160405180910390fd5b6103e8811115612176576040517fb59f753a00000000000000000000000000000000000000000000000000000000815260040160405180910390fd5b60075467ffffffffffffffff8082169161219e91849168010000000000000000900416615186565b11156121d6576040517fc630a00d00000000000000000000000000000000000000000000000000000000815260040160405180910390fd5b6007546005546801000000000000000090910467ffffffffffffffff169060005b8381101561247657600087878381811061221357612213615199565b905060200281019061222591906151c8565b61222e90615206565b90508361223a81615274565b825180516020918201208185015160408087015160608801519151959a509295506000946122a7948794929101938452602084019290925260c01b7fffffffffffffffff000000000000000000000000000000000000000000000000166040830152604882015260680190565b604080517fffffffffffffffffffffffffffffffffffffffffffffffffffffffffffffffe0818403018152918152815160209283012067ffffffffffffffff8916600090815260069093529120549091508114612330576040517fce3d755e00000000000000000000000000000000000000000000000000000000815260040160405180910390fd5b67ffffffffffffffff8616600090815260066020526040812055612355600188614e8f565b84036123c45742600760109054906101000a900467ffffffffffffffff1684604001516123829190615165565b67ffffffffffffffff1611156123c4576040517fc44a082100000000000000000000000000000000000000000000000000000000815260040160405180910390fd5b60208381015160408086015160608088015183519586018b90529285018790528481019390935260c01b7fffffffffffffffff0000000000000000000000000000000000000000000000001660808401523390911b7fffffffffffffffffffffffffffffffffffffffff000000000000000000000000166088830152609c82015260bc01604051602081830303815290604052805190602001209450505050808061246e9061529b565b9150506121f7565b506124ec7f0000000000000000000000000000000000000000000000000000000000000000846124a46108cb565b6124ae91906152d3565b73ffffffffffffffffffffffffffffffffffffffff7f0000000000000000000000000000000000000000000000000000000000000000169190613a3e565b60058190556007805467ffffffffffffffff841668010000000000000000027fffffffffffffffffffffffffffffffff0000000000000000ffffffffffffffff9091161790556040517f9a908e7300000000000000000000000000000000000000000000000000000000815260009073ffffffffffffffffffffffffffffffffffffffff7f00000000000000000000000000000000000000000000000000000000000000001690639a908e73906125be908790869060040167ffffffffffffffff929092168252602082015260400190565b6020604051808303816000875af11580156125dd573d6000803e3d6000fd5b505050506040513d601f19601f820116820180604052508101906126019190614ea8565b60405190915067ffffffffffffffff8216907f648a61dd2438f072f5a1960939abd30f37aea80d2e94c9792ad142d3e0a490a490600090a250505050505050565b6060600085858573a40d5f56745a118d0906a34e69aec8c0db1cb8fa600087604051602401612676969594939291906152ea565b604080517fffffffffffffffffffffffffffffffffffffffffffffffffffffffffffffffe08184030181529190526020810180517bffffffffffffffffffffffffffffffffffffffffffffffffffffffff167ff811bff70000000000000000000000000000000000000000000000000000000017905283519091506060906000036127c75760f9601f835161270b919061534d565b6040518060400160405280600881526020017f80808401c9c380940000000000000000000000000000000000000000000000008152507f00000000000000000000000000000000000000000000000000000000000000006040518060400160405280600281526020017f80b800000000000000000000000000000000000000000000000000000000000081525060e4876040516020016127b19796959493929190615368565b60405160208183030381529060405290506128cb565b815161ffff1015612804576040517f248b8f8200000000000000000000000000000000000000000000000000000000815260040160405180910390fd5b815160f961281360208361534d565b6040518060400160405280600881526020017f80808401c9c380940000000000000000000000000000000000000000000000008152507f00000000000000000000000000000000000000000000000000000000000000006040518060400160405280600281526020017f80b900000000000000000000000000000000000000000000000000000000000081525085886040516020016128b8979695949392919061544b565b6040516020818303038152906040529150505b805160208083019190912060408051600080825293810180835292909252601b908201526405ca1ab1e06060820152635ca1ab1e608082015260019060a0016020604051602081039080840390855afa15801561292c573d6000803e3d6000fd5b50506040517fffffffffffffffffffffffffffffffffffffffffffffffffffffffffffffffe0015191505073ffffffffffffffffffffffffffffffffffffffff81166129a4576040517fcd16196600000000000000000000000000000000000000000000000000000000815260040160405180910390fd5b6040516000906129ea9084906405ca1ab1e090635ca1ab1e90601b907fff000000000000000000000000000000000000000000000000000000000000009060200161552e565b604080517fffffffffffffffffffffffffffffffffffffffffffffffffffffffffffffffe08184030181529190529450505050505b949350505050565b60005462010000900473ffffffffffffffffffffffffffffffffffffffff163314612a7e576040517f4755657900000000000000000000000000000000000000000000000000000000815260040160405180910390fd5b600180547fffffffffffffffffffffffff00000000000000000000000000000000000000001673ffffffffffffffffffffffffffffffffffffffff83169081179091556040519081527fa5b56b7906fd0a20e3f35120dd8343db1e12e037a6c90111c7e42885e82a1ce690602001610e5b565b6040518060a001604052806062815260200161569e6062913981565b60005462010000900473ffffffffffffffffffffffffffffffffffffffff163314612b64576040517f4755657900000000000000000000000000000000000000000000000000000000815260040160405180910390fd5b6003612b708282614f0b565b507f6b8f723a4c7a5335cafae8a598a0aa0301be1387c037dccc085b62add6448b2081604051610e5b91906146b4565b60025473ffffffffffffffffffffffffffffffffffffffff163314612bf1576040517f11e7be1500000000000000000000000000000000000000000000000000000000815260040160405180910390fd5b856000819003612c2d576040517fcb591a5f00000000000000000000000000000000000000000000000000000000815260040160405180910390fd5b6103e8811115612c69576040517fb59f753a00000000000000000000000000000000000000000000000000000000815260040160405180910390fd5b612c74602442615186565b8667ffffffffffffffff161115612cb7576040517f0a00feb300000000000000000000000000000000000000000000000000000000815260040160405180910390fd5b7f000000000000000000000000000000000000000000000000000000000000000073ffffffffffffffffffffffffffffffffffffffff166379e2cf976040518163ffffffff1660e01b8152600401600060405180830381600087803b158015612d1f57600080fd5b505af1158015612d33573d6000803e3d6000fd5b5050505060007f000000000000000000000000000000000000000000000000000000000000000073ffffffffffffffffffffffffffffffffffffffff16635ca1e1656040518163ffffffff1660e01b8152600401602060405180830381865afa158015612da4573d6000803e3d6000fd5b505050506040513d601f19601f82011682018060405250810190612dc89190614d74565b60075460055491925068010000000000000000900467ffffffffffffffff1690816000805b868110156131045760008e8e83818110612e0957612e09615199565b905060800201803603810190612e1f919061558a565b604081015190915067ffffffffffffffff16156130135785612e4081615274565b96505060008160000151826020015183604001518460600151604051602001612ea79493929190938452602084019290925260c01b7fffffffffffffffff000000000000000000000000000000000000000000000000166040830152604882015260680190565b604080517fffffffffffffffffffffffffffffffffffffffffffffffffffffffffffffffe0818403018152918152815160209283012067ffffffffffffffff8a16600090815260069093529120549091508114612f30576040517fce3d755e00000000000000000000000000000000000000000000000000000000815260040160405180910390fd5b858260000151836020015184604001518f8660600151604051602001612fca969594939291909586526020860194909452604085019290925260c01b7fffffffffffffffff000000000000000000000000000000000000000000000000166060808501919091521b7fffffffffffffffffffffffffffffffffffffffff000000000000000000000000166068830152607c820152609c0190565b604051602081830303815290604052805190602001209550600660008867ffffffffffffffff1667ffffffffffffffff16815260200190815260200160002060009055506130f1565b805160405161302f918591602001918252602082015260400190565b604051602081830303815290604052805190602001209250848160000151888f8e6000801b6040516020016130d8969594939291909586526020860194909452604085019290925260c01b7fffffffffffffffff000000000000000000000000000000000000000000000000166060808501919091521b7fffffffffffffffffffffffffffffffffffffffff000000000000000000000000166068830152607c820152609c0190565b6040516020818303038152906040528051906020012094505b50806130fc8161529b565b915050612ded565b5060075467ffffffffffffffff908116908516111561314f576040517fc630a00d00000000000000000000000000000000000000000000000000000000815260040160405180910390fd5b60058390558567ffffffffffffffff858116908416146132055760006131758487614dbc565b905061318b67ffffffffffffffff821683614e8f565b91506131c47f00000000000000000000000000000000000000000000000000000000000000008267ffffffffffffffff166124a46108cb565b50600780547fffffffffffffffffffffffffffffffff0000000000000000ffffffffffffffff166801000000000000000067ffffffffffffffff8816021790555b801561339457613309337f0000000000000000000000000000000000000000000000000000000000000000837f000000000000000000000000000000000000000000000000000000000000000073ffffffffffffffffffffffffffffffffffffffff1663477fa2706040518163ffffffff1660e01b8152600401602060405180830381865afa15801561329c573d6000803e3d6000fd5b505050506040513d601f19601f820116820180604052508101906132c09190614d74565b6132ca91906152d3565b73ffffffffffffffffffffffffffffffffffffffff7f000000000000000000000000000000000000000000000000000000000000000016929190613b17565b603c546040517f3b51be4b00000000000000000000000000000000000000000000000000000000815273ffffffffffffffffffffffffffffffffffffffff90911690633b51be4b906133639085908d908d90600401615621565b60006040518083038186803b15801561337b57600080fd5b505afa15801561338f573d6000803e3d6000fd5b505050505b6040517f9a908e7300000000000000000000000000000000000000000000000000000000815267ffffffffffffffff88166004820152602481018590526000907f000000000000000000000000000000000000000000000000000000000000000073ffffffffffffffffffffffffffffffffffffffff1690639a908e73906044016020604051808303816000875af1158015613434573d6000803e3d6000fd5b505050506040513d601f19601f820116820180604052508101906134589190614ea8565b90506134648882614dbc565b67ffffffffffffffff168c67ffffffffffffffff16146134b0576040517f1a070d9a00000000000000000000000000000000000000000000000000000000815260040160405180910390fd5b8067ffffffffffffffff167f3e54d0825ed78523037d00a81759237eb436ce774bd546993ee67a1b67b6e766886040516134ec91815260200190565b60405180910390a2505050505050505050505050505050565b603c5474010000000000000000000000000000000000000000900460ff16613559576040517f821935b400000000000000000000000000000000000000000000000000000000815260040160405180910390fd5b6135668585858585613b7b565b5050505050565b60085473ffffffffffffffffffffffffffffffffffffffff1680158015906135ab575073ffffffffffffffffffffffffffffffffffffffff81163314155b156135e2576040517f24eff8c300000000000000000000000000000000000000000000000000000000815260040160405180910390fd5b7f000000000000000000000000000000000000000000000000000000000000000073ffffffffffffffffffffffffffffffffffffffff166315064c966040518163ffffffff1660e01b8152600401602060405180830381865afa15801561364d573d6000803e3d6000fd5b505050506040513d601f19601f820116820180604052508101906136719190614e72565b156136a8576040517f39258d1800000000000000000000000000000000000000000000000000000000815260040160405180910390fd5b60007f000000000000000000000000000000000000000000000000000000000000000073ffffffffffffffffffffffffffffffffffffffff1663604691696040518163ffffffff1660e01b8152600401602060405180830381865afa158015613715573d6000803e3d6000fd5b505050506040513d601f19601f820116820180604052508101906137399190614d74565b905082811115613775576040517f2354600f00000000000000000000000000000000000000000000000000000000815260040160405180910390fd5b6113888411156137b1576040517fa29a6c7c00000000000000000000000000000000000000000000000000000000815260040160405180910390fd5b6137f373ffffffffffffffffffffffffffffffffffffffff7f000000000000000000000000000000000000000000000000000000000000000016333084613b17565b60007f000000000000000000000000000000000000000000000000000000000000000073ffffffffffffffffffffffffffffffffffffffff16633ed691ef6040518163ffffffff1660e01b8152600401602060405180830381865afa158015613860573d6000803e3d6000fd5b505050506040513d601f19601f820116820180604052508101906138849190614d74565b6007805491925067ffffffffffffffff9091169060006138a383615274565b91906101000a81548167ffffffffffffffff021916908367ffffffffffffffff1602179055505085856040516138da92919061563b565b60405190819003902081426138f0600143614e8f565b60408051602081019590955284019290925260c01b7fffffffffffffffff000000000000000000000000000000000000000000000000166060830152406068820152608801604080517fffffffffffffffffffffffffffffffffffffffffffffffffffffffffffffffe0818403018152918152815160209283012060075467ffffffffffffffff16600090815260069093529120553233036139e857600754604080518381523360208201526060818301819052600090820152905167ffffffffffffffff909216917ff94bb37db835f1ab585ee00041849a09b12cd081d77fa15ca070757619cbc9319181900360800190a2611402565b60075460405167ffffffffffffffff909116907ff94bb37db835f1ab585ee00041849a09b12cd081d77fa15ca070757619cbc93190613a2e90849033908b908b9061564b565b60405180910390a2505050505050565b60405173ffffffffffffffffffffffffffffffffffffffff8316602482015260448101829052613b129084907fa9059cbb00000000000000000000000000000000000000000000000000000000906064015b604080517fffffffffffffffffffffffffffffffffffffffffffffffffffffffffffffffe08184030181529190526020810180517bffffffffffffffffffffffffffffffffffffffffffffffffffffffff167fffffffff00000000000000000000000000000000000000000000000000000000909316929092179091526143c9565b505050565b60405173ffffffffffffffffffffffffffffffffffffffff80851660248301528316604482015260648101829052613b759085907f23b872dd0000000000000000000000000000000000000000000000000000000090608401613a90565b50505050565b60025473ffffffffffffffffffffffffffffffffffffffff163314613bcc576040517f11e7be1500000000000000000000000000000000000000000000000000000000815260040160405180910390fd5b836000819003613c08576040517fcb591a5f00000000000000000000000000000000000000000000000000000000815260040160405180910390fd5b6103e8811115613c44576040517fb59f753a00000000000000000000000000000000000000000000000000000000815260040160405180910390fd5b613c4f602442615186565b8467ffffffffffffffff161115613c92576040517f0a00feb300000000000000000000000000000000000000000000000000000000815260040160405180910390fd5b7f000000000000000000000000000000000000000000000000000000000000000073ffffffffffffffffffffffffffffffffffffffff166379e2cf976040518163ffffffff1660e01b8152600401600060405180830381600087803b158015613cfa57600080fd5b505af1158015613d0e573d6000803e3d6000fd5b5050505060007f000000000000000000000000000000000000000000000000000000000000000073ffffffffffffffffffffffffffffffffffffffff16635ca1e1656040518163ffffffff1660e01b8152600401602060405180830381865afa158015613d7f573d6000803e3d6000fd5b505050506040513d601f19601f82011682018060405250810190613da39190614d74565b60075460055491925068010000000000000000900467ffffffffffffffff16908160005b858110156140c95760008b8b83818110613de357613de3615199565b9050602002810190613df591906151c8565b613dfe90615206565b8051805160209091012060408201519192509067ffffffffffffffff1615613fe35785613e2a81615274565b965050600081836020015184604001518560600151604051602001613e8d9493929190938452602084019290925260c01b7fffffffffffffffff000000000000000000000000000000000000000000000000166040830152604882015260680190565b604080517fffffffffffffffffffffffffffffffffffffffffffffffffffffffffffffffe0818403018152918152815160209283012067ffffffffffffffff8a16600090815260069093529120549091508114613f16576040517fce3d755e00000000000000000000000000000000000000000000000000000000815260040160405180910390fd5b60208381015160408086015160608088015183519586018c90529285018790528481019390935260c01b7fffffffffffffffff000000000000000000000000000000000000000000000000166080840152908c901b7fffffffffffffffffffffffffffffffffffffffff000000000000000000000000166088830152609c82015260bc01604051602081830303815290604052805190602001209550600660008867ffffffffffffffff1667ffffffffffffffff16815260200190815260200160002060009055506140b4565b8151516201d4c01015614022576040517fa29a6c7c00000000000000000000000000000000000000000000000000000000815260040160405180910390fd5b6040805160208101879052908101829052606080820189905260c08d901b7fffffffffffffffff0000000000000000000000000000000000000000000000001660808301528a901b7fffffffffffffffffffffffffffffffffffffffff0000000000000000000000001660888201526000609c82015260bc016040516020818303038152906040528051906020012094505b505080806140c19061529b565b915050613dc7565b5060075467ffffffffffffffff9081169084161115614114576040517fc630a00d00000000000000000000000000000000000000000000000000000000815260040160405180910390fd5b60058290558467ffffffffffffffff848116908316146141ca57600061413a8386614dbc565b905061415067ffffffffffffffff821683614e8f565b91506141897f00000000000000000000000000000000000000000000000000000000000000008267ffffffffffffffff166124a46108cb565b50600780547fffffffffffffffffffffffffffffffff0000000000000000ffffffffffffffff166801000000000000000067ffffffffffffffff8716021790555b61425b337f0000000000000000000000000000000000000000000000000000000000000000837f000000000000000000000000000000000000000000000000000000000000000073ffffffffffffffffffffffffffffffffffffffff1663477fa2706040518163ffffffff1660e01b8152600401602060405180830381865afa15801561329c573d6000803e3d6000fd5b6040517f9a908e7300000000000000000000000000000000000000000000000000000000815267ffffffffffffffff87166004820152602481018490526000907f000000000000000000000000000000000000000000000000000000000000000073ffffffffffffffffffffffffffffffffffffffff1690639a908e73906044016020604051808303816000875af11580156142fb573d6000803e3d6000fd5b505050506040513d601f19601f8201168201806040525081019061431f9190614ea8565b905061432b8782614dbc565b67ffffffffffffffff168967ffffffffffffffff1614614377576040517f1a070d9a00000000000000000000000000000000000000000000000000000000815260040160405180910390fd5b8067ffffffffffffffff167f3e54d0825ed78523037d00a81759237eb436ce774bd546993ee67a1b67b6e766876040516143b391815260200190565b60405180910390a2505050505050505050505050565b600061442b826040518060400160405280602081526020017f5361666545524332303a206c6f772d6c6576656c2063616c6c206661696c65648152508573ffffffffffffffffffffffffffffffffffffffff166144d59092919063ffffffff16565b805190915015613b1257808060200190518101906144499190614e72565b613b12576040517f08c379a000000000000000000000000000000000000000000000000000000000815260206004820152602a60248201527f5361666545524332303a204552433230206f7065726174696f6e20646964206e60448201527f6f742073756363656564000000000000000000000000000000000000000000006064820152608401610fa4565b6060612a1f8484600085856000808673ffffffffffffffffffffffffffffffffffffffff168587604051614509919061568b565b60006040518083038185875af1925050503d8060008114614546576040519150601f19603f3d011682016040523d82523d6000602084013e61454b565b606091505b509150915061455c87838387614567565b979650505050505050565b606083156145fd5782516000036145f65773ffffffffffffffffffffffffffffffffffffffff85163b6145f6576040517f08c379a000000000000000000000000000000000000000000000000000000000815260206004820152601d60248201527f416464726573733a2063616c6c20746f206e6f6e2d636f6e74726163740000006044820152606401610fa4565b5081612a1f565b612a1f83838151156146125781518083602001fd5b806040517f08c379a0000000000000000000000000000000000000000000000000000000008152600401610fa491906146b4565b60005b83811015614661578181015183820152602001614649565b50506000910152565b60008151808452614682816020860160208601614646565b601f017fffffffffffffffffffffffffffffffffffffffffffffffffffffffffffffffe0169290920160200192915050565b6020815260006146c7602083018461466a565b9392505050565b80151581146146dc57600080fd5b50565b6000602082840312156146f157600080fd5b81356146c7816146ce565b67ffffffffffffffff811681146146dc57600080fd5b803561471d816146fc565b919050565b73ffffffffffffffffffffffffffffffffffffffff811681146146dc57600080fd5b803561471d81614722565b60008060006060848603121561476457600080fd5b833561476f816146fc565b925060208401359150604084013561478681614722565b809150509250925092565b6000602082840312156147a357600080fd5b81356146c7816146fc565b7f4e487b7100000000000000000000000000000000000000000000000000000000600052604160045260246000fd5b6040516080810167ffffffffffffffff81118282101715614800576148006147ae565b60405290565b604051601f82017fffffffffffffffffffffffffffffffffffffffffffffffffffffffffffffffe016810167ffffffffffffffff8111828210171561484d5761484d6147ae565b604052919050565b600067ffffffffffffffff82111561486f5761486f6147ae565b50601f017fffffffffffffffffffffffffffffffffffffffffffffffffffffffffffffffe01660200190565b600082601f8301126148ac57600080fd5b81356148bf6148ba82614855565b614806565b8181528460208386010111156148d457600080fd5b816020850160208301376000918101602001919091529392505050565b600080600080600060a0868803121561490957600080fd5b853561491481614722565b9450602086013561492481614722565b9350604086013567ffffffffffffffff8082111561494157600080fd5b61494d89838a0161489b565b9450606088013591508082111561496357600080fd5b506149708882890161489b565b95989497509295608001359392505050565b60006020828403121561499457600080fd5b81356146c781614722565b63ffffffff811681146146dc57600080fd5b60008060008060008060c087890312156149ca57600080fd5b86356149d581614722565b955060208701356149e581614722565b945060408701356149f58161499f565b93506060870135614a0581614722565b9250608087013567ffffffffffffffff80821115614a2257600080fd5b614a2e8a838b0161489b565b935060a0890135915080821115614a4457600080fd5b50614a5189828a0161489b565b9150509295509295509295565b60008083601f840112614a7057600080fd5b50813567ffffffffffffffff811115614a8857600080fd5b6020830191508360208260051b8501011115614aa357600080fd5b9250929050565b60008060208385031215614abd57600080fd5b823567ffffffffffffffff811115614ad457600080fd5b614ae085828601614a5e565b90969095509350505050565b60008060008060808587031215614b0257600080fd5b8435614b0d8161499f565b93506020850135614b1d81614722565b92506040850135614b2d8161499f565b9150606085013567ffffffffffffffff811115614b4957600080fd5b614b558782880161489b565b91505092959194509250565b600060208284031215614b7357600080fd5b813567ffffffffffffffff811115614b8a57600080fd5b612a1f8482850161489b565b60008083601f840112614ba857600080fd5b50813567ffffffffffffffff811115614bc057600080fd5b602083019150836020828501011115614aa357600080fd5b600080600080600080600060a0888a031215614bf357600080fd5b873567ffffffffffffffff80821115614c0b57600080fd5b818a0191508a601f830112614c1f57600080fd5b813581811115614c2e57600080fd5b8b60208260071b8501011115614c4357600080fd5b60208301995080985050614c5960208b01614712565b9650614c6760408b01614712565b9550614c7560608b01614744565b945060808a0135915080821115614c8b57600080fd5b50614c988a828b01614b96565b989b979a50959850939692959293505050565b600080600080600060808688031215614cc357600080fd5b853567ffffffffffffffff811115614cda57600080fd5b614ce688828901614a5e565b9096509450506020860135614cfa816146fc565b92506040860135614d0a816146fc565b91506060860135614d1a81614722565b809150509295509295909350565b600080600060408486031215614d3d57600080fd5b833567ffffffffffffffff811115614d5457600080fd5b614d6086828701614b96565b909790965060209590950135949350505050565b600060208284031215614d8657600080fd5b5051919050565b7f4e487b7100000000000000000000000000000000000000000000000000000000600052601160045260246000fd5b67ffffffffffffffff828116828216039080821115614ddd57614ddd614d8d565b5092915050565b600082614e1a577f4e487b7100000000000000000000000000000000000000000000000000000000600052601260045260246000fd5b500490565b600181811c90821680614e3357607f821691505b602082108103614e6c577f4e487b7100000000000000000000000000000000000000000000000000000000600052602260045260246000fd5b50919050565b600060208284031215614e8457600080fd5b81516146c7816146ce565b81810381811115614ea257614ea2614d8d565b92915050565b600060208284031215614eba57600080fd5b81516146c7816146fc565b601f821115613b1257600081815260208120601f850160051c81016020861015614eec5750805b601f850160051c820191505b8181101561140257828155600101614ef8565b815167ffffffffffffffff811115614f2557614f256147ae565b614f3981614f338454614e1f565b84614ec5565b602080601f831160018114614f8c5760008415614f565750858301515b7fffffffffffffffffffffffffffffffffffffffffffffffffffffffffffffffff600386901b1c1916600185901b178555611402565b6000858152602081207fffffffffffffffffffffffffffffffffffffffffffffffffffffffffffffffe08616915b82811015614fd957888601518255948401946001909101908401614fba565b508582101561501557878501517fffffffffffffffffffffffffffffffffffffffffffffffffffffffffffffffff600388901b60f8161c191681555b5050505050600190811b01905550565b67ffffffffffffffff85168152608060208201526000615048608083018661466a565b905083604083015273ffffffffffffffffffffffffffffffffffffffff8316606083015295945050505050565b60006020828403121561508757600080fd5b815167ffffffffffffffff81111561509e57600080fd5b8201601f810184136150af57600080fd5b80516150bd6148ba82614855565b8181528560208385010111156150d257600080fd5b6150e3826020830160208601614646565b95945050505050565b600080604083850312156150ff57600080fd5b825161510a8161499f565b602084015190925061511b81614722565b809150509250929050565b606081526000615139606083018661466a565b905083602083015273ffffffffffffffffffffffffffffffffffffffff83166040830152949350505050565b67ffffffffffffffff818116838216019080821115614ddd57614ddd614d8d565b80820180821115614ea257614ea2614d8d565b7f4e487b7100000000000000000000000000000000000000000000000000000000600052603260045260246000fd5b600082357fffffffffffffffffffffffffffffffffffffffffffffffffffffffffffffff818336030181126151fc57600080fd5b9190910192915050565b60006080823603121561521857600080fd5b6152206147dd565b823567ffffffffffffffff81111561523757600080fd5b6152433682860161489b565b82525060208301356020820152604083013561525e816146fc565b6040820152606092830135928101929092525090565b600067ffffffffffffffff80831681810361529157615291614d8d565b6001019392505050565b60007fffffffffffffffffffffffffffffffffffffffffffffffffffffffffffffffff82036152cc576152cc614d8d565b5060010190565b8082028115828204841417614ea257614ea2614d8d565b600063ffffffff808916835273ffffffffffffffffffffffffffffffffffffffff8089166020850152818816604085015280871660608501528086166080850152505060c060a083015261534160c083018461466a565b98975050505050505050565b61ffff818116838216019080821115614ddd57614ddd614d8d565b60007fff00000000000000000000000000000000000000000000000000000000000000808a60f81b1683527fffff0000000000000000000000000000000000000000000000000000000000008960f01b16600184015287516153d1816003860160208c01614646565b80840190507fffffffffffffffffffffffffffffffffffffffff0000000000000000000000008860601b1660038201528651615414816017840160208b01614646565b808201915050818660f81b1660178201528451915061543a826018830160208801614646565b016018019998505050505050505050565b7fff000000000000000000000000000000000000000000000000000000000000008860f81b16815260007fffff000000000000000000000000000000000000000000000000000000000000808960f01b16600184015287516154b4816003860160208c01614646565b80840190507fffffffffffffffffffffffffffffffffffffffff0000000000000000000000008860601b16600382015286516154f7816017840160208b01614646565b808201915050818660f01b1660178201528451915061551d826019830160208801614646565b016019019998505050505050505050565b60008651615540818460208b01614646565b9190910194855250602084019290925260f81b7fff000000000000000000000000000000000000000000000000000000000000009081166040840152166041820152604201919050565b60006080828403121561559c57600080fd5b6155a46147dd565b823581526020830135602082015260408301356155c0816146fc565b60408201526060928301359281019290925250919050565b8183528181602085013750600060208284010152600060207fffffffffffffffffffffffffffffffffffffffffffffffffffffffffffffffe0601f840116840101905092915050565b8381526040602082015260006150e36040830184866155d8565b8183823760009101908152919050565b84815273ffffffffffffffffffffffffffffffffffffffff841660208201526060604082015260006156816060830184866155d8565b9695505050505050565b600082516151fc81846020870161464656fedf2a8080944d5cf5032b2a844602278b01199ed191a86c93ff8080821092808000000000000000000000000000000000000000000000000000000005ca1ab1e000000000000000000000000000000000000000000000000000000005ca1ab1e01bffa264697066735822122076a6468b4a04778210f7d69ad5c187d1ad8bbc8eada93f102010a22f0d8f8d6d64736f6c63430008140033",
  "linkReferences": {},
  "deployedLinkReferences": {}
}